:020000041000EA
:1000000000B5324B212058609868022188439860DF
:10001000D860186158612E4B002199600221596106
:100020000121F02299502B49196001219960352056
:1000300000F044F80222904214D00621196600F024
:1000400034F8196E01211966002018661A6600F04E
:100050002CF8196E196E196E052000F02FF8012189
:100060000842F9D1002199601B49196000215960AB
:100070001A491B48016001219960EB211966A021F2
:10008000196600F012F800219960164914480160C1
:100090000121996001BC002800D000471248134993
:1000A000086003C880F30888084703B5996A0420EC
:1000B0000142FBD001200142F8D103BD02B5186610
:1000C0001866FFF7F2FF186E186E02BD00000240BE
:1000D000000000180000070000035F00212200005C
:1000E000F4000018222000A00001001008ED00E03C
:1000F00000000000000000000000000074B24E7A12
:1001000000200420F7010010C3010010C5010010F9
:10011000C1010010C1010010C1010010C101001097
:10012000C1010010C1010010C1010010C701001081
:10013000C1010010C1010010C9010010CB01001065
:10014000CD010010CD010010CD010010CD01001037
:10015000CD010010CD010010CD010010CD01001027
:10016000CD010010CD010010CD010010CD01001017
:10017000CD010010CD010010CD010010CD01001007
:10018000CD010010CD010010CD010010CD010010F7
:10019000CD010010CD010010CD010010CD010010E7
:1001A000CD010010CD010010CD010010CD010010D7
:1001B000CD010010CD010010CD010010CD010010C7
:1001C00000BE00BE00BE00BE00BE00BE00F04BF888
:1001D000103800BEF2EB8871BC1C0410E01C041047
:1001E0003402001090A31AE700202149086006C8D5
:1001F00081F3088810471F48006800282FD10DA4FC
:100200000ECC002902D000F012F8F9E71A491B4A77
:10021000002000E001C19142FCD1194988471949E9
:1002200088471949884700BEFDE701C901C29A42C3
:10023000FBD37047E01C0410C0000020F80A002027
:1002400018270410000004200000042018270410C0
:1002500000100420001004200000000070470B482C
:1002600004F00CF80047EFF30580C0B270470000BF
:1002700008ED00E0000000D0F80A0020BC190020C2
:10028000652C00105D050010212C00105756000051
:1002900006005250ABB3605328970010060052502E
:1002A000861C030238970010060052505422A29D6B
:1002B0003C97001005005250DE65F46818270410C2
:1002C000F8B5C04610B5064C2378002B07D1054B76
:1002D000002B02D0044800E000BF0123237010BDB2
:1002E000800C00200000000098830010044B10B523
:1002F000002B03D00349044800E000BF10BDC046F6
:1003000000000000840C00209883001030B585B0F8
:100310000CE06B46DA781300303BDBB2092B1AD8BD
:1003200019490B68581C086001A9CA54174B9B69EE
:1003300010210A001A40194223D16B46D91C002A09
:10034000E7D1124B9B69DB06FBD4104B1B680B708B
:1003500001320131F3E70A2A01D00D2AE6D10A4C15
:1003600001A800252368C55407F006FE04F0B6FA7C
:100370000022074B04F023FA064B186059602560F1
:10038000D4E705B030BDC046B40D002000400340A6
:1003900000005940780C002010B582B008E06B4690
:1003A00007331B78C82B18D0384A1278002A18D186
:1003B000374B9B6910210A001A40194264D16B46E1
:1003C000D91D002AEBD1324B9B69DB06FBD4304BA5
:1003D0001B680B7001320131F3E72C4A01211170C7
:1003E000E2E72C4A12681F2A05D82B498B540132A8
:1003F000284B1A60DCE7284BDC79C02C14D0C12CC8
:1004000025D0254B9C7BBF2C35D0244B18685968D0
:100410000022002304F02CFA00282FD0002C2DD12C
:100420001F4B01221A7029E0987904F057FA002234
:100430001C4B04F0BAF900221B4B04F0C0F9002257
:100440001A4B04F0D6F9154B18605960D7E7124BD8
:10045000987904F043FA0022154B04F0B0F9002219
:10046000124B04F0C6F90022104B04F0A3F90B4B19
:1004700018605960C5E70A4B00221A700023034A2E
:100480001370044A136093E702B010BDB81900203E
:10049000008003407417002054170020780C0020BF
:1004A000B11900200080464000406A400000E03F53
:1004B0000080684010B5E1210B4C4902200002F099
:1004C0006DFB0221002000F033FD0221012000F02D
:1004D0002FFD5023A363636B38221A400349802306
:1004E0005B010B431A6010BD0040034034400340E1
:1004F00010B5154C1549200002F050FB02210820D0
:1005000000F016FD0221092000F012FD5023A36324
:10051000636B3821194080235B010D4A1A43116037
:10052000216BC022120211400A4A1A431160E26A8A
:10053000602151406E220A4007490B431A60E16A6C
:1005400010220A401A6010BD00800340A068060017
:1005500034800340308003402C800340F0B591B0DC
:1005600004F09AFCFFF7A6FF8249142000F0E0FE99
:100570000121142000F0C4FEFFF7BAFF7E491520C8
:1005800000F0D6FE0121152000F0BAFE04F028FF8D
:10059000002800D0E7E0012104F0B6FD774C0723E6
:1005A0000093013B04220521200000F049F9744822
:1005B00004F034FC3221200000F02DFA322120001A
:1005C00000F088FA22696369206A616A02900391E7
:1005D000A069E169009001916A4804F051FC0CA9FE
:1005E000694B0A0031CB31C21B681360674C684A03
:1005F000684B02920393664A674B00920193674BE4
:100600003222200000F0DEFA654804F007FC2000EA
:1006100000F076FB634D280004F032FC624804F0E1
:10062000FDFB200000F0F2FB280004F029FC012172
:10063000002004F069FD642001F0AAFE00210800FA
:1006400004F062FD642001F0A3FE0121002004F00B
:100650005BFD642001F09CFE0021080004F054FDC5
:10066000642001F095FE0121002004F04DFD35E0ED
:100670004E4D474A474B2868696804F09BF80200D2
:100680000B00424C00210091200000F0F3FB404A97
:10069000404B2868696804F08DF802000B000121C6
:1006A0000091200000F0E6FB394A3A4B286869685F
:1006B00004F080F802000B0002210091200000F0FD
:1006C000D9FB28686968324A324B04F073F802009B
:1006D0000B0003210091200000F0CCFB274C2000F0
:1006E00000F05AF9226C636C206F616F0A900B91D5
:1006F000A06EE16E08900991206E616E06900791E0
:10070000A06DE16D04900591206D616D02900391E3
:10071000A06CE16C00900191254804F0B1FB254BE1
:100720001B78002BA4D100260027184C002300932F
:1007300032003B00200000F09DFB012300933200BB
:100740003B00200000F096FB0223009332003B00A8
:10075000200000F08FFB0323009332003B002000B9
:1007600000F088FBBAE7144804F08AFB01204042FD
:1007700011B0F0BD0D03001099030010F80B00201C
:10078000AC830010D4830010A08400102417002034
:100790009A9999999999B93F9999A93FA086010089
:1007A000048400101884001020840010780C0020AD
:1007B00030840010B119002098830010F0B5CE46A7
:1007C000474680B583B00500904699466B46D81DD4
:1007D0000170CAB280235B4213430370C046C04617
:1007E000C04601242300AA6F9340D0263606B36189
:1007F000C046C046C046114F01220100380007F034
:10080000ABFD0A20002101F097FD4B464246002136
:10081000380007F069FDC046C046C046AB6F9C403B
:100820007461C046C046C0460A20002101F084FD24
:1008300003B0C0BCB946B046F0BDC04600C00340DE
:10084000F0B5C64600B582B005000E0017001C00CA
:100850001D4B98461D49180004F004FC0121380086
:1008600000F066FB0121200000F062FB01210898E6
:1008700000F05EFB300000F01FFC01242300B340B9
:10088000D0273F067B627B61AE6701A96C23FF33F3
:100890000B80C046C046C0462300AA6F9340BB6190
:1008A000C046C046C0460222404607F055FDC0463D
:1008B000C046C046AB6F9C407C61C046C046C04647
:1008C00002B080BCB846F0BD00C00340A086010065
:1008D00070B5050000241DE06600705F03F0FEFFA8
:1008E0000022154B03F06BFF23000833DB00EB18ED
:1008F00018605960AE190623F05E03F0EFFF002286
:100900000E4B03F076FF23000B33DB00EB1818606F
:1009100059600134022CDFDD0C23E85E03F0DEFFBA
:10092000074A084B03F04BFF0022074B03F042FF3E
:100930002867696770BDC046006060400000103FD6
:1009400052B81E85EBDD74400000354070B50600DE
:1009500000241EE0A31CDB00F3181A685B68250066
:100960000835ED0075192868696803F01EFF2860D6
:100970006960631DDB00F3181A685B6825000B359E
:10098000ED0075192868696803F00FFF2860696039
:100990000134022CDEDD70BD30B583B004000623C7
:1009A0006A463B21FFF70AFF00220AE0530069462E
:1009B000C85C0002591C6D46695C0143E318D9808C
:1009C0000132022AF2DD06236A4643212000FFF7A6
:1009D000F5FE002309E05A006946885C0002511CBC
:1009E0006D46695C0143A1520133022BF3DD022302
:1009F0006A4641212000FFF7E1FE6B461A78120299
:100A00005B781343A3812000FFF762FF2000FFF70C
:100A10009DFF03B030BDF8B5DE4657464E4645460D
:100A2000E0B500AF824688464B004344DB006A468F
:100A3000D31A9D46EB46002416E05046FFF7ACFF64
:100A400063001B19DB005B445246116C526C196049
:100A50005A605246916CD26C9960DA605246116DC0
:100A6000526D19615A6101344445E6DB0023994611
:100A700021E073009B194B44DB005B441A685B6800
:100A80002000290003F096FE04000D0001364645C3
:100A9000EFDB404603F022FF02000B00200029009C
:100AA00003F08DFE4B460233DB005344186059605F
:100AB00001239C46E1444B46022B03DC0026002424
:100AC0000025E4E7BD46F0BCBB46B246A946A046B9
:100AD000F8BD0000F8B5DE4657464E464546E0B53F
:100AE00000AF824688464B004344DB006A46D31A77
:100AF0009D46EB46002416E05046FFF74DFF63008D
:100B00001B19DB005B445246916DD26D19605A602F
:100B10005246116E526E9960DA605246916ED26EF4
:100B200019615A6101344445E6DB0023994624E00B
:100B300073009B194B44DB005B441A685B68200020
:100B4000290003F037FE04000D0001364645EFDBB7
:100B50004B46022B18D0404603F0C0FE02000B00AB
:100B60002000290003F02BFE4B460533DB005344E5
:100B70001860596001239C46E1444B46022B17DC68
:100B8000002600240025E1E7404603F0A7FE02000E
:100B90000B002000290003F012FE0022084B03F096
:100BA00004FE4B460533DB00534418605960E1E70F
:100BB000BD46F0BCBB46B246A946A046F8BDC046FD
:100BC0000000F03FF0B5DE4657464E464546E0B5DC
:100BD00083B08046009101929946180003F07AFE96
:100BE00004000D000C9A0D9B03F003FE03F0B2FE0F
:100BF000434618800E9A0F9B2000290003F0F9FD50
:100C000003F0A8FE4346588000239B4617E00A00E5
:100C100061E0374A31684B4013408022520116434D
:100C20003360A3001C19A400324B9C466444216825
:100C300001238B431443236001239C46E3445B461A
:100C4000032B4DDC5B469B00009AD71843443A685F
:100C50005A600421386800F06BF93B685C0807268D
:100C60003440052002F09AF901994B46594303F0AC
:100C700059FB03F03BFF824603F060FFC5B228003A
:100C800003F03AFF011C504603F00FFF8321C90512
:100C900003F025FF03F052FFC0B22D010543A3006E
:100CA0001B199B00134A944663445D604A46120434
:100CB000120C1A613A6843461B88550835400120DA
:100CC00001001140AE007619B6000B4DAC466644EB
:100CD00010429CD01022934000299AD0074A99E7ED
:100CE00003B0F0BCBB46B246A946A046F0BDC04624
:100CF000FFFF0000000005400C0005400000FFFF62
:100D0000F8B5040000200AE039001DE03B491D68E9
:100D10006A400A40802149010B431A6001300328D0
:100D200017DC8300E3185D682288690807231940EF
:100D3000012637002F408B005B189B0030498C4602
:100D400063442E42E0D010218A40002FDED02D498E
:100D5000DDE700200AE039001DE028491D686A40EF
:100D60000A40802149010B431A600130032817DC37
:100D70008300E3185D68628869080723194001262B
:100D800037002F408B005B189B001D498C46634445
:100D90002E42E0D010218A40002FDED01949DDE735
:100DA000194801F0F5FA00200AE039001DE0134966
:100DB0001D686A400A40802149010B431A600130D6
:100DC000032817DC8300E3185D682288690807237D
:100DD0001940012637002F408B005B189B00084903
:100DE0008C4663442E42E0D010218A40002FDED092
:100DF0000449DDE7044801F0CBFAF8BDFFFF00002D
:100E00000C0005400000FFFFB80B0000F8B50024FF
:100E10000AE039001DE014491D686A400A4080213B
:100E200049010B431A600134032C17DCA300C318DB
:100E30005D680288690807231940012637002F40A2
:100E40008B005B189B0009498C4663442E42E0D01E
:100E500010218A40002FDED00549DDE7FA2040004E
:100E600001F096FAF8BDC046FFFF00000C000540F7
:100E70000000FFFFF8B5060014001D00002200234B
:100E80002000290003F0FCFC00280DD10022244B97
:100E90002000290003F00AFD002801D00024204D85
:100EA000069B032B03D9F8BD00240025EEE7378805
:100EB0007088C01B03F012FD22002B0003F099FC88
:100EC00004000D00380003F009FD22002B0003F0A0
:100ED00071FC03F03FFD82B2069B98003018406819
:100EE0004108072319400124250005408B005B18A9
:100EF0009B000C498C46634404420DD010218A406B
:100F00001000002D0AD0084A19684840104080227D
:100F1000520113431860C6E72900F0E7034AF3E7DC
:100F20000000F03F0C0005400000FFFFFFFF000045
:100F300010B58300084A944663441C68402262400E
:100F4000C02414408022520113431C60C000034B94
:100F50009C466044416010BD04C001400040014017
:100F600080000B4B9C46604400290DD00823002ACA
:100F70000CD004221343026853400C2213408022F9
:100F800052011043036070470023F0E70022F1E7AD
:100F900004C00140002909D08000094B9C466044F0
:100FA00080239B0118430223036070478000044B99
:100FB0009C466044C0239B01184302230360F4E76E
:100FC00004C0014070B5D0231B061B689D00094C6E
:100FD0002C59204207D19B002043064C18510D206C
:100FE00000F0D0F970BD044B044ACC21044801F054
:100FF0001BFEC04678170020B084001084850010C6
:10100000DC84001010B50400D0231B061B689B0075
:101010000A4A9B5818420BD00D2000F0CBFAD0237F
:101020001B061B6805499B005A58A2435A5010BD25
:10103000034B044AD621044801F0F6FD781700203E
:101040003485001060850010DC8400100723034005
:101050009B00C00899403C308000014BC150704754
:1010600000400140F8B507000C0016001D00FFF716
:10107000EDFFFB089B00ED180720384080008440FE
:10108000002E04D080239B011D432C60F8BDC0239B
:101090009B011D432C60F9E710B5D0231B061B688C
:1010A000002B03D0024BFFF7DDFF10BD014BFAE729
:1010B000304101400041014010B501238340D0225E
:1010C0001206936293610521FFF732FF10BD000005
:1010D000EFF3108072B6034B1B68002BFBD0BFF3FD
:1010E0005F8F70472C0100D0BFF35F8F024B00224F
:1010F0001A6080F3108870472C0100D0F8B5060004
:101100000C001500FFF7E4FFE308F718F15C072275
:101110002240012393400B4205D1DBB20B433B70CD
:10112000FFF7E2FFF8BD2100280001F017FEF0B53F
:1011300083B00600019114001F00FFF7C9FF00E013
:101140000134BC420CD8E308F518F35C07212140B8
:1011500001228A401A42F3D1D2B21A432A7001E026
:1011600001246442FFF7C0FF002C02DB200003B023
:10117000F0BD019B002BF9D0089801F0EFFD0000B5
:1011800070B505000C00FFF7A3FFE308EE18EA5C5A
:1011900007210C400123A340134204D09A4332702C
:1011A000FFF7A2FF70BD034B034A2C31034801F047
:1011B0003BFDC046B885001034860010D88500106D
:1011C000034B1B6802201840431E9841C0B2704771
:1011D00000C00640002307E0054A9A189200BFF3BA
:1011E0005F8F0021116001331F2BF5D97047C04676
:1011F00040000034054A1078431CDBB21370172BF3
:1012000002D9130010221A707047C046F005002062
:10121000074B9B68103080001950BFF35F8FBFF3FE
:101220005F8F044B0021196082F310887047C0461D
:1012300000ED00E0240100D01F23181A70470000C1
:1012400010B5091A081F0A4B9C466144094A91428D
:1012500008D8C30706D440104005400D064B18437C
:1012600080B210BD054B064A9921064801F0DCFC0E
:10127000FC070000FE0F000000E0FFFF44860010A6
:10128000BC8800107486001010B5091A04394C0887
:10129000090B08D14905490D064A11430180064B47
:1012A0002343438010BD054B054AA121054801F0A9
:1012B000BBFCC04600F0FFFF00F8FFFFCC8600102B
:1012C000908800107486001001238340034A106840
:1012D0001840431E9841C0B27047C04600E100E08C
:1012E000002904D0034B1860034B18607047034B70
:1012F0001860FBE780E200E000E100E080E100E050
:1013000010B5012383401800FFF7EAFF10BD00006D
:1013100001238340014A13607047C04600E200E0A9
:10132000024B9B6810308000C058704700ED00E011
:1013300070B504000D00EFF3108672B60C4B1B68FD
:10134000002BFBD0BFF35F8F2000FFF7E9FF094BB5
:10135000984201D0A84205D1320029002000FFF7B1
:1013600057FF70BD044B054A7C21054801F05CFC29
:10137000240100D0CD010010DC860010F0880010A0
:1013800074860010F0B5DE4657464E464546E0B539
:1013900089B0814601911500EFF3108A72B6744B43
:1013A0001B68002BFBD0BFF35F8F724B0027DF570A
:1013B000002F40DB7C00E419A4006F4824180622AB
:1013C000A2566C4B1A706D4B9A684B4610339B00BB
:1013D000D35898461E001B1A2F2B38D9684B9845B6
:1013E0002FD105AE674B33807B009B46D819800018
:1013F000614B9846404402306349FFF721FF7080FB
:10140000624BB380FF23B371F571019B07935F4477
:10141000BF0047440ECE0EC701231C43A0465246D0
:1014200041464846FFF7F4FE09B0F0BCBB46B24661
:10143000A946A046F0BD564B564ACD21564801F06C
:10144000F3FB564B534AD421534801F0EDFBC04304
:1014500040440C2102F066FF002912D101239E4373
:10146000B34633000026DA79AA4211D9062159562B
:1014700000290CDB4A00521892001E003E4B9B18BC
:10148000F1E7474B434AE021434801F0CDFB1E0002
:10149000002E3BD005AB434A1A80813A5A8006237E
:1014A000F3560293002B18DABD20000205AB9B46D1
:1014B0009880029A9A71DD71019A0792301D21007D
:1014C000FFF7BEFEB080B7717B00DB199B002A4F8F
:1014D000FF185B4607CB07C7A1E77800C01980005B
:1014E000254BC0180430321DB388D90A1C2907D1F6
:1014F0005B055915023149005118FFF7A1FED5E7E8
:10150000294B2A4AA721244801F08EFB05AE1D4B2A
:1015100033807B000293D8198000174A904602005E
:1015200042440392901C1849FFF78AFE7080039A88
:10153000101D5946FFF784FEB0801D4B5A464146A8
:10154000521A524153431B0DB371F571019A079220
:10155000029B9C466744BF0047440ECE0EC7114B0A
:101560005A461380813B538001231C43A04656E713
:10157000240100D0B4190020F405002000ED00E0A3
:10158000CD01001000A1FFFF2406002000BDFFFFD9
:1015900014870010D8880010748600103C87001053
:1015A0006487001001480000D8870010C888001028
:1015B000AAAA0000F0B5CE46474680B583B0060023
:1015C0000D00EFF3108872B6564B1B68002BFBD052
:1015D000BFF35F8F544B9A6834001034A300D75880
:1015E000524B9F4207D0AF4200D199E00197504B38
:1015F000FB1A2F2B09D9424639003000FFF708FEAD
:1016000003B0C0BCB946B046F0BD3000FFF75CFE89
:10161000814600213000FFF773FEBFF35F8FFEF7B6
:1016200022FE002801D0844211D10123019C9C4359
:101630000022A368AB4212D00622A256002A0DDB7C
:1016400053009B189B002200394CE418F1E72C2131
:10165000384B394AFF31394801F0E6FA2200AB42F3
:1016600057D106256557002D39DB6B005B199A00B1
:101670002F4B9B189A68A260DA79E27106229A567B
:10168000A2719B795BB2002B10DABD200002A08012
:101690006B005B199B00264AD318294A117899716F
:1016A000157049463000FFF72BFEA4E7201D6B00A4
:1016B0005B199B001E4A9B181A1D9B88D90A1C297E
:1016C00007D15B055B15023359005118FFF7B8FDD0
:1016D000DDE71C4B1C4AA721184801F0A5FA002899
:1016E00012D1002A0ED0FF239371184B9380144A15
:1016F0001378A371164B0E49641A644163431B0DA2
:101700001370CEE7094FF2E7201D1249FFF7BCFD29
:10171000C7E76021104B084AFF31084801F084FAFE
:10172000024F68E7240100D000ED00E0CD01001079
:10173000F4050020F0870010A888001074860010BF
:10174000B4190020D8870010C888001000BDFFFF22
:10175000AAAA00002E0600201488001010B503234A
:1017600004009C43064A9446644422681840C00022
:10177000FC3383409A43130081400B43236010BD28
:1017800000E400E070B50400012606432D4BF31A77
:101790002F2B28D8FEF767FD00282BD0EFF3108CF5
:1017A00072B6294B1B68002BFBD0BFF35F8F274D10
:1017B00022002449521A524155432D0D6DB2244B3B
:1017C0009B6880001B58B3421BD00022032A32D8EA
:1017D00053009B189B001B49CB189B795BB2AB4213
:1017E0001FD00132F2E7C2211A4B1B4A49001B48A5
:1017F00001F01AFA88211A4B174AFF31174801F0F5
:1018000013FA134B9B68174A1A50174B1A78A27198
:101810001D70BFF35F8F0C4B00221A608CF3108891
:1018200070BD08005300991889004118FF268E7179
:101830000E4A8A80E9E7CC210D4B074A4900074848
:1018400001F0F2F9F4050020240100D0AAAA00005A
:1018500000ED00E01C8800107488001074860010F1
:1018600044880010CD010010B419002000BDFFFF16
:10187000508800100022044B02E0044902C30132E8
:10188000072AFAD97047C04600E400E080808080D3
:1018900010B5D0231B061C68FFF7CEFC01000248E0
:1018A0000019FFF76DFC10BDA819002000B583B02A
:1018B0000100D0231B061B680648C018064B009386
:1018C00005230022FFF733FC002801DB1F23181A31
:1018D00003B000BDA81900205888001070B504009E
:1018E0000E001500FFF786FC0100200000F006F84E
:1018F000A680E580BFF35F8F70BD0000024B9C4661
:1019000061448900016070474000003470B50500F3
:101910000C00080000F0CCFD200000F0B1FE0849EA
:10192000200000F0F1FDFFF765FC064B9C4660448B
:10193000800068602C75A400034BE55070BDC04664
:10194000511C001040000034441700200A4B1A6854
:10195000EFF3108172B61368002BFCD0BFF35F8FDA
:10196000054B1B68BFF35F8F00221A6081F310885C
:1019700040BF0020002170478C19002010B50029BD
:1019800022D003681B7B99421ED8174B9C466144AA
:10199000090183689C4661440C684968002A19D093
:1019A00003681B7B9A4215D883680F4884466244BB
:1019B00012019A1810685368020001208B4201D866
:1019C0000ED00020C0B210BD084B094A3B21094887
:1019D00001F02AF9054B064A3B21064801F024F99B
:1019E000A242EFD8EDE7C046FFFFFF0F808A00104C
:1019F000F88C0010308A001010B500291ED0037B2F
:101A000099421BD84B005B18033B0468A44663440F
:101A1000002919D0002A1DD0914221D0002A25D0BA
:101A2000047BA24222D80468500080180338201892
:101A30008170197800291FD11A7010BD104B114AFE
:101A40006821114801F0F0F8104B114A6F310E482F
:101A500001F0EAF80F4B0E4A70210B4801F0E4F850
:101A60000D4B0B4A7121084801F0DEF8044B054A82
:101A70006821054801F0D8F841701A70DDE7C046CA
:101A8000B48A0010648D0010D08A0010348B0010CE
:101A9000408D0010408B00104C8B001070B506007C
:101AA0000D001400002914D0002A14D08068736837
:101AB0009847002806D0220029003000FFF79CFF3D
:101AC000280007E02A0021003000FFF795FF2000E2
:101AD00000E0100070BD0800FCE70000F0B583B026
:101AE0000500009201930AAB1C780BAB1F78002C09
:101AF00026D003685A7B944207D10123002B19D1C9
:101B0000002C3BD1200003B0F0BD002C0CD01A7B80
:101B1000944209D81A6863001B19033BD3189B78B9
:101B2000002BEBD00123E9E73E4B3F4A68213F48B9
:101B300001F07AF83E4B3F4A65213F4801F074F8C6
:101B400003689C7B002CDBD012D01A7B94420FD808
:101B500062001219033A19688C46624451789973ED
:101B6000002900D1D9730023937053701370C7E715
:101B70002C4B2D4A68212D4801F056F8002C3AD004
:101B80002B681B7B9C4236D82C4BE3181B01AA68A0
:101B900094466344009A1A60019A5A60089A9A60BF
:101BA000099ADA602E68002C2BD030D0337B9C420F
:101BB0002DD863001B19033B32689446634400220E
:101BC0009A705A701A70717B22003000FFF766FF1E
:101BD0007073844200D095E7287D009A019B00F045
:101BE000DBFC061E01D0002F17D00C9B002B00D170
:101BF00088E71E7086E7124B124A3B210E4801F01F
:101C000013F8114B114AA521084801F00DF8054BB6
:101C1000054A6821054801F007F82868210000F00E
:101C2000E3FEE2E7B48A0010648D0010D08A001051
:101C3000648B0010708D0010308A0010FFFFFF0FC2
:101C4000808A0010F88C00102C8A0010548D00102F
:101C5000F0B5DE4657464E464546E0B58BB0099096
:101C6000002308938200B24BD658370032E0B14BC4
:101C7000B14A3F21B14800F0D7FFB14BB14A3B21F7
:101C8000B14800F0D1FFB14BB14A8C21AE4800F011
:101C9000CBFFB04BAE4A9021AB4800F0C5FFA84B3C
:101CA000AD4A4021A84800F0BFFF2A686B68099838
:101CB00000F072FC00239A4698467B68BFF35F8F62
:101CC00000221A6086F310884346002B51D1002869
:101CD00000D126E100F0F8FB02000B1EC7DB00205C
:101CE0000021069007917868EFF3108672B60168BC
:101CF0000029FCD0BFF35F8F396888464C7B002CED
:101D000032D0BAD0097B8C42B7D8944965182D01DE
:101D1000B9688C46654428686968801A9941002929
:101D2000C3DC01D10028C0D10021404600F052FEA2
:101D3000A042A8D12A686B6806920793AB689846C0
:101D4000EB689A464346002BA3D0002CA7D03B68F3
:101D50001B7B9C42A3D8631EFA68D35C08931B02CA
:101D6000184338610020A8E700239A4698460020CF
:101D7000A3E7089B1B022343994651461800C0471E
:101D800005000E007A68EFF3108B72B613685942A3
:101D90004B41D9B2002BF9D1BFF35F8F002E26DB68
:101DA000002E52DD3B69002B53D04B4572D100F021
:101DB0008BFB02000B1E73DB0100180052197341EC
:101DC000984202D804D1914202D901225242D3173B
:101DD000002B6BDB002104910131039102945146E9
:101DE0000191414600913800FFF778FE49E03B69D8
:101DF000002BD5D04B451CD1069A079B100019002B
:101E0000521BB341994202D804D1904202D9012217
:101E10005242D317002B12DB0021049101310391B0
:101E2000029451460191414600913800FFF756FE59
:101E300027E04B4B464A9F21434800F0F5FE3D4BBF
:101E40003D4A3F213D4800F0EFFE002E01D1002D1C
:101E5000A8D13A68002C45D0537B9C422CD101215B
:101E600000293FD1D37B002B42D1D473002C52D018
:101E70003B681B7B9C424ED8FA68013C135D0133E2
:101E8000135500233B617A68BFF35F8F13608BF3B8
:101E900010881FE7324B2E4AA2212B4800F0C4FEC7
:101EA000244B254A3F21254800F0BEFE214B224A03
:101EB0003F21224800F0B8FE002C0DD0137B9C423D
:101EC0000AD863001B19033B1068844663449B785F
:101ED000002BC5D00121C3E7224B234A68212348A8
:101EE00000F0A2FE224B234AF621204800F09CFE7F
:101EF000002B0AD0117B8B4207D85900CB18033B2B
:101F000011688C4663445C70AFE7164B164A682133
:101F1000164800F089FE0A4B0F4A40210A4800F09B
:101F200083FE0BB0F0BCBB46B246A946A046F0BD4E
:101F3000441700200C890010C48C00102889001060
:101F4000808A0010F88C0010308A00108C8B0010F2
:101F5000DC8C0010A48B00101C8D0010FFFFFF0F05
:101F6000B08B0010B48A0010648D0010D08A00106D
:101F7000EC8B0010308D001010B50A4B5B68002B05
:101F800004D00A210848FFF7B9FC10BD054C230016
:101F9000064A1021206800F03DFC03212000FFF7D5
:101FA000B5FCEEE73C0600208C1900207D190010DE
:101FB00010B5064B5B68002B01D0044810BD044BE4
:101FC000044A5C21044800F02FFEC0463C06002075
:101FD000108C0010048D0010308A0010F0B5DE4621
:101FE00057464E464546E0B58BB0804616001F006A
:101FF000149B9A46159B994616AB1B789B461F234C
:1020000002AA9446634400221A7032E0002809D0E4
:1020100042461268127B904204D8421E4146C9686B
:102020008A5C48E0434B444A4021444800F0FCFDB0
:102030000798002B75D05B46002B72D04946D047DD
:1020400004000D0003000B4300D171E0002946DBC2
:1020500000F03AFA06000F1E55DB36196F41B942FF
:1020600002D804D1B04202D901267642F717002FD8
:102070004FDB43465A68EFF3108472B61368594237
:102080004B41D9B20791002BF8D1BFF35F8F1F33BB
:1020900002AA9446634404930023039302934B469D
:1020A00001935346009332003B004046FFF716FD74
:1020B000031EABD1020041464968BFF35F8F002584
:1020C0000D6084F31088002B29D01F2302A98C46B1
:1020D00063441B78002BABD112021043A9E73200F6
:1020E0003B00361BAF41BB4202D804D1B24202D9F9
:1020F00001267642F717002FBBDA114B114A3F2118
:10210000114800F091FD0E4B0E4A3F210E4800F0A1
:102110008BFD0B4B0B4A3F210B4800F085FD012046
:1021200040420BB0F0BCBB46B246A946A046F0BD4B
:102130000798F6E7808A00101C8D0010308A001086
:102140000C890010C48C001028890010F8B5040018
:102150004268EFF3108572B6136858424341D8B213
:10216000002BF9D1BFF35F8FCBB22268567BB3420D
:102170001BD10120002848D0206988422BD0090AB1
:10218000C9B2002B2ED02068007B83422AD8581E6B
:10219000E668305C88422BD000206368BFF35F8F15
:1021A00000221A6085F31088F8BD002B0DD0167B35
:1021B000B3420AD85E00F618033E1768BC46664470
:1021C000B678002ED6D00120D4E7134B134A6821ED
:1021D000134800F029FD8521124B134A490013488A
:1021E00000F022FD124B134A4021104800F01CFD64
:1021F0001900100000F0F8FB0028CED112210E4B80
:10220000094AFF31094800F00FFD23698B42C4D110
:1022100000232361C1E7C046B48A0010648D00101A
:10222000D08A0010348C0010AC8C0010308A001062
:10223000808A00101C8D0010588C0010F0B587B0FB
:1022400006000F00FEF70FF800281FD10624644295
:10225000E517A4197D41BD4202D803D1B44201D98A
:1022600000240025002D14DB0494059500F02CF9C2
:1022700002000B1E13DBA41A9D41002D17DC14D0A5
:102280003000390000F02CF907B0F0BD234800F011
:1022900065FD234B234A3F21234800F0C5FC204B1A
:1022A000204A3F21204800F0BFFC002CE8D0FFF777
:1022B0007FFE0023029301931C4B0093049A059B1D
:1022C000FFF78CFE002818DADAE7002300E000238D
:1022D000002BD5D1164B1A68EFF3108172B6136834
:1022E000002BFCD0BFF35F8F114B1B68BFF35F8FD8
:1022F00000221A6081F3108820BF0499059A0D4BC3
:102300005B6A9A42E3D80B48806A884203D29A42B9
:10231000DBD00123DCE70123DAE7C0465C8C001048
:102320000C890010C48C0010288900104D19001071
:102330008C19002000400540F8B504000D0000F0A5
:10234000C3F802000B1E10DB200029008018594141
:102350008B4202D804D1824202D901204042C117E7
:10236000002908DBFFF76AFFF8BD064B064A3F214C
:10237000064800F059FC034B034A3F21034800F094
:1023800053FCC0460C890010C48C00102889001032
:1023900010B5FA2292000023002102F069FBFFF73A
:1023A000CBFF10BD70B584B006000C00FFF700FE37
:1023B000002302930193194B009332002300FFF78F
:1023C0000DFE051E11DD20BFFFF7F2FD2900FFF70E
:1023D000BDFE134B5B6A9C421BD8114A926AB24203
:1023E0001AD29C4213D0012014E00D4B5B6A9C4230
:1023F00009D80B4A926AB24207D29C4201D001200E
:1024000008E0002006E0002004E0012002E00020B7
:1024100000E0002004B070BD0120FBE74D19001062
:102420000040054070B5EFF305833F201840103899
:10243000EFF3108C72B6194B1B68002BFBD0BFF367
:102440005F8F012319008140154A5163154A1278A4
:102450001400C440234214D0114B5C6A8300124D17
:102460005B599C4206D38300104C1B598A430D498B
:102470000A7007E00A4A031D9B00995899500023EF
:1024800000E00023BFF35F8F044A002111608CF34A
:102490001088002B00D0984770BDC046280100D09E
:1024A00000400540B719002090190020A40C00201E
:1024B00010B50100024A0348FEF720FE10BDC046D9
:1024C000888D0010AF190020044B5B6A034A906AA4
:1024D0001900536A9942F9D17047C046004005403F
:1024E000084B5B6A01E0074B5B6A8B42FBD301E060
:1024F000044B5B6A8B4203D1024B9B6A8342F7D346
:102500007047C0460040054070B504000D00EFF371
:10251000108672B61B4B1B68002BFBD0BFF35F8F7E
:10252000002D1CD02000FEF7FBFE174B83420BD082
:1025300019002000FEF7FCFE01212000FEF7E0FE5E
:102540000123A340114A1360A400114BE550BFF3CF
:102550005F8F0C4B00221A6086F3108870BDA200BA
:102560000B4B0021D1500122A2400A490B78934322
:102570000B7005492000FFF71DF800212000FEF731
:10258000BFFEE4E7280100D0252400103860054094
:10259000A40C0020B7190020F0B5DE4600B584B0C9
:1025A0000400150001921E000293FFF78DFF0395B2
:1025B0008E4202D84ED185424CD9EFF3108B72B6C1
:1025C000274B1B68002BFBD0BFF35F8F254A177882
:1025D0000125A540EBB23B431370234B5D63221DE5
:1025E00092000199D150A2002049029850501B6AD4
:1025F0002B4212D11C4B1B6C2B4208D00020BFF386
:102600005F8F174B00221A608BF3108823E0184B62
:10261000184AC121184800F007FBFFF755FF8E420A
:1026200014D802D1039B834210D80E4B1B78BB42B7
:102630000ED00D4B1D625D631F2004400123A3409B
:102640000E4A1360074B1F701E38D8E70020D6E7EC
:102650000120D4E7012004B080BCBB46F0BDC046D9
:10266000280100D0B7190020004005409019002033
:10267000AC8D00102C8E0010D08D001080E200E098
:10268000EFF3108C72B60B4B1B68002BFBD0BFF323
:102690005F8F01238340084A136208490A789A43EE
:1026A0000A70BFF35F8F034B00221A608CF310880F
:1026B0007047C046280100D000400540B7190020EF
:1026C00010B500291ED0037B99421BD84B005B1824
:1026D000033B0468A4466344002919D0002A1DD096
:1026E000914221D0002A25D0047BA24222D804683E
:1026F00050008018033820188170197800291FD1E4
:102700001A7010BD104B114A6821114800F08CFA64
:10271000104B114A6F310E4800F086FA0F4B0E4AEB
:1027200070210B4800F080FA0D4B0B4A71210848CC
:1027300000F07AFA044B054A6821054800F074FA63
:1027400041701A70DDE7C046B48A0010508F001047
:10275000D08A0010348B00103C8F0010408B00108A
:102760004C8B001070B506000D001400002914D029
:10277000002A14D0806873689847002806D0220089
:1027800029003000FFF79CFF280007E02A00210005
:102790003000FFF795FF200000E0100070BD08003A
:1027A000FCE7000010B50023437301338373037B00
:1027B000C3730123027B9A4214D9002B0CD0027BF5
:1027C000934209D85A00D218033A01688C466244F1
:1027D0000133DBB25370EDE70B4B0C4A68210C4818
:1027E00000F022FA002A09D0924207D8016853006B
:1027F0009A18033A8A180023537010BD024B034AFB
:102800006821034800F010FAB48A0010508F0010BD
:10281000D08A001010B5017342608360FFF7C2FFD9
:1028200010BD000070B50400081E00D170BD002965
:1028300034D0237B994231D84B005B18033B22688C
:10284000944663445A78002AF0D02DD0237B9A42D4
:102850002AD853009B18033B21688C4663445D785B
:1028600000215970002825D0237B984222D84300AC
:102870001B18033B21688C466344002159700100FA
:102880002000FFF76FFF060029002000FFF7CAFFB6
:10289000020031002000FFF765FFC7E7084B094A37
:1028A0006821094800F0C0F9054B064A682106482E
:1028B00000F0BAF9024B034A6821034800F0B4F96A
:1028C000B48A0010508F0010D08A001070B5050037
:1028D0000C001600002928D02DD0037B99422AD85D
:1028E0004B005B18033B0268944663445A78002A05
:1028F00027D19A78002A2AD11978FFF793FF03008D
:10290000002E03D0EA7B002A27D1EC73002B37D1AD
:10291000002C49D02B7B9C4246D82B6861000C19B7
:10292000033C1C190023637070BD224B224A3821DE
:10293000224800F079F9224B224A6821224800F00F
:1029400073F9224B1C4A3A211C4800F06DF9204BC8
:10295000194A3B21194800F067F9002A0AD0297B5F
:102960008A4207D851008A18033A29688C46624483
:102970005470CAE7124B134A6821134800F054F907
:10298000002B0BD02A7B934208D843001B18033B33
:102990002A689446634400229A70B9E7084B094AB2
:1029A0006821094800F040F9054B064A68210648AD
:1029B00000F03AF9488E0010288F0010508E001059
:1029C000B48A0010508F0010D08A0010A48E00101E
:1029D000CC8E001070B504000A00457B2900FFF77B
:1029E00075FF6073280070BD70B50400002967D0C2
:1029F000437B8B420ED0002911D0037B99420ED825
:102A00004B005B18033B0268D0188378002B0CD175
:102A1000002056E00121FFF7DDFF012051E0294BA6
:102A2000294A6821294800F0FFF8002B20D0227B9A
:102A300093421DD85A00D318033B2268D218256848
:102A4000EB5C8B421AD0002B1BD0227B934218D810
:102A50005A00D318033B2268D21853788B4216D001
:102A6000002BF0D11A4B1B4A67211B4800F0DCF801
:102A7000144B154A6821154800F0D6F843781370B6
:102A800007E0104B104A6821104800F0CDF8437859
:102A9000537000238370437001222000FFF716FF5C
:102AA0000200617B814205D02000FFF75BFE60736E
:102AB000012006E0094B074A6D21074800F0B4F8F1
:102AC000002070BDB48A0010508F0010D08A001012
:102AD00050880010108F0010508E0010F08E0010E3
:102AE00010B50400FEF786FB01002000FEF706FF8C
:102AF000FF232371BFF35F8F10BD10B50400FEF7F5
:102B000079FB01002000FEF7F9FEFF23237100236B
:102B10006371BFF35F8F10BD70B504000D00062018
:102B200000F03CFAC000290001F0FCFBC60908D007
:102B30000E4B9E4217D87F231840013035004608BF
:102B400000E001256562A6622C34802080010443E8
:102B500000232360062000F021FA8000A9018919D2
:102B600001F0E0FB70BD0026014DEBE7FEFF000029
:102B7000FFFF0000002909D00A22064B9C46604452
:102B8000434258414000044BC252704780225200D9
:102B9000F3E7C0460080FCBFA019002070B5050017
:102BA0000C00062000F0FAF9002829D0164B9D42AF
:102BB00027D08022D203154B1A60154B1A60154B93
:102BC0009B6811009943FAD100212800FFF7D2FF3A
:102BD00021002800FFF7A0FF2C002C34E96A6022B6
:102BE0004A406E21114080225201224311600A4B5B
:102BF0002B6380239B01234310221A600323AB64C1
:102C000070BD80221204D6E70080034000E000403F
:102C100000F0004000C000400103000000BEFDE7DE
:102C200010B5FFF7FBFF000010B582B00C001900D3
:102C3000002A0CD0084B002A0BD0019200932300ED
:102C40000200064802F01CF90120FFF7E7FF044BE1
:102C5000F1E7034AF1E7C046649000107490001059
:102C600088A2001070B52B4B2B4A1A602B4B2C4AB4
:102C70001A602C4B9A682A4B9343FAD12A4C01E0F4
:102C800008CC9847294B9C42FAD300F007F9234B14
:102C9000274A1A60234B9B68DB43DB01FAD1254BA3
:102CA00040229A675A671A67DA66234C09E0234B79
:102CB000234A83212348FFF7B7FF2000FFF710FFC7
:102CC0000834214B9C4209D22368002BF5D0012BFC
:102CD000EDD12000FFF711FF0834F2E71B4CA1688B
:102CE0001B4DC022280001F087FFA560FDF7BBFA4D
:102CF000002800D000BEFEF76DFAFEF7BBFDFFF71F
:102D00003BF9144C01E008CC9847134B9C42FAD392
:102D100070BDC04600E00040BFCDFBFE00F00040AB
:102D2000FE7F3C0000C00040E00A0020F00A0020C6
:102D3000FFFFFF0100F00140D80A0020A49000101E
:102D400040910010C4900010E00A002000ED00E067
:102D500000000020F00A0020F80A00200FB400B59F
:102D600083B0084802F05AF8049B002B07D005A94D
:102D70000191180002F062F8034802F04FF80120B8
:102D8000FFF74CFF20910010C49E001010B50148C1
:102D9000FFF7E4FF30910010F8B5DE4657464E4687
:102DA0004546E0B505000F0092460A9A93424ED37D
:102DB0001A0E91461E020A9A00233000494601F07D
:102DC000F3FA80466C006419A4002F4B9C466444BF
:102DD0006368834200D260602B1FDBB29B46012BED
:102DE0003BD9C0239B012343802212011A60AB0010
:102DF000264A9958002905D0506901F093FA01300C
:102E00000138FDD153465A0123685A40E0231A4045
:102E100080235B0123431A605A46012A28D9802364
:102E20009B012343802212011A604346636042469D
:102E300000233000494601F0B7FAAD00134B58515A
:102E40000120F0BCBB46B246A946A046F8BD104BD7
:102E5000104A2D211048FFF7E7FE012FC1D1C023F2
:102E60009B01234303221A60A368DB07FCD5C9E753
:102E70002168794003220A401A60A2680123BB40FE
:102E80001342FAD0CBE7C04600800040C40D0020BA
:102E900050910010C09100106491001030B583B0C3
:102EA0000C2000F021F9FEF78BF900280DD000234B
:102EB00004E099002D4A2E4888500133092BF8D997
:102EC0002A4B2C4A5A6203B030BD2B4B00229A6722
:102ED00000F012F9294B01221A60274B5B6C012B81
:102EE000FBD1274B03221A60234B9B6B012BFBD199
:102EF000013300930433234A0121234800F054F89E
:102F000005230093214A0121214800F04DF8214B6F
:102F10000093002202210420FFF73EFF1E4D009582
:102F20002B00002201210520FFF736FF104C0094F2
:102F30002300002200210720FFF72EFF009423002A
:102F4000002200210820FFF727FF0A4B00932300EF
:102F5000002200210920FFF71FFF00952B0000220F
:102F600000210620FFF718FFADE7C046C40D002082
:102F7000006CDC021BB70000008000403CB0004049
:102F800030B00040002F685900800240008C864716
:102F900000C00240001BB700405973078000014B7E
:102FA000C0587047C40D0020F0B5C64600B50400F7
:102FB0000F0090461D000C2001F0B4F906003D4AB8
:102FC00042443D4B9A4243D843011B1A9901C91A06
:102FD000C90009188901404601F0A4F90200103A1D
:102FE00098235B009A4239D86B1E062B3CD8069B6F
:102FF000013B062B38D8069B9D423BD343461A091A
:10300000B2423DD32D04069B1E0335432368002B9B
:103010003CDB2A4B9C424AD080225201284B1A604A
:10302000284B1A60284B9B6811009943FAD12760FE
:10303000A060231DC02292011A432123136023683C
:10304000002BFCDAE5600823136080BCB846F0BDB5
:103050001E4B1F4A11211F48FFF7E6FD1E4B1C4A5D
:1030600019211C48FFF7E0FD1C4B194A1C21194887
:10307000FFF7DAFD1A4B164A22211648FFF7D4FD56
:10308000184B134A25211348FFF7CEFD22683F2332
:103090001340BB42BDD1A3681B051B0D8342B8D1B1
:1030A000E368EE22D2021340AB42B2D1CDE78022D8
:1030B0009201B3E780E84BD380F8A93200C0024008
:1030C00000E0004000F0004000C00040D09100103F
:1030D000249300103092001088920010A4920010E7
:1030E000F09200100893001080239B000343014AD4
:1030F000D362704700800540064BAA2212011A6075
:103100002F22DA60044B054A1A60024B5B68002BE1
:10311000FBDA7047004002400060024000B0FA0055
:10312000704710B5002802D00B684968984710BD59
:103130000100002007E083001B185B00501C0860A2
:103140001078C01830380A681378303BDBB2092B8E
:10315000F1D97047F0B5DE4657464E464546E0B5D4
:1031600083B093461F000C9B9A460D9C0E9B99467C
:103170000F9B9B0703D0B8460F00060022E0019288
:10318000A34688464E46B9460700B44207D2551CAE
:103190004B4641462020B84701342A00F5E73D0060
:1031A0004F465C46019B9B46B1464646B8463700B3
:1031B0002E0007E0013C551C5346185D434639007C
:1031C000B0472A00002CF5D135003E0047460F9B42
:1031D0009B0707D4100003B0F0BCBB46B246A9461B
:1031E000A046F0BDB0464E46B9462F005D46531B83
:1031F000B342EFD2541C4B4641462020B847220030
:10320000F5E7F0B5CE46474680B585B0944698467A
:103210000C9D0D9C0EAB1B789946109A119B129E2B
:10322000B7071CD4002B0CD0F7070AD54F46002F48
:1032300002D10C37374204D0013B02E030272F5532
:103240000134944201D21F2CF8D9F70707D59C42CC
:1032500005D21F2C03D830272F550134F5E7F70688
:1032600015D5770505D4002C03D0944224D09C4278
:1032700022D00F9A102A2BD00F9A102A30D00F9AF2
:10328000022A35D01F2C02D830222A5501341F2C97
:1032900005D84A46002A31D02D222A5501340396FA
:1032A00002930194009543466246FFF753FF05B031
:1032B000C0BCB946B046F0BD621E012C06D00F9FBF
:1032C000102F01D01400D4E7023CD2E71400D0E75D
:1032D000B206D1D41F2CCFD878222A550134D1E799
:1032E000B206CCD51F2CCAD858222A550134C9E7BA
:1032F0001F2CC7D860322A550134C3E7720703D5A3
:103300002B222A550134CAE73207C8D520222A5574
:103310000134C4E7F0B5DE4657464E464546E0B5B3
:1033200093B081468A46089209931CAB10CB1B7858
:103330009B461E9D219B9846002C03D1102342469C
:103340009A4390468023DB0046461E4042461A427E
:1033500012D0002C22D000260EE03033D9B2771CD8
:103360000AAB99552900200000F0DCFFAC4216D3CF
:103370001F2F14D83E0004002900200000F0D2FFC7
:10338000CBB2092BE9D94246920605D54121C9188D
:10339000C9B20A39C9B2E2E76121F8E7270043461A
:1033A0000693209B05931F9B049303955B46029312
:1033B00001970AAB0093099B089A51464846FFF7CC
:1033C00020FF13B0F0BCBB46B246A946A046F0BDF4
:1033D000F0B5DE4657464E464546E0B595B00890F6
:1033E00009910A920B931E9E1F9C20AB1B789B4653
:1033F000229B9946239D269B9A463300234303D163
:10340000103352469A4392468023DB0057461F40B2
:1034100052461A4219D0330023432DD0002714E01E
:103420003033DAB27B1C98460CABDA554A462B0097
:103430003000210000F0B8FFA5421FD819D0434644
:103440001F2B1BD8474606000C004A462B003000B5
:10345000210000F0A9FFD3B2092BE1D95246920610
:1034600005D54122D218D2B20A3AD2B2DAE76122A5
:10347000F8E7B145E3D901E00023984653460693A7
:10348000259B0593249B04934B4603935B46029331
:10349000434601930CAB00930B9B0A9A0999089839
:1034A000FFF7AFFE15B0F0BCBB46B246A946A0463A
:1034B000F0BD0000F0B5DE4657464E464546E0B545
:1034C00091B083468A460C9298461A9C08941B9D9C
:1034D000099522002B002000290001F0ECF90028BA
:1034E00000D0E5E001225242D74B2000290001F034
:1034F000DDF9002800D0DBE001225242D34B20004E
:10350000290001F0BDF9002800D0D1E000220023FD
:10351000089D2800099E310001F0B2F9002800D072
:10352000DDE008980999069007918023DB001E9A38
:103530001A400D921E9A1A4201D106231C93069836
:10354000079904000D000A000600024300D1D1E0F3
:10355000080D4005400DBE4CA44660440A03120B02
:10356000BC4B13431F0001F0B9F9BB4ABB4B01F040
:1035700040F9BB4ABB4B01F01DF904000D000022CD
:10358000B94B3000390001F010F9B84AB84B01F0DE
:1035900030F902000B002000290001F00BF901F0C6
:1035A000B5F9814601F09AF904000D00B14AB24B19
:1035B00001F01FF90022B14B01F0FCF801F0A6F96F
:1035C0000600AF4AAF4B2000290001F012F90400B9
:1035D0000D00300001F082F9AB4AAC4B01F009F963
:1035E00002000B002000290001F0DFF804000D00AC
:1035F00002000B0001F0FDF80A900B91A44BF318A8
:1036000000261F0522002B002000290001F0D2F81F
:103610000E900F9122002B0000208021C90501F09F
:10362000C4F804000D0000229A4B0A980B9901F08F
:10363000C6F80022984B01F0BDF802000B000A9872
:103640000B9901F0BCF80022944B01F0B3F8020092
:103650000B000A980B9901F0B2F802000B00200051
:10366000290001F0A7F802000B000E980F9901F055
:10367000A6F80022774B01F09DF832003B0001F0E4
:10368000B8F806000F0004000D00069A079B01F031
:103690000DF9002830D001235B429C46E144002212
:1036A0007D4B3000390001F08AF804000D0023E062
:1036B0001E9B04931D9B03931C9B0293089A099BDA
:1036C0000092019343460C9A5146584600F0FCF88C
:1036D00011B0F0BCBB46B246A946A046F0BD0023DF
:1036E000002406930794069580231B069C46664497
:1036F00007961AE7002399464B466333C62B1ED81C
:1037000004261E9B1B0526D52B0023430FD0644A9D
:10371000644B0698079901F0C1F8002879D000227F
:10372000614B0698079901F0ABF8002871D01C9BFB
:103730004B4506DD4A46981A431E1C9303E00526B6
:10374000DFE700231C938023DB001E9A1A431E929E
:103750000026002399461D9B9E4264D29F1B022394
:103760001E9A1A400A921E9A134202D0002E00D0CE
:1037700000274B46002B07D022002B000698079904
:1037800001F01DF80690079100220023089809997E
:1037900001F076F8002848D1444B1E9A1340049358
:1037A00003971C9B0293069B079C0093019443463E
:1037B0000C9A5146584600F087F8002E00D187E752
:1037C0001E9B9B063DD54525441C434602005146A1
:1037D0002800D8474B46DA179B185340052205921C
:1037E000013E0496002203920A3202924A46D00F0A
:1037F000019000934346220051465846FFF78AFD48
:103800000A9B002B00D163E702005F460C9E1D9DC2
:1038100054E01C9B002B9ED00D9B002B9BD01C9B2F
:10382000013B1C9397E7002799E7069C079D220020
:10383000290080200006844661440B00069207930D
:10384000AAE76525C0E7C046FFFFEF7FFFFFEFFF58
:1038500001FCFFFF0000F03FFB799F501344D33F72
:10386000B3C8608B288AC63F0000F83F61436F638E
:10387000A787D23F71A379094F930A400000E03F28
:103880001655B5BBB16B0240EF39FAFE422EE63F4A
:10389000FF03000000002C400000244000001840FE
:1038A0002D431CEBE2361A3F80842E41FFF7FFFFC9
:1038B000541C434651462020B8472200931BAB427C
:1038C000F6D3100004E7C046F0B5DE4657464E4634
:1038D0004546E0B595B00690079193469946209FDE
:1038E0001E9A1F9B1000190000F0E5FF002831D13F
:1038F00001225242BF4B1E981F9900F0C1FF0028C1
:1039000037D101225242BC4B1E981F9900F0CEFFC6
:1039100000283DD10022B94B1E981F9900F0C6FF28
:10392000002850D10022B64B1E981F9900F0A8FF26
:10393000002848D1002200231E981F9900F0A0FF04
:10394000002850D100239846229B5B0500D4B6E0A6
:10395000002458E0229B0393219B029303230193AD
:10396000A84B00934B465A4607990698FFF7F2FB7F
:103970000EE1229B0393219B029304230193A24B0C
:1039800000934B465A4607990698FFF7E3FBFFE082
:103990000423229A1A4022990B4210D09B4B002AF2
:1039A0000FD0042222990391219902910192009350
:1039B0004B465A4607990698FFF7CCFBE8E0944B34
:1039C000EDE70322EEE7229B0493219B03930297EA
:1039D0001E9B1F9C009301944B465A4607990698DC
:1039E000FFF768FDD4E01E9A1F9B0020002100F025
:1039F000DCFE1E901F9101239846A5E70CAB3022F8
:103A00001A55013F01341F2C01D8092FF6D81E98F2
:103A10001F9900F07BFF050000F060FF02000B0023
:103A20001E981F9900F0C1FEFA007A4B9B181A6885
:103A30005B680A920B9300F0DCFE0890099100F09D
:103A400089FF060000F046FF02000B000898099964
:103A500000F0ABFE0890099100226F4B00F026FFAA
:103A600000282ED00136300000F034FF02000B0099
:103A70000A980B9900F00AFF002801D001350026B2
:103A8000002F2CD1280000F029FF02000B001E9807
:103A90001F9900F08AFE06000F0000225E4B00F026
:103AA000EFFE002846D100225B4B3000390000F0C9
:103AB000FDFE00283ED1EB073CD501353AE0062754
:103AC00046E70022544B0898099900F0D9FE0028D7
:103AD000D6D1002E01D0F307D2D50136D0E7AA46C1
:103AE0001F2C11D8013F0A21300000F01BFC651C7F
:103AF00030310CAB19550A21300000F013FC092EAF
:103B00000ED906002C00EBE755461F2C0CD87B1E67
:103B1000002F09D00CAA302111551F000134F4E701
:103B20002B0055461C00F0E71F2C03D80CAB2E22AF
:103B30001A5501341F2C10D80A21280000F0CAFBA6
:103B4000661C30310CAB19550A21280000F0C2FB6D
:103B5000051E01D03400EDE734000323229A134000
:103B6000012B1CD01F2C06D84346002B32D00CABA7
:103B70002D221A550134229B0393219B0293019419
:103B80000CAB00934B465A4607990698FFF7E2FAAA
:103B900015B0F0BCBB46B246A946A046F0BD219B7D
:103BA000002B13D04346002B02D10C3313420FD00D
:103BB000219B013B2193190003E00CAB30221A55E5
:103BC00001348C42CED21F2CF7D9CBE72199F8E7EC
:103BD0002199F6E7229B5B0704D50CAB2B221A55E3
:103BE0000134C8E7229B1B07C5D50CAB20221A5510
:103BF0000134C0E7FFFFEFFFFFFFEF7F65CDCD4151
:103C000065CDCDC13C93001040930010349300105B
:103C100030930010289500100000E03FF0B5DE461C
:103C200057464E464546E0B593B082468B46904691
:103C30001193002900D1EBE200275546119B18781B
:103C4000002800D1E7E2252809D07C1C43463A0031
:103C50005946A847119B013311932700EEE7013322
:103C600011930024119A11780B00203BD8B2102830
:103C700003D88300D048C3589F460B00303BDBB2CB
:103C8000092B2CD92A292FD000230A93119B1A78AB
:103C90002E2A39D000239A46119A1378683BD9B25C
:103CA000122976D88B00C549CB589F4601231C4367
:103CB00001321192D6E702231C4301321192D1E75F
:103CC00004231C4301321192CCE708231C43013228
:103CD0001192C7E710231C4301321192C2E711A8C9
:103CE000FFF726FA0A90D1E71C9B1A1D1C92186850
:103CF000002804DB0A90119B01331193C6E70223CD
:103D00001C4343420A93F6E78022D20014435A1C14
:103D100011925A781300303BDBB2092B04D92A2ABE
:103D200007D000239A46B7E711A8FFF701FA8246A9
:103D3000B2E71C9B1A1D1C921868002804DB8246FF
:103D4000119B01331193A7E70020F8E780235B0064
:103D50002343511C119152786C2A01D01C0018E0A9
:103D6000C0239B001C430131119112E080232343A7
:103D7000511C11915278682A01D01C0009E0C0231F
:103D80001C430131119104E080235B001C4301328C
:103D90001192119B18780300253BDAB2532A00D9FF
:103DA0002CE29300864AD3589F4680239B001C43F5
:103DB00001321192EDE780235B001C430132119226
:103DC000E7E7782809D0582838D06F2838D06228FB
:103DD00038D010239C430A2600E01026582833D000
:103DE000692803D0642801D00C229443630501D5CF
:103DF0000122944369282AD0642828D0A30500D53D
:103E00009FE0E30500D5B8E0630600D4CAE01C9A41
:103E1000111D1C911168FF220A4005940A9B04930E
:103E200053460393029600230193009243463A00BF
:103E300059462800FFF76EFA070027E01026CDE765
:103E40000826CBE70226C9E720221443C8E7A305CA
:103E500020D4E30550D4630666D51C9A111D1C912D
:103E60001168FF220A40D317D118594005940A9BC4
:103E70000493534603930296D20F01920091434656
:103E80003A0059462800FFF745FA0700119B013315
:103E90001193D3E61C9BDA1D07218A4311000831D8
:103EA0001C91116853689C46DB170C930D930C9A78
:103EB0000D9B100048400E90624653400F930E98A1
:103EC0000F990C9A0D9B801A99410E900F910894AE
:103ED0000A9B079353460693049600230593634673
:103EE000DA0F02920090019143463A0059462800A9
:103EF000FFF76EFA0700C9E71C9A111D1C911268A2
:103F0000D317D118594005940A9B04935346039341
:103F10000296D20F0192009143463A00594628007A
:103F2000FFF7F8F90700B1E7230605D51C9A111D24
:103F30001C910023D25E96E71C9A111D1C911268F9
:103F400091E71C9BDA1D07218A43110008311C915F
:103F500008940A9B079353460693049600230593FF
:103F60000293136854680093019443463A005946FB
:103F70002800FFF72DFA070088E71C9A111D1C91F5
:103F800005940A9B049353460393029600230193DE
:103F90001368009343463A0059462800FFF7BAF9E0
:103FA000070073E723060DD51C9A111D1C9112689A
:103FB0001204120C31E7C046489300108C93001095
:103FC000D89300101C9A111D1C91126825E74628F1
:103FD0001AD01C9B0733072293431A0008321C9205
:103FE00004940A9A0392524602925C681B680093FA
:103FF000019443463A0059462800FFF765FC070044
:10400000119B0133119319E620231C43E1E7672834
:1040100001D0472802D180231B011C43452801D031
:10402000472801D120231C431C9B073307229343BD
:104030001A0008321C9204940A9A03925246029281
:104040005C681B680093019443463A005946280077
:10405000FFF730FA0700119B01331193EEE50223BD
:104060001A002240924623421FD001241C9B1A1D95
:104070001C927A1C9146187843463A005946A84744
:104080005346002B16D1119B013311934F46D5E5B2
:10409000561C434659462020B847230032005C1C7A
:1040A0009D42F5D83D001700E0E701233A002F00BC
:1040B0000A9DF4E74A46A9460A9D06E0571C434676
:1040C00059462020C84734003A00661CA542F5D85E
:1040D0004D469146D7E71C9B1A1D1C921B689946BA
:1040E0005346002B00D1013B4E4601E00136130040
:1040F0003278002A02D05A1E002BF7D14B46F21A12
:1041000010928023DB0026001E401C4203D0524543
:1041100001D95346109302231A0022400B922342E6
:1041200005D03A0037004C46A946554620E03A00F3
:10413000109B5F46B3462E0006E0551C43463900EF
:104140002020B04723002A005C1C0A999942F4D829
:1041500035005E46BB46109437004C46A94655468E
:1041600006E01D000134561C43465946C84732003C
:104170002078002804D0002FF4D06B1E002DF0D141
:1041800017004D460B9B002B03D1119B013311935C
:1041900054E50A9F109B06E0561C434659462020D2
:1041A000A847230032005C1C9F42F5D81700ECE7BB
:1041B00021231C431C9B1A1D1C921B680093059411
:1041C000082304935346039310230293002301937F
:1041D00043463A0059462800FFF79CF80700119B18
:1041E000013311932AE57C1C43463A0059462520A9
:1041F000A847119B0133119327001FE57C1C434600
:104200003A005946A847119B01331193270015E541
:104210000A4B9A4610E5AA46474502D343465A1E22
:1042200000E03A00434659460020D047380013B01A
:10423000F0BCBB46B246A946A046F0BD21310010F5
:1042400000B585B0029003910121009313004A420A
:1042500002A90248FFF7E2FC05B000BD23310010BF
:1042600001480421014B1847700600209D420010B0
:10427000014B9B68184700007006002010B5010034
:1042800018231B8814221088984710BD10B5010010
:1042900018231B8816221088984710BDF0B5C64613
:1042A00000B507000E0000250123984600E0013507
:1042B000B5420AD2AC003C192068FFF7DFFF20604E
:1042C0000028F4D100239846F1E7404680BCB84668
:1042D000F0BD0000124A936F9B0815D29066D1661C
:1042E000002905D0FFE7FFE7FFE7516F106F704728
:1042F00004B580210906C2175140002800D0C843E8
:1043000004F012F8002104BDF0B5146E556E576F1D
:10431000166FFFF7E3FF1466556657671667F0BD23
:10432000000000D0114A936F9B0813D210665166AB
:10433000002905D0FFE7FFE7FFE7516F106F7047D7
:1043400004B5002801D00020C04303F0EDFF002198
:1043500004BDC046F0B5146E556E576F166FFFF76B
:10436000E5FF1466556657671667F0BD000000D07C
:1043700094464E4A926F9208624601D230E0C0469F
:10438000F0B54A4EB56F6D08FCD3346E756E776F1D
:10439000366F00F025F89446444A14665566576710
:1043A00016676246F0BDC0469446404A926F920836
:1043B000624601D258E0C046F0B53C4EB56F6D087C
:1043C000FCD3346E756E776F366F00F04DF89446FF
:1043D000364A14665566576716676246F0BDC04692
:1043E000002B24DB11D000293EDA00B5C94340423E
:1043F00000D1013100F038F8C943404200D1013109
:10440000DB43524200D1013300BD002AEBD100282A
:1044100001D1002905D00020C90FC90701D1C0432F
:10442000410800B503F070FF0022002300BD00B575
:1044300000290ADBDB43524200D1013300F014F8BB
:10444000C943404200D1013100BDC943404200D1BF
:104450000131DB43524200D1013300F005F8DB4368
:10446000524200D1013300BD002923D1002B18D1C5
:10447000002A0CD0BC460D4F38667A660021002316
:10448000FFE7FFE7FFE77A6F386F6746704700285E
:1044900001D00748010000B503F036FF00220023D9
:1044A00000BD02000B00002000217047000000D07A
:1044B000FFFFFFFF002B00D0BFE0130C28D1002A24
:1044C000E7D080B4114F39667A66FFE7FFE730B472
:1044D000040C7B6F396F1B0423433B667A66FFE74E
:1044E000FFE7FFE7C04684B27B6F3D6F1B042343A9
:1044F0003B667A66FFE7FFE7C04600232C042D0CDD
:104500007A6F386F00196941B0BC7047000000D065
:10451000F0B594460025140E01D112020835140F8F
:1045200001D112010435940F01D192000235D40F4C
:1045300001D152000135D40B0134254F7C66254C46
:104540003C660E0C93B2FFE7FFE7FFE73C6F664364
:10455000360C7703BE467343DF0B5B04C01AB941C8
:10456000130C7343DB18C91ACE086643360CB644E5
:1045700093B273431F0F1B01C01AB941130C73434D
:104580001F0B1B05C01AB941860D8F023E436643BF
:10459000360C092D24DB520A7243801A7703460A2F
:1045A0006643360C16235B1BDE40DF40BF196446B2
:1045B0006643821B7046043506330100D940A8408B
:1045C000C01900D30131A24206D20023F0BD000081
:1045D000000000D0FFFFFFFF121B0130F3D3F1E713
:1045E00009277F1BFE406446A2B27243801A00D2A4
:1045F0000139220C7243130C1204821A99410B00E8
:104600007046043513370100F940A840801900D3E3
:104610000131002B02D1A2420AD2F0BD013000D3F9
:104620000131121BFAD2013BF8D1A24200D2F0BDF7
:10463000013000D30131121BF7E7F0B51C0C00D09C
:1046400080E00CB400251C0A04D11B02160E334373
:10465000120208351C0B04D11B01160F3343120143
:1046600004359C0B04D19B00960F33439200023516
:10467000DC0B02D192185B4101351C009718644194
:104680000134464F7C66464C3C660E0CFFE7FFE764
:10469000FFE7C0463C6F6643360C7703BE4697B2D1
:1046A0007743C01B00D20139C01B00D201399FB231
:1046B0007743C91BC91B170C77437E04FF0B801B74
:1046C000B941CE086643360C0C2D33DBB644120BD1
:1046D0001F053A431B0B97B27743C01B00D2013929
:1046E0009FB27743C91B170C77433E043F0C801BD6
:1046F000B941860D8F023E43664329277F1BFE404A
:104700000C3D7746AF40BF1930BCA2B2ABB272438A
:104710007343801A9941220C7243130C1204801ABD
:10472000994102000B000137001BA941F9D2781E04
:104730000021F0BD0C277F1BFE4077467F0BAF406A
:10474000FF19E0E700245D1C07D0144F7D66396631
:10475000FFE7FFE7FFE7FFE73C6F95B29EB26543D7
:104760006643401BB141150C1E0C6543664336047D
:104770002F0C3E432D04401BB141994204D202004C
:104780000B0020000021F0BD01D19042F7D3801A28
:10479000994101349942F2D3F6E70000000000D0BD
:1047A000FFFFFFFF48404140484018B4134B5B688F
:1047B000019308BD18B4114B1B68019308BD9446C2
:1047C0000F4A926F920805D2624618B40B4BDB6811
:1047D000019308BD0A4AF0B5146E556E576F166FF7
:1047E0006246FFF7F2FF064A14665566576716677A
:1047F000F0BD18B4014B9B68019308BD88170020D9
:10480000000000D0FFB550404240504059404B405E
:10481000594000E0FFB5154F4C00640D03D0BC4279
:1048200004D10C0314D80020090D09055C00640DA7
:1048300003D0BC4204D11C030AD800221B0D1B0567
:1048400001264B4009D44B4003D58B4200D1824214
:10485000FFBD9942FCD19042FFBD0B43DB180343DF
:104860001343F5D0C9434918FFBD0000FF070000FE
:1048700000B5FFF7CFFF01D0002000BD012000BD33
:1048800000B5FFF7C7FF804100BDC04600B5FFF788
:10489000C1FF01D9002000BD012000BD00B5FFF718
:1048A000B1FF01D9002000BD012000BD00B5FFF718
:1048B000A9FF804100BD012040054A00121804D81C
:1048C0005A00121801D800207047012070470020BC
:1048D000704700000021002805D17047C1174840EB
:1048E000401AFAD0C90713B5064B1B6898470CBC91
:1048F000441CA2401005120B0349091B090519436A
:10490000114310BD881800201F04000010B54C0092
:10491000620D8023D218DB00D21A5B057E2A10DDDF
:104920009E3A13DACC170903490819435242D14081
:10493000640001341532202A05DAD0400843604370
:1049400010BD002010BD0846604310BDC80FC01840
:10495000013810BD18B4024B5B6A019308BD00001A
:104960008817002010B50148FEF7F8F97895001077
:1049700070B513231C78012C14D0012C14DC022CEC
:1049800002DC1F4A1F4B9A641F48FFF777FC1F4B3E
:10499000186070BD99001E481A4A885001331F2BB9
:1049A000F8D9EAE70023FAE71A48FFF76FFC050099
:1049B0001948FFF76BFC023803789B007F2B19DD49
:1049C000802229000F4800F017F9022CD7D1134B91
:1049D0001A88B5231B029A4209D1114B1A88114B30
:1049E0009A4204D1104B1A88104B9A42C7D000202B
:1049F000FEF7B4F90E4B0F4A32210F48FEF714F9B7
:104A00003D4A0010881700204C3300008818002011
:104A1000654900105344000053460000543800001C
:104A2000D8380000494600009C3800005946000074
:104A30009095001054960010F095001007B5604650
:104A4000002800D100BE01880A0A0230DF2AFAD10C
:104A5000C9B2820804D3028840880004104300E0F1
:104A60000068024A5050039007BD000088170020DC
:104A700051434343C9188C46110C83B24B4310B4C5
:104A8000040C614392B280B2504362431C041B0C7D
:104A9000001910BC59411304120CC0185141614453
:104AA000704700004840414048400E4B5B68184743
:104AB0000C4B1B6818470C4A936F9B0802D2094B9A
:104AC000DB681847F0B5146E556E576F166FFFF719
:104AD000F6FF054A1466556657671667F0BD014B29
:104AE0009B6818478C180020000000D0491A002845
:104AF00008D1084670470000C10FC90700D54042E1
:104B0000002817D0F44603B40B4B1B68984706BC2B
:104B100081409E384042803107D20B0607D04900C1
:104B2000490AC0051043084360470130F8E7490AC5
:104B30008902F5E77047000088180020014B5B6A86
:104B4000184700008C18002010B50148FEF706F940
:104B500088A2001070B513231E781848FFF796FB43
:104B60000500012E11D0012E09DDAB1E1B789B0024
:104B70007F2B1DDD80222900114800F03DF81148EF
:104B8000FFF77CFB104B186070BD542201000C48ED
:104B900000F032F8002300E001331F2BE3D89A0025
:104BA000074C1259002AF7D19A0008481051F3E730
:104BB000074B084A42210848FEF736F853460000E2
:104BC0008C1800204C33000088180020494B00103E
:104BD00068960010FC9600109C9600100148042175
:104BE000014B1847800600209D420010014B1B68B6
:104BF0001847000080060020014B5B681847000042
:104C00008006002010B50300080011001B689847BB
:104C100010BD0000F8B507000D001600437C002B06
:104C200002D0002400200CE00368110028009847FF
:104C30002DE03B7C10E0022115483B689847601C42
:104C40000134B44214DA002CF3DD2B19013B1B783C
:104C50000D3B5A425341DBB22A5D0A2AF0D1002BA8
:104C6000EED1A042E7DA211A28183B689847E2E71C
:104C7000B04203DA311A28183B689847002E06DD47
:104C8000AD19013D2B780D3B5A4253413B74F8BDA1
:104C90006C97001070B505000368002B16D00C4B04
:104CA0001C6805E0290004C92000FFF7B3FFE46891
:104CB000002C09D02368002BF9D0064B1B68002B71
:104CC000F0D0A342F3D1EDE700232B6070BDC046C6
:104CD000201700203817002070B505000C000B6865
:104CE000802B05D021684B1C23606418257170BD92
:104CF0000800FFF7CFFFF5E710B582B0D0231B0601
:104D000000241C5701A9074803F01EFB002806D108
:104D1000019B9C4203D0034803F036FB012002B004
:104D200010BDC046D80A002010B5024803F0E4FACE
:104D300010BDC046D80A0020F0B5CE46474680B523
:104D400083B006000D0090461C00FFF7D5FF81469A
:104D50006B1C05D0002C08D0194F1A4B1C6807E0BB
:104D6000300003F089F90500F4E7174FF5E7E46830
:104D7000002C17D02368002BF9D0144B1B68002B94
:104D800001D0A342F3D12A0031002000B8474346A6
:104D9000002BECD06B46D91D0A230B70012220009A
:104DA000B847E4E74B46002B07D16B1E9D41E8B2A4
:104DB00003B0C0BCB946B046F0BDFFF7B5FFF4E79D
:104DC000054C001020170020154C0010381700204B
:104DD000094A01E00C331A001368002B08D0834203
:104DE000F8D1002907D1C36813600023C36002E033
:104DF000002900D0106070472017002010B5064B26
:104E00001C6801E09847E468002C03D06368002B1D
:104E1000F8D1F8E710BDC0462017002070B5050096
:104E200003F02AF904000023012201002800FFF703
:104E300083FFFFF7E3FF200070BD000070B5A2B054
:104E400004000E00FFF758FF05008422002101A88E
:104E5000FFF7CCFE3300220001A90848FFF7F0F964
:104E6000040001A8FFF716FFFFF7C8FF002D02D1CD
:104E7000200022B070BDFFF757FFF9E7D94C0010B2
:104E80000FB400B583B004A901C90191FFF7D6FFA3
:104E900003B008BC04B0184710B500F085F810BD89
:104EA000F0B583B005000E0000240FE06B46D91D5D
:104EB0000D230B700020002816D193699B06FCD4AB
:104EC0000B78136001300131F5E70134B44219DA8F
:104ED0000D4B1A682F5D0D4BD31859424B415B00A7
:104EE0000B495B5EBB42E1D06B46D91D0F700020C1
:104EF0000028EAD193699B06FCD40B78136001303B
:104F00000131F5E703B0F0BDA41900200080FCBF1B
:104F1000A0190020F0B583B006000F00002004E0C7
:104F20006B4607331B7823702800B84215DA0E4B06
:104F30001A6893691024210019401C420DD1451CA8
:104F400034186B46D81D0029EAD19369DB06FCD4DE
:104F50001368037001310130F5E7002801D003B078
:104F6000F0BD0338FBE7C046A419002070B515005A
:104F70001C000B4B1860FDF711FE002D06DA002C0B
:104F800009DA01210748FFF723FF70BD022128003D
:104F9000FBF7CEFFF3E702212000FBF7C9FFF0E7A4
:104FA000A41900209006002010B5064B1B78064B74
:104FB0001B78E1210123002249020448FFF7D6FFB4
:104FC00010BDC046D81C0410DC1C04100040034077
:104FD000F0B5D646474680B583B08246884606205F
:104FE000FDF7DCFF0700022400E02C00FE2C1CD89B
:104FF00001970026A51C2802424600230021FFF746
:1050000037FD002903D1B142EFD1B842EDD9802557
:105010006D00012D0CD96E1E210071433800FFF781
:1050200081F9404504D83500F3E780256D00F0E7AD
:1050300053461C616B1E1B02524612685340FF22EE
:1050400012021340802040015246104303602900A1
:1050500061433800FFF766F903B0C0BCBA46B046FA
:10506000F0BD000010B50400144B984222D08022FD
:105070009202134B1A60134B1A60134B9B6810007B
:105080009843FAD12000FFF7A3FF2268072353407B
:10509000CF221A4080235B0123431A60220024326E
:1050A00080239B011A430321116004341C43022313
:1050B000236010BD80225202DBE7C04600C00340DF
:1050C00000E0004000F0004000C0004010B5FDF7D7
:1050D0005DFE000010B582B00C000A48FFF79EFE8E
:1050E000684600F08FFA06226B46991C2000FFF7F5
:1050F00083FD2378012293432370022213432370FC
:1051000002B010BDB097001010B50A0001000248AF
:1051100002F070FD10BDC046040E002010B501283D
:1051200013D880000F4BC1500F4B1B78D0221206B2
:10513000126893420FD0002B12D00C4A1C328023ED
:105140009B01134302221A6010BD094B094ADE215C
:105150000948FDF769FD094B1878FCF7D9F8F3E722
:10516000074AEBE73C170020B2190020304101400C
:10517000E89700109C9900101C980010B6190020A8
:105180000041014010B5D0231B061B68002B04D042
:105190000F4BDB6A9B0702D410BD0E4BF9E70022D0
:1051A00002211820FBF778FFD0231B061B68002B79
:1051B0000CD0074A1C32C0239B01134302221A6001
:1051C000054B19680020FFF7A9FFE5E7014AF1E761
:1051D0003041014000410140FC0D002010B5034961
:1051E0000120FFF79BFF0248002110BDF551001080
:1051F00050C3000010B5094B1968002908D0084BAE
:105200001B68002B04D0013B054A1360002B00D023
:1052100010BD0020FFF782FFFAE7C046FC0D00201A
:10522000000E002070B50400D0231B061B68104A36
:1052300012789A4214D10020FCF738FB002815DBC5
:10524000C0B20C4D28700C49FCF772F82878012187
:10525000FCF756F828782100FCF780FA012070BD91
:10526000064B074A9F210748FDF7DEFC0020F6E7C2
:10527000B2190020B619002089520010949800102D
:10528000709900101C98001010B51D4B1A78D0238F
:105290001B061B689A4213D100211A4803F03CF800
:1052A000002829D0174B5B79012B0FD0164B012218
:1052B0001A70144803F060F8144803F005F810BDA4
:1052C000134B144A81211448FDF7AEFC134B012205
:1052D0001A70002400E00134012C09D8A300104A00
:1052E0009A58002AF7D00E49002058509047F2E70C
:1052F0000A4B00221A70DCE7034B01221A70DBE72D
:10530000B2190020F40D0020B5190020EC0D00208A
:10531000B8980010549900101C980010B319002080
:105320003C17002010B5094B1878002800D110BD9B
:105330000021FBF7E5FF054C20780549FCF73AF919
:105340002078FCF7A5FA00232370F0E7B6190020B7
:105350008952001010B50148FDF700FDDC980010DF
:1053600070B505000C00FAF77EFF002804D0280075
:105370002100FDF7B5F870BD28002100FCF75EFFA5
:10538000F9E7000010B50400FAF76DFF002800D01F
:1053900010BD2100014802F0E7FFF9E7EC0D002005
:1053A00010B50D4B1C68002C0CDA002202211820CD
:1053B000FBF772FE802009498001FBF723FEFFF70F
:1053C000B1FF10BDFCF7F4FD2100FCF7BFFE024B5E
:1053D000012252421A60E8E7A4060020855100101D
:1053E00070B584B0D0231B061A682D4B1A702D4857
:1053F000FDF783FB2C4802F0C1FA012200212B4863
:10540000FCF76CFAFCF7D4FD0600FDF75DF804002C
:105410000D1E31DB264A002312196B41994202D836
:1054200004D1904202D901225242D317002B29DB2A
:1054300001210291002101911E4900913000FCF7E9
:10544000CDFD1D4B1860002827DB802040221B4922
:105450008001FBF7B7FD012202211820FBF71CFE9B
:1054600001210D20FBF74CFFFF20FFF7DBFE00289A
:105470000ED0002004B070BD114B124A3F211248DB
:10548000FDF7D2FB0E4B0F4A3F210F48FDF7CCFB37
:10549000FFF786FF02204042ECE702204042E9E7A6
:1054A000B2190020F40D0020040E0020EC0D0020A5
:1054B00050C30000DD510010A406002085510010EB
:1054C0000C890010849900102889001010B5012261
:1054D00002211820FBF7E0FD10BD10B501000020EF
:1054E000FFF71CFE10BD000010B5024802F024FFBB
:1054F00010BDC046F40D002010B5084B5B79002BA1
:1055000009D0064B1B795BB2D0221206127852B238
:105510009A4200D110BD0248FDF720FCF40D002096
:105520000899001010B50E4B5B79012B0CD10D4B77
:105530001B78002B0CD10C4B1B68002B04D00B4BA1
:1055400019680020FFF7EAFD054802F015FF10BDBD
:105550008421074B074A49000748FDF765FBC04611
:10556000F40D0020B31900203C170020FC0D002092
:1055700028990010409900101C980010F0B583B0D5
:105580000700FCF7A1FF04000D1E17DB0190FA22B3
:105590009200002338000021FFF76AFA00196941E0
:1055A0008D4202D804D1844202D901204042C11761
:1055B000002909DBFFF7D4FE03B0F0BD054B064A16
:1055C0003F210648FDF730FB024B034A3F210348C9
:1055D000FDF72AFB0C89001084990010288900101F
:1055E000704710B5FFF7B6FE10B5FFF7B3FE10B564
:1055F000FFF7B0FE10B5024800F00CF810BDC04631
:105600008017002010B508220149FFF7F5FA10BDF8
:105610008017002070B588B0040004AD0026049601
:105620000922002105A8FFF7E1FA009609220021CE
:1056300001A8FFF7DBFA4B232B700D2269462800E7
:1056400002F04AFE002304E05A1D69468A5CE254D7
:105650000133072BF8DD08B070BD002805D0D0233A
:105660001B06802292045A617047D0231B068022B9
:1056700092049A61F8E710B584231B01C4580020F6
:10568000FFF7EBFF21791820FBF752FC10BD00005B
:1056900010B504000520FDF781FC000C60430349B0
:1056A000FEF740FE0338FDD210BDC0469A3B000015
:1056B00010B50120FFF7D1FF6420FFF7E9FF10BD0F
:1056C00070B5050084231B01C458002C18D0062394
:1056D000E356002B08DB0522A256531C11D10621EC
:1056E0006156206802F036FB0720205600280DDAAC
:1056F0000820205600280EDA84231B010022EA50DD
:1057000070BD0749206802F083FBE8E702F01CFC4B
:10571000FF23E371ECE702F017FCFF232372EBE7B2
:10572000589E0010F0B5DE4657464E464546E0B559
:1057300093B0824610AA894B03CB03C2884989489B
:1057400002F036FB002800D1EAE001238422120196
:1057500051468A58002A00D0EAE0834C8422120184
:105760008C50990010AA88582060FF222272E271A2
:1057700006332371002102F0FDFA40B2A071002827
:1057800000DADBE0784C7649206802F025FB43B272
:10579000984663711022002108A8FFF727FA802598
:1057A0006D020895F8235B0209938023DB020A93BC
:1057B000C0273F030A97102208A904A8FFF71CFA84
:1057C00043465A1D059B0393684818404346DB0136
:1057D0001843120310430590079B0393DB00DB087B
:1057E00080229205904613430793614B99461840D7
:1057F0000590102204A90CA8FFF7FEF980239B0254
:105800000C935C48016830228A435B490A60006857
:1058100001229346160086430E600F990391574864
:105820000840574901430F91564801400F430F97D5
:1058300055493940554F0F430F97FF00FF08414628
:105840000F430F970D9903914946039801408946EC
:105850000D914F4F0F970E9903914E4903980140B8
:105860000D430E954C490D401D430E95216838316E
:1058700080239B010B438021490419602068062185
:1058800061564B005B18DB00C318C826B4469C4425
:1058900066460C9A3260CC2294469C4462464E4640
:1058A0001660D02294469C4462461560DC331F602B
:1058B0005B4600931D2202F00FFB21791820FBF7B5
:1058C00037FB21791D20FBF733FB01220021182033
:1058D000FBF746FB01211820FBF75CFB0622A256D2
:1058E00053009B18DB00226894466344D8332B4A4C
:1058F0001A60002002F030FBE071002002F02CFB67
:1059000040B220720723E356002B1DDB00281BDB6F
:10591000002013B0F0BCBB46B246A946A046F0BD7D
:105920000F491F4802F044FA002813D000230DE766
:105930001C4B1D4A68211D48FDF776F95046FFF7BC
:10594000BFFE06204042E4E75046FFF7B9FE0620BE
:105950004042DEE706204042DBE7C046BC9D001027
:10596000589E001000003050B80D00207F00FEFF50
:10597000FFFFFF9F78C0014078D00140E0FF0FFC9F
:1059800018001000FF7FF0FF1FFCFFE3000300047E
:1059900018771C24FFFF0AFEFFFFF5C101E000009D
:1059A00000002050409B0010489E0010509B0010AB
:1059B000F0B5DE4657464E464546E0B583B00D008D
:1059C00016009946002900D171E184231B01C458B7
:1059D000FFF751FE4B46002B00D1DFE1002D00D137
:1059E0006BE1B30700D075E1A846AB0700D077E1C3
:1059F0004B469B0700D079E10C9B9B0700D07BE1D5
:105A000022680621615613680125280088408343D7
:105A10001360062161560523E3565A1D924648003D
:105A20004218D2002768BC466244CC321268C24F8A
:105A30003A40DB0113435246120313434018C0009F
:105A400062461118CC310B600622A25653009B18F7
:105A5000DB00D0331A0023689C46624480235B013C
:105A60001343802212061A601A60062161568022B2
:105A700052041300206802F0F7F921680622A256AA
:105A80000B6804322800904003430B602168062213
:105A9000A2560B6808322800904003430B6006238F
:105AA000E356F200013A04339B0021685A50062263
:105AB000A25653009B18DB00226894466344D833F7
:105AC0009E4A1A600623E3560C9A921BD200013AB2
:105AD00004339B0021685A500622A25653009B189B
