:020000041000EA
:1000000000B5324B212058609868022188439860DF
:10001000D860186158612E4B002199600221596106
:100020000121F02299502B49196001219960352056
:1000300000F044F80222904214D00621196600F024
:1000400034F8196E01211966002018661A6600F04E
:100050002CF8196E196E196E052000F02FF8012189
:100060000842F9D1002199601B49196000215960AB
:100070001A491B48016001219960EB211966A021F2
:10008000196600F012F800219960164914480160C1
:100090000121996001BC002800D000471248134993
:1000A000086003C880F30888084703B5996A0420EC
:1000B0000142FBD001200142F8D103BD02B5186610
:1000C0001866FFF7F2FF186E186E02BD00000240BE
:1000D000000000180000070000035F00212200005C
:1000E000F4000018222000A00001001008ED00E03C
:1000F00000000000000000000000000074B24E7A12
:1001000000200420F7010010C3010010C5010010F9
:10011000C1010010C1010010C1010010C101001097
:10012000C1010010C1010010C1010010C701001081
:10013000C1010010C1010010C9010010CB01001065
:10014000CD010010CD010010CD010010CD01001037
:10015000CD010010CD010010CD010010CD01001027
:10016000CD010010CD010010CD010010CD01001017
:10017000CD010010CD010010CD010010CD01001007
:10018000CD010010CD010010CD010010CD010010F7
:10019000CD010010CD010010CD010010CD010010E7
:1001A000CD010010CD010010CD010010CD010010D7
:1001B000CD010010CD010010CD010010CD010010C7
:1001C00000BE00BE00BE00BE00BE00BEEFF3058054
:1001D000103800BEF2EB887188460410AC4604105B
:1001E0003402001090A31AE700201F49086006C8D7
:1001F00081F3088810471D48006800282FD10DA4FE
:100200000ECC002902D000F012F8F9E71849194A7B
:10021000002000E001C19142FCD1174988471749ED
:1002200088471749884700BEFDE701C901C29A42C5
:10023000FBD37047AC460410C000002080110020A2
:100240006C57041000000420000004206C570410B8
:10025000001004200010042000000000704709482E
:1002600004F088FB0047000008ED00E0000000D02B
:10027000801100205C210020B53100102D040010F9
:10028000DD3200105756000006005250ABB36053E9
:1002900070C8001006005250861C030280C800106F
:1002A000060052505422A29D84C8001005005250EE
:1002B000DE65F4686C570410F8B5C04610B5064CFE
:1002C0002378002B07D1054B002B02D0044800E017
:1002D00000BF0123237010BDC813002000000000E0
:1002E00078C40010044B10B5002B03D00349044818
:1002F00000E000BF10BDC04600000000CC1300208D
:1003000078C400100122F8B52B4B2C4C1A70A3694D
:10031000DB0617D42A4E2B4D3168EF1C1022A3693F
:100320001A42FCD123681E291BD8DBB20A2B0AD043
:100330000D2B08D023484A1C435411003260A36996
:10034000DB06EBD5F8BD00236B542A881E4B9A427E
:1003500027D01E4B2A889A4215D01D4B2A889A42D4
:1003600003D0002300213360E9E7AB783D2BF8D1BF
:10037000380009F0C5F904F09BFE164B0021186502
:1003800000233360DBE7AB783D2BE6D1380009F082
:10039000B7F904F08DFE0F4B0021D86400233360C1
:1003A000CDE7AB783D2BD4D1380009F0A9F904F0A2
:1003B0007FFE084B9864CCE7D00600200040034045
:1003C00084150020641500206B7000006B6900002C
:1003D0006B640000181F002070B5E125114C6D0200
:1003E0002900200002F07CFB0221002000F0FCFF2D
:1003F0000221012000F0F8FF2900200002F034FC67
:10040000C022236B12021340074A20001360082108
:100410000023012202F084FC0021200002F0BEFC37
:1004200070BDC0460040034030500340F0B5CE469A
:10043000474680B599B005F0ADF9FFF7CDFF142020
:10044000A14901F075F90121142001F04FF9502262
:100450009E4B9A635A6B382313409D4A136005F0F4
:1004600037FB002800D024E1012105F021FB994B46
:10047000082218000921994600F064FD0723964FD1
:100480000422052138000093013B00F057F99348FE
:1004900005F0D2F83800322100F0B4FA38003221E9
:1004A00000F000FB386904F00FFF0400B8690D008C
:1004B00004F00AFF02900391786904F005FF22001E
:1004C0002B0000900191864805F058F914A90A0004
:1004D000844B854E31CB31C21B6830001360834B97
:1004E00032220193824B0093824B00F037FB82480B
:1004F00005F0A2F8300000F0CDFB804805F09CF834
:100500007F49804800F054FC7D497F4800F050FC52
:100510007E4B7F4A98467F4B404601937E4B7F49F6
:1005200000937F4B00F0AAFD0121002005F0C0FAE6
:10053000642001F0FBFE0021080005F0B9FA6420F8
:1005400001F0F4FE0121002005F0B2FA4AE04B462A
:100550007449186B04F03CFE4346196B04F038FEF6
:100560000122011C300000F0B9FB4B466D49186BAD
:1005700004F02EFE4346596B04F02AFE0222011CB1
:10058000300000F0ABFB4B466649186B04F020FED0
:100590004346996B04F01CFE0322011C300000F05E
:1005A0009DFB4B465F49186B04F012FE4346D96B26
:1005B00004F00EFE0422011C300000F08FFB01F05D
:1005C000A3FFFA2200239200001BA94104F052FA73
:1005D00014220023121A8B411000002B00DA002095
:1005E00001F0A4FE01F090FF040038000D0000F0BF
:1005F000EDF83900434828310EAA00F0DFFB39003E
:100600004148343111AA00F0D9FB404611AA0EA985
:1006100000F05AFE444B1B78002B2FD00023424A97
:1006200013704346986C04F04FFE434608900991BE
:10063000D86C04F049FE43460A900B91186D04F003
:1006400043FE4B460C900D91186B04F03DFE4B465B
:1006500034229A5C354B002A00D1354B0490059129
:10066000069334480C9A0D9B029203930A9A0B9BB3
:1006700000920193089A099B05F080F84B463422BA
:100680009B5C002B00D062E730000122002100F0CB
:1006900025FB30000222002100F020FB3000032265
:1006A000002100F01BFB04220021300000F016FBAB
:1006B00085E7214805F062F80120404219B0C0BC2E
:1006C000B946B046F0BDC0460503001000400340E7
:1006D00034500340DC1F0020781F002098C4001015
:1006E000C0C4001040C50010041F0020CDCCCC3D7C
:1006F000CDCC4C3DA0860100F0C4001000C5001018
:100700006666663F3C21002024140020181F00204C
:100710000AD7A33C8FC2F53C0000204148E17A3F54
:10072000CDCC4C3F00007041D00600207CC40010AE
:1007300078C4001008C5001084C40010F0B5C64687
:1007400017001C0000B51F4B82B00E0005001E49AB
:100750001800984605F00AF93800012100F044FE1F
:1007600020000124012100F03FFE0121089800F043
:100770003BFE300000F0D8FE2300D027B3403F06F8
:100780007B627B616C2301A9FF336E640B80C046E2
:10079000C046C04623006A6C9340BB61C046C04659
:1007A000C046022240460BF037FEC046C046C04657
:1007B0006B6C9C407C61C046C046C04602B080BCA9
:1007C000B846F0BD00C00340A0860100F0B5DE468B
:1007D00057464E464546E0B585B0BB236A46040001
:1007E000D371C046C046C04601263300426CD027B4
:1007F00093403F06BB61C046C046C0467C4B0122C9
:1008000098466B464046D91D0BF006FE02AD0A2005
:10081000002101F079FD06232A00002140460BF05B
:10082000C3FDC046C046C0463300626C93407B6146
:10083000C046C046C0460A20002101F065FD2B8855
:100840006A465BBAE3806B885BBA2381AB885BBA8C
:100850006381C323D371C046C046C0463300626C77
:100860009340BB61C046C046C0466B460122D91DBD
:1008700040460BF0D1FD0A20002101F045FD062382
:100880002A00002140460BF08FFDC046C046C046FE
:100890003300626C93407B61C046C046C0460A206C
:1008A000002101F031FD2B886A465BBA23806B88FA
:1008B0005BBA6380AB885BBAA380C123D371C046A7
:1008C000C046C0463300626C9340BB61C046C04620
:1008D000C0466B460122D91D40460BF09DFD0A2003
:1008E000002101F011FD02232A00002140460BF0F7
:1008F0005BFDC046C046C046636C9E407E61C046FC
:10090000C046C04600210A2001F0FEFC2B885ABADE
:10091000DBBA9B46A2810023E05E04F0ADFC3549C2
:1009200004F059FC8246A0620623E05E04F0A4FCB9
:10093000E221890504F063FC814660630223E05EE6
:1009400004F09AFC2B4904F046FC8046E062082340
:10095000E05E04F091FCE221890504F050FC071CE4
:10096000A0630423E05E04F087FC224904F033FC1A
:10097000061C20630A23E05E04F07EFCE221890568
:1009800004F03DFC051CE063584604F021FB1A4AC4
:100990001A4B04F08EFA0022194B04F085FA04F089
:1009A00087FB21692064504604F00FFCE169A062D6
:1009B000484604F00AFC61696063404604F005FCA7
:1009C000216AE062381C04F000FCA063A169301CBD
:1009D00004F0FBFB616A2063281C04F0F6FBE06373
:1009E00005B0F0BCBB46B246A946A046F0BDC04625
:1009F00000C003400000034352B81E85EBDD744085
:100A000000003540F8B54E4645465746DE46E0B54F
:100A10006A464B005B189B000733DB08DB00D31AE8
:100A200000AF9D460023E94605000E1E4C46984641
:100A30000EDD2800FFF7CAFEAB6A2360EB6A636035
:100A40002B6BA36001239C46E0440C344645F0D157
:100A5000300004F011FC10239A460C33984683466C
:100A6000AA44A8440020002E09DD4D4600200024A1
:100A70002968013404F0ACFB0C35A642F8D1594684
:100A800004F0A9FB534601C39A4604239C46E14463
:100A9000C245E7D1BD46F0BCBB46B246A946A0461A
:100AA000F8BDC046F0B54546DE4657464E46E0B571
:100AB00083B06A464B005B189B000733DB08DB0002
:100AC000D31A00AF9D46EB4680460E005C460025DB
:100AD00000290FDD4046FFF779FE43465B6B013589
:100AE000236043469B6B63604346DB6BA3600C341F
:100AF000AE42EFD1300004F0BFFB0023824699469E
:100B00001C3343447B600020002E0ADD5D4600203C
:100B100000244D442968013404F05AFB0C35A642E8
:100B2000F8D14B465146082B08D004F054FB4A46F6
:100B30007B68985004239C46E144E4E704F04BFBB7
:100B4000FE21890504F041FB4346BD46586203B0CF
:100B5000F0BCBB46B246A946A046F0BDF0B5DE46A5
:100B600057464E464546E0B5814685B01800170009
:100B70001C000E0004F07AFB0E99051C04F03FFBEC
:100B800004F09CFB4B460F991880281C04F037FB9F
:100B900004F094FB4B46674324045880230C0393D2
:100BA00004234B44984614234B44029307239B464B
:100BB000063B9A460197434630680421186000F0CE
:100BC00013FC336805205C085B461C4002F080FA89
:100BD000019903F029FF04F049FB071C04F06EFBA8
:100BE000C5B2280004F048FB011C381C04F0EDFAE3
:100BF0008321C90504F003FB04F060FBA2001F4938
:100C00001319C0B29B002D01054359180D601C49F2
:100C10008C460399634419605B4631684808184064
:100C200083001B1817489B00844648460588504699
:100C3000634408421FD114491868121968400840DB
:100C4000802149010B431860104B50469C4692008E
:100C5000624413680A43984304239C46029BE04481
:100C6000106004369845A6D105B0F0BCBB46B2462C
:100C7000A946A046F0BD06492D04DDE70400054065
:100C8000100005400C000540FFFF0000000005407B
:100C90000000FFFF416810B50A07520F93009B1830
:100CA0000A4A9B00944600886344CA070BD4084A4A
:100CB000196841400A40802149010B4305481A60E8
:100CC00001F034FB10BD044A0004F1E70C000540BC
:100CD000FFFF0000B80B00000000FFFFF0B5D64694
:100CE0004F464646541E0500C0B5081C032C4AD882
:100CF0002B88A400984604F0E7FA0022264B0BF05C
:100D000093FB2C1902000B00002000210BF064FB68
:100D1000636806001A07520F9A4693009B181F4AF1
:100D20009B0091469944434668880F00C01A04F01E
:100D3000A3FA3900041C300004F0BAF9011C201C8D
:100D400004F05DFA04F0C0FA154A164B04F0CBF833
:100D5000040040460D0004F03BF90B00020029009E
:100D6000200004F0A1F804F06FF9534680B2DB07CD
:100D70000ED40D4B4A46126849465040802252011B
:100D800003400A431360E0BCBA46B146A846F0BD32
:100D9000064B0004EEE7C046000059400C00054039
:100DA0007B14AE47E17A843FFFFF00000000FFFFA5
:100DB000002301608360C36003617047F0B503687E
:100DC000C6460400FE2000B50E00191C8005150063
:100DD000984604F0FAF9A16804F011FA3168071C8A
:100DE000404604F00CFA011C381C04F0F1F92860AC
:100DF000A060FE2023688005191C984604F0E5F9E0
:100E0000E16804F0FCF97168071C404604F0F7F94A
:100E1000011C381C04F0DCF96860E060FE202368E7
:100E20008005191C984604F0D0F9216904F0E7F90F
:100E3000B168071C404604F0E2F9011C381C04F0BC
:100E4000C7F9A860206180BCB846F0BD364B70B5CC
:100E50001D68364C1022A3691A420CD1A3691A42AC
:100E6000FCD12368DBB2C82B06D0297A002905D132
:100E7000A3691A42F2D070BD01222A72EA6A1F2ABF
:100E800046D92B7CC02B16D1E87BC0B204F0A0F869
:100E90000022274B04F003F80022264B04F009F847
:100EA0000022254B04F01FF80022244B04F01BF80D
:100EB00004F0FEF828632B7CC12B16D1E87BC0B26E
:100EC00004F086F800221E4B03F0F3FF00221A4BB9
:100ED00004F009F80022184B03F0E6FF0022174B3C
:100EE00004F001F804F0E4F82863EB7DAC2B14D097
:100EF0000021286B04F0B2F9002805D0EB7D122BFD
:100F000002D101222233EA5400232B72EB62A1E7C3
:100F1000A91801324B72EA629CE70022783BEA543E
:100F200000232B72EB6295E7701F002000800340C6
:100F30000080464000406A400000E03F0000594009
:100F400000806840002370B504000372C362002073
:100F500020633420184D2354626028002160174913
:100F600001F0BEFD6068022100F03EFA2068022117
:100F700000F03AFA5023AB636A6B183B1340104AF7
:100F800028001360C0222B6B120213400D4A082167
:100F900013600023012201F0C3FE2800002101F0AC
:100FA000FDFE1520084900F0C3FB0121152000F0CB
:100FB0009DFB064B1C6070BD00800340A0680600CE
:100FC00034900340309003404D0E0010701F0020FD
:100FD000F0B5C64600B588B080460E9806920793D5
:100FE000059104F071F906000F980F0004F06CF9F8
:100FF00004000D00059804F067F922002B000BF0A7
:1010000013FA02000B00300039000BF0E5F90090F4
:101010000191069804F058F922002B000BF004FA15
:1010200002000B00300039000BF0D6F9029003915A
:10103000079804F049F922002B000BF0F5F90200A3
:101040000B00300039000BF0C7F904000D000098C8
:10105000019904F02DF8434618600298039904F0B2
:1010600027F8434629005860200004F021F8434641
:101070009860404608B080BCB846F0BD8364009BD1
:101080000164C364019B42640365002303634363FB
:101090008363C36303604360836070478023F0B55C
:1010A000C6461B0600B58046C8180C1C04F00CF997
:1010B0000600201C0F0004F007F943460D00040051
:1010C000186804F001F92B0022000BF0ADF90200C2
:1010D0000B00300039000BF07FF903F0E9FF4346C5
:1010E0001860586804F0F0F82B0022000BF09CF90F
:1010F00002000B00300039000BF06EF903F0D8FF4E
:1011000043465860986804F0DFF82B0022000BF08B
:101110008BF902000B00300039000BF05DF903F091
:10112000C7FF43469860D86804F0CEF82B00220031
:101130000BF07AF902000B00300039000BF04CF98B
:1011400003F0B6FF4346D86080BCB846F0BDC04649
:10115000F0B5DE4657464E464546E0B5040089B038
:101160000F000168C06804F030F8616880462069AB
:1011700004F02BF8A168051C606904F026F88022B1
:10118000120694463B68814663441E007B68676C88
:1011900063444146381C039304F031F8291C606213
:1011A000381C04F02CF84946A062381C04F027F8DB
:1011B000424BE0620193424B04AFA26A616A38007D
:1011C0000093E36AFFF704FF2300243307CF07C32C
:1011D0004346A3614B462362A36C4146E561181C5C
:1011E0009B4604F00CF8E36C616A0290181C9A4666
:1011F00004F005F8236D8046191C301C994603F055
:10120000FEFF802212069446029B071C63441800CE
:10121000414603F0DAFF391C03F0D7FF002103F049
:10122000D7FF4146061C029803F0D2FF391C03F099
:10123000CFFF002103F0CCFF291C071C584603F008
:10124000DEFFA16A8046504603F0D9FF4946824638
:10125000039803F0D4FF802381461B064344180003
:10126000514603F0B2FF494603F0AFFF5146051C5B
:10127000404603F0ADFF494603F0AAFF311C80460B
:1012800003F0A6FF311C2063281C03F0A1FF391CCA
:101290006063404603F09CFF391CA063281C03F0E8
:1012A00097FFE063200007493030FFF7F7FE09B0F1
:1012B000F0BCBB46B246A946A046F0BD0000F041D6
:1012C0000000F0C100002041F8B5DE4657464E460A
:1012D00045460400E0B550680E009168150003F023
:1012E000FFFF8022120694462B688246634468689A
:1012F0001F00AB68011C984603F081FF4146051CA6
:10130000404603F07CFF011C281C03F061FF03F042
:10131000E1FF011C381C03F0E3FF8046FE20636CF4
:1013200080059B46236C191C994603F04EFF71689B
:10133000051C584603F063FF616803F049FF494606
:1013400003F05DFF071C404603F0BEFF0022234B65
:1013500003F0C9FD224A234B03F0ABFD03F0A8FEC6
:10136000291C03F04CFF011C381C03F031FFB1684D
:101370008046584603F043FFA16803F029FF316817
:10138000071C584603F03BFF216803F021FF494644
:1013900003F035FF8146504603F096FF00220F4BC5
:1013A00003F0A1FD0E4A0F4B03F083FD03F080FE16
:1013B000291C03F024FF011C484603F009FF4346A3
:1013C00031002060A76020006360FFF7C1FEF0BC21
:1013D000BB46B246A946A046F8BDC046008066405E
:1013E000182D4454FB210940094A830094464022A9
:1013F000634410B51C68C0006240C02414408022C1
:10140000520113431C60034B9C466044416010BD75
:1014100004C00140004001400A4B80009C46042368
:101420006044002901D00C230821002A00D10B00C0
:10143000026853400C221A4080235B01184302606B
:101440007047C04604C00140084B80009C46604481
:10145000002905D080239B011843022303607047B5
:10146000C0239B01184302230360F8E704C0014036
:10147000D0231B061B6830B50500581E83410F485A
:101480005C42844607203023284023408000EC083B
:10149000814020000A4D3C3063448000A40041514B
:1014A0001B19002A04D0802292011343196030BD19
:1014B000C022920113431960F9E7C0460041014080
:1014C00000400140D023F0B5C64604001B069846F4
:1014D0001B680C4F9B00F8580D00160000B5044225
:1014E00009D1044332002900FC500D2000F04AF9D4
:1014F00080BCB846F0BD01F027FF43461B689B0047
:10150000F858EEE7D41F002010B504000D2000F0BD
:101510002DFAD0231B061B6802499B005A58A24390
:101520005A5010BDD41F00200123D0228340120640
:1015300093629361094A8300944640226344196888
:10154000C0004A40C021114080225201134319605B
:10155000034B9C46052360444360704704C0014030
:1015600000400140024B18688007C00F7047C0461A
:1015700000C00640EFF3108072B6034A1368002BD8
:10158000FCD0BFF35F8F70472C0100D0BFF35F8F9B
:101590000022024B1A6080F3108870472C0100D0A3
:1015A00070B5EFF3108C72B60D4D2B68002BFCD08C
:1015B000BFF35F8F0724CB08C618C05C01230C4023
:1015C000A3401C000440034207D103433370BFF320
:1015D0005F8F2C608CF3108870BD100001F09CFEB2
:1015E0002C0100D0F8B54746CE46884680B5EFF3CB
:1015F000108C72B6214D2C68002CFCD0BFF35F8F8D
:101600009A422CD8D4080727055D061901241740F3
:10161000BC402C421FD007210127894609E0D4088D
:10162000055D06194C4639001440A1400C002942C2
:1016300011D001329342F2D201204042BFF35F8FBA
:1016400000220E4B1A608CF3108800280FDBC0BC00
:10165000B946B046F8BD2C4310003470EEE7BFF336
:101660005F8F00232B608CF310880120404243469B
:10167000002BECD0089801F04FFEC0462C0100D0A2
:1016800030B5EFF3108C72B60A4C2368002BFCD0F7
:10169000BFF35F8F07230122CD0819408A40435DC5
:1016A00093434355BFF35F8F002323608CF310886F
:1016B00030BDC0462C0100D00021044B044ABFF3CA
:1016C0005F8F02C39342FAD17047C046000100D039
:1016D000800100D0044A1078431CDBB2172B00D9DC
:1016E000102313707047C046D106002001238340A9
:1016F000002904D0034A1360034A13607047034A69
:101700001360FBE780E200E000E100E080E100E040
:1017100001238340014A13607047C04600E200E0A5
:10172000024B10309B688000C058704700ED00E00D
:1017300070B50D00EFF3108672B60F4A1368002BD8
:10174000FCD0BFF35F8F0D4B10309B6884001B599A
:101750000B4A934203D09D4201D001F0F5FD074BA7
:101760009B681D51BFF35F8FBFF35F8F0022024B59
:101770001A6086F3108870BD240100D000ED00E0EF
:10178000CD010010F0B557464E46DE464546E0B561
:1017900085B0060002911700EFF3108B72B6674A0E
:1017A0001368002BFCD0BFF35F8F0025644B5D579F
:1017B0009A46002D00DAA4E06B00624C03935B199B
:1017C0009B009846A146C1444B4652469B79103631
:1017D00013705D4BB2009B68019299580B1B2F2B25
:1017E00034D95A4B994200D0A4E0039B584A9C46F6
:1017F000584B6544AD006353434602336519E41802
:10180000554B0121043B1B1B1B055B0D13436B80D8
:10181000524BEF71AB80FF23AB71029BAB604B4629
:101820000B431900484B019A9B689950BFF35F8F97
:10183000BFF35F8F0022414B1A608BF3108805B015
:10184000F0BCBB46B246A946A046F0BD01200A0046
:101850008243D379BB422FD845464E4613004049B8
:101860001B1B5B415943090D3A4B63533A4B0235FD
:101870006519043B5B1B1B05354D5B0D2B437380CA
:101880000426B446E0444444131F1B1B4C46A1717C
:1018900002991B05A16049465B0D2B43A380314B88
:1018A000E77101431360BDE75800C018800020189D
:1018B000C679BE422BD902000623D356002BF3DA99
:1018C000101D82462848804604267642B446E144EC
:1018D00050464E46361A3005400D824656461C4844
:1018E000957106439680039A944665441D4AAD005F
:1018F000641922604246A371029BA280E771A36033
:1019000090E701F021FD002553465D5754E7101D77
:10191000824690884005001584464046D444664679
:1019200004302018301AE0260005400D36023043FE
:101930008046C9E701F008FD57E7C046240100D002
:1019400057210020D406002000ED00E0CD0100105A
:1019500000E0FFFF00A1FFFF0407002001BDFFFF23
:10196000AAAA00000148804701BD0000F0B5DE468C
:1019700057464E464546E0B50C0083B0EFF310895C
:1019800072B6584A1368002BFCD0BFF35F8F564BDA
:101990009A68030010339F00D559544A90469542E7
:1019A00032D0A54243D0524EAA1B2F2A2CD8012256
:1019B0008240924651464F4A126811400191514669
:1019C0004D4A1160BFF35F8FEFF305829346002A03
:1019D00033D101232A009A4393689C4208D177E0CF
:1019E0004B005B189B00F3189968A1422AD01A009B
:1019F000062151560029F3DA019B002B19D05246DB
:101A00003E4B1A603B4B1A60374B9B68DD51BFF36E
:101A10005F8FBFF35F8F0022324B1A6089F310880B
:101A200003B0F0BCBB46B246A946A046F0BD1500C7
:101A3000EAE75246304B1A60E6E79342C9D001F01C
:101A400083FCC6E706215956002921DB4A005018BD
:101A5000800034188046A0689860E079D87106202C
:101A600020569871002824DBA488F01A64052415F8
:101A700044440019E0240005400D240220439880CE
:101A800052181F4B9200B6181A781970B271B3E74A
:101A9000594600290FD1FF3191711A499180184997
:101AA0000A789A71184A9B1B5B415A43120D0A70BF
:101AB000A2E71648E3E7164A1649D21A083A500236
:101AC000400D01439980144952080A43DA8093E794
:101AD0000621515613000029B8DA5A46002AEAD1E5
:101AE0004546DCE7240100D000ED00E0CD01001008
:101AF000D406002000E100E080E100E080E200E0A8
:101B00005721002001BDFFFFAAAA000001BD00006F
:101B10000E07002000F0FFFF00F8FFFF032310B5C1
:101B20000400074A18409446C0009C43FC3383409D
:101B30006444226881409A4313000B43236010BD24
:101B400000E400E070B5EFF3058101240443EFF3F6
:101B5000108C72B6214A1368002BFCD0BFF35F8F44
:101B60001F4B05001F4AED1A6D416A43120D1E4DB1
:101B70008900AE6852B27658A6421CD0062159564A
:101B800091421CD012215956914222D01E21595601
:101B9000914220D02A2159560324914210D0134B50
:101BA00019781A708171BFF35F8F00220B4B1A6096
:101BB0008CF3108870BDAB680D4C5C50EFE70024CF
:101BC0006100091989005B18FF2199710949998001
:101BD000E5E70124F4E70224F2E7C046240100D03F
:101BE000D4060020AAAA000000ED00E05721002042
:101BF000CD01001001BDFFFF054B064A1360064AE8
:101C0000136053609360D3601361536193617047B5
:101C10008080808000E400E004E400E01F2110B533
:101C2000091A0248FFF72CFD10BDC04659210020BB
:101C300000B5074B83B0010000930022052305483F
:101C4000FFF7D0FC002801DB1F23181A03B000BDEA
:101C500050C500105921002070B504000E00150079
:101C6000FFF738FD0100200000F006F8A680E580AF
:101C7000BFF35F8F70BDC046024B9C466144890034
:101C8000016070474000003410B50400FFF722FDEA
:101C900001002000FFF7F0FFFF232371BFF35F8FE8
:101CA00010BDC04610B50400FFF714FD0100200070
:101CB000FFF7E2FFFF23A380BFF35F8F10BDC04695
:101CC00083680B4810B584466144624409011201DF
:101CD0009A18591854684B6801209C4201D802D0C8
:101CE0000020C0B210BD12680B689A42F9D8F7E71D
:101CF000FFFFFF0F0A4B1968EFF3108072B60A68F6
:101D0000002AFCD0BFF35F8F1B68BFF35F8F0022F8
:101D10001A6080F3108840BF002000217047C04641
:101D200020210020F8B557464E464546DE46E0B530
:101D300099460CAB1C780DAB1B78060090469A4672
:101D40000768002C11D1BC7B002C42D065003B6899
:101D50002D19033D59194B78BB73002B00D1FB7330
:101D600000238B704B700B7004E065003B682D19ED
:101D7000033D5919B2682A4B94464246E3181B01A9
:101D800063441A604A465A600A9A9A600B9ADA606B
:101D900000238B704B700B707B7B9B46002B2BD0F2
:101DA00022005946B8687B6898473A68002816D0E0
:101DB0005B4658465B005B445519033BA870D1183D
:101DC000D35C002B00D06B705B460C707B73A3451B
:101DD00013D0F0BCBB46B246A946A046F8BD5B4650
:101DE0005B005B44033BD3189C705119525D002A81
:101DF00000D05A705B460B707C7342464B46307D78
:101E000000F00CFC051E06D05346002B03D1210028
:101E1000306800F027FE0E9B002BDAD01D70D8E74B
:101E2000FFFFFF0FF0B5DE4657464E4645460023FE
:101E3000E0B58BB00893674B8200D45800239B46D3
:101E4000099000F061FB626806000F00EFF3108557
:101E500072B61368002BFCD0BFF35F8F23689C46DB
:101E60005B7B9946002B00D169E0A2685A4B9046F3
:101E70004B441B01984443461A685B6810001900E4
:101E8000801BB941002900DC63E0099800F0C6FB23
:101E900000230022984600230692079300239A46C7
:101EA0006368BFF35F8F5A461A6085F31088534604
:101EB000002B08D10028C4D10BB0F0BCBB46B24601
:101EC000A946A046F0BD089B414618024B46184360
:101ED000D047626806000F00EFF3108572B61368F2
:101EE000002BFCD0BFF35F8F002F50DB33003B4350
:101EF00002D02369002B61D12368D97B002907D048
:101F00004A00521819688C4649466244033A517097
:101F10009A7B002A01D14A469A734A46DA734B46A5
:101F2000E168013BCA5C0132CA545B4623616368C5
:101F3000BFF35F8F5A461A6085F3108881E700234C
:101F400000229846002306920793002300209A4619
:101F5000A6E7002902D1002800D096E700216046BC
:101F600000F0FEFC43461A685B68069207934346FE
:101F70009B689A464346DB689846E3684B44013BBE
:101F80001B7808931B0203432361002088E7236921
:101F9000002BB1D0069A079B921BBB41002B15DB8F
:101FA000594604910121039149460291414601910C
:101FB000514620000091FFF7B5FEB6E700F0A4FA05
:101FC00032003B0012184B41002BE9DA0122034B8F
:101FD0005242E5E7C41F0020FFFFFF0FFFFFFF7F16
:101FE00010B5144C6368002B04D00A211248FFF787
:101FF00043FE10BD2300114A1021206800F0CAFBE7
:10200000032000F075FA032000F072FB03200C4956
:1020100000F0BEFAFFF75EFB0A4B9C4603232375D4
:10202000D0231B061B6860446375074B800060600B
:10203000DC60DAE71C07002020210020C11C001012
:10204000251E001040000034C41F002000487047C7
:102050001C070020F0B54E464546DE465746E0B523
:1020600085B0019310AB1B780600039300239946BB
:10207000984600927268EFF3108B72B61368002BCB
:10208000FCD0BFF35F8F3568AC7B002C3DD0670080
:102090002B683F19033FDB195A78AA73002A00D135
:1020A000EA73B168474A8C4600980199A218120158
:1020B0006244106051600E9991600F99D160424660
:1020C0009A705A701A706B7B9A46002B67D0220068
:1020D0001900A8686B6898472A68002852D05346B0
:1020E00050465B005344D719033BB870D118D35CFA
:1020F000002B00D07B7053460C706B7354454FD04F
:10210000F3681B19013B187800E000207368BFF3E7
:102110005F8F42461A608BF31088002C4FD04B46DD
:10212000002B08D10002204305B0F0BCBB46B246EC
:10213000A946A046F0BD039B002B3ED00E9B00207D
:102140000F999847030004000D000B4335D0002978
:102150000ADA009A019B121BAB4100920193002BFB
:102160000ADB039B994685E700F0CEF924184D4120
:1021700000940195002DF4DA0123134C5B42009387
:102180000194EEE753465B005344033BD3189C7025
:10219000D119D25D002A00D05A7053460B706C736F
:1021A000307D009A019B00F039FA81460028A7D0C3
:1021B0002100306800F056FCA2E70020B4E70120BF
:1021C0004042B1E7FFFFFF0FFFFFFF7F70B5040044
:1021D000002933D04268EFF3108572B61368002BE4
:1021E000FCD0BFF35F8F2068CEB2437BB34216D0E2
:1021F000FF230B405A00D318026894466344033B04
:102200009B78002B0BD12269914219D00020636882
:10221000BFF35F8F00221A6085F3108870BDFF2323
:102220000A0A0B40E168D2B28C466344013B19783C
:102230009142EBD1310000F015FCE8E70020EDE71A
:102240002361E3E7F0B504000D0006267642F71798
:10225000C64636196F4100B584B08F4214D811D0EC
:1022600000F052F932003B00121A8B41002B15DCB2
:10227000002B3ED02000290000F07AF904B080BC89
:10228000B846F0BD8642EBD90026002700F03CF9A5
:1022900032003B00121A8B41002BE9DD0023029330
:1022A0000193154B3200009314483B00FFF7D2FE18
:1022B0000028DFDB00239846BC46114A114F7B6A99
:1022C0009C4504D8B96A8E42D4D99C45D2D11168B4
:1022D000EFF3108072B60B68002BFCD0BFF35F8F5A
:1022E0001368BFF35F8F4146196080F3108820BFE9
:1022F000E5E7002ABED0D1E7F51C00101C0700203E
:10230000202100200040054070B504000D0000F0C1
:10231000FBF800196941002902DBFFF793FF70BD4C
:10232000012001494042F8E7FFFFFF7F70B506003A
:1023300000F0EAF8FA2204000D000023300000212A
:10234000920002F025FF00196941002902DBFFF726
:1023500079FF70BD012001494042F8E7FFFFFF7F90
:10236000F0B5EFF30583CE46474680B505000C0077
:1023700085B0002B12D02C4A0020536A9C4203D80F
:10238000926A0130AA4204D305B0C0BCB946B04637
:10239000F0BDE01A421E9041C0B2F5E7234E029311
:1023A0000193234B0200009330000B00FFF752FE15
:1023B000031EE0DD20BF7168EFF3108772B60A6874
:1023C000002AFCD0BFF35F8FDAB294463068427BBC
:1023D00062451DD0FF221A40510089460168914490
:1023E00088464946414403398978002913D0F16869
:1023F0001B0A88464244013A1278DBB29A420FD057
:102400007368BFF35F8F00221A6087F31088B2E70A
:10241000FF221A40EBE732699342F1D13161EFE7D5
:10242000614600F01FFBEBE7004005401C07002061
:10243000F51C0010F0B5EFF30582D6464F46464630
:102440001000C0B51038EFF3108872B6214C236825
:10245000002BFCD0BFF35F8F0123190081401E4D7C
:102460001F006963AA461D4D29601D4D2E78AC469C
:102470003500C5402F402B4209D1BFF35F8F276045
:1024800088F31088E0BCBA46B146A846F0BD534672
:10249000144D5F6A83005D59AF420ED3124A8E43DA
:1024A0009B5862461670BFF35F8F0022226088F34C
:1024B0001088002BE6D09847E4E70C4B92009C462E
:1024C000624413681360BFF35F8F0023236088F3B7
:1024D0001088D7E7280100D0004005403C70054037
:1024E000582100202421002038140020D03F05402E
:1024F00010B50100024A0348FFF752F810BDC0466C
:1025000078C5001055210020034B596A0A00986ACB
:10251000596A8A42FAD170470040054070B50400FC
:102520000D00124A536A1900966A536A8B42FAD117
:102530003000190024184D41AB4211D80ED02B00A9
:102540000A494A6A9A42FCD307D1084A02E0516A12
:10255000994202D1916AA142F9D370BDA642EED947
:10256000012301246442E5175B42E9E7004005408E
:10257000064A536A9942FCD807D1044B02E05A6AD2
:10258000914202D19A6A8242F9D3704700400540D5
:1025900070B504000D00EFF3108672B61A4A136886
:1025A000002BFCD0BFF35F8F002D1BD02000FFF766
:1025B000B7F8164981420AD02000FFF7B9F8012187
:1025C0002000FFF793F80123A340114A1360114B39
:1025D000A400E550BFF35F8F00220B4B1A6086F317
:1025E000108870BD0B4BA200D5500122A2400A49B1
:1025F00020000B7893430B700449FFF7B7F90021D3
:102600002000FFF773F8E5E7280100D0352400101B
:10261000386005403814002058210020F0B54F469E
:10262000D6464646C0B507002C4C616A0D00A66A26
:10263000616AA942FAD18B4208D805D00120E0BCDA
:10264000BA46B146A846F0BDB242F7D9EFF3108AB8
:1026500072B6234801680029FCD0BFF35F8F0125C3
:10266000BD4020491D4C8846097889462943C9B296
:102670008C46414660460870391D1B4889006563D9
:102680000A51B9000B50216A0020294219D0616A11
:102690000800A66A616A8142FAD18B4219D801D139
:1026A000B24216D8CC4516D00C4B1F201D625D637C
:1026B00001230740BB400D4A1E38136043464A467B
:1026C0001A70BFF35F8F0022054B1A608AF31088DF
:1026D000B5E70020F5E70120F3E7C04600400540DC
:1026E000280100D0582100202421002080E200E0B1
:1026F000EFF3108C72B60A490B68002BFCD0BFF3C5
:102700005F8F01238340074A0748136202789A4388
:102710000270BFF35F8F00230B608CF3108870474B
:10272000280100D0004005405821002070B5050068
:1027300014001600002915D00C00002A12D0806861
:102740006B689847296800280ED073009B196200B7
:10275000033B1219CB18033A9C7088188A5C002A34
:1027600015D10670200070BD63001B197200033B79
:102770009219CB18033A9E7088188A5C002A02D1FD
:1027800004703400EEE75A7004703400EAE75A70BF
:102790000670E7E730B583600023CCB243730133A2
:1027A000047342608373C4730D000068012C06D962
:1027B000421C0133DBB2137003329C42F9D1FF217A
:1027C00029404B005918002340180338437030BD8E
:1027D000F8B5CE46474606000C0080B5002907D064
:1027E0004D0003686D18033D5A195778002F04D126
:1027F0002000C0BCB946B046F8BD7900C9190339FC
:10280000884643445978894600215970517073684D
:102810003A002100806898473368002814D0424667
:102820009A18947059195B5D002B00D053700F708B
:10283000270049463000FFF7CBFF39000200300087
:10284000FFF774FF0400D3E7424641465D19AF70BD
:102850009A185B5C002B00D06B701470E9E7C046DF
:10286000F0B557464546DE464E46E0B50D006B00D6
:1028700001685B19DF1E0400C85D83B00192CA19AC
:10288000002850D043001B18033BCB185E78B44699
:10289000002E1AD1019E002E42D0E67B002E04D0DD
:1028A00073009B19CB18033B5D70A37B002B00D1F9
:1028B000A573E57300282FD10023537003B0F0BC3B
:1028C000BB46B246A946A046F0BD72006244033A38
:1028D00089184A78904600224A7091465A70010041
:1028E00032002000FFF722FF43468246002B07D02C
:1028F0005B0021684344033BCB185A78002A16D169
:10290000424651462000FFF711FF2168019BCA197A
:10291000002BC2D10028CFD043001B18033BCB189B
:1029200000219970C8E7019B002BB6D1C4E7500085
:10293000801803380918487883464846487058700C
:1029400041462000FFF7F2FE594680462000FFF77F
:102950003FFF414602002000FFF7E8FE8046CFE738
:10296000F0B557464546DE464E46E0B583B0019188
:10297000457B04006B0000685B19DF1EC15DC21956
:10298000002952D04B005B18033BC3185E78B44655
:10299000002E1CD1019E002E44D0E67B002E04D0D8
:1029A00073009B19C318033B5D70A37B002B00D100
:1029B000A573E573002931D100232800537061739A
:1029C00003B0F0BCBB46B246A946A046F0BD7200BB
:1029D0006244033A80184278904600224270914641
:1029E0005A7020003200FFF7A1FE43468246002BBA
:1029F00007D05B0021684344033BCB185A78002A78
:102A000017D1424651462000FFF790FE019B01007E
:102A10002068C219002BC0D10029CDD04B005B1813
:102A2000033BC31800209870C6E7019B002BB4D16C
:102A3000C2E7500080180338091848788346484692
:102A40004870587041462000FFF770FE5946804696
:102A50002000FFF7BDFE414602002000FFF766FEA2
:102A60008046CEE770B5040000292CD0437B8B4212
:102A70002ED0056848004018033828188278002AAC
:102A800021D053009B18033BEA5CEE188A4202D126
:102A90001BE0002A08D053009B18033BEB185A7820
:102AA0008A42F6D142785A70002301228370437023
:102AB0002000FFF7D5FE617B02002000FFF736FE05
:102AC0006073012000E0002070BD43783370EBE7B5
:102AD00001221900FFF7C4FE60730120F4E7C0462D
:102AE000F8B5CE464746040080B506200E0000F03B
:102AF000EFFA051E51D0524B5249E21853425A4147
:102B00008023DB039C4692054F4B62441A604F4B77
:102B10001A6010008B689843FBD1494B8021E31861
:102B20005A4253414A4A5B0049009952062000F03C
:102B3000CFFA3100C00001F077FFC30932D1402243
:102B4000012190466162A362256BEB0736D4270012
:102B50008026E36A00232C3776013E43336006204B
:102B6000256300F0B5FA4146800001F05DFF236B5C
:102B700005009846DB073BD46022E36A5A406E2387
:102B80001340336043462363802310229B013B4361
:102B90001A60304B23630323A3642800C0BCB946EA
:102BA000B046F8BD2C4A93423FD900232B492C4A0A
:102BB0006162A362256B9046EB07C8D52200C02353
:102BC00030329B011343234A06201A60666AA26AC8
:102BD000B601B61800F07CFA224901F025FFB602D2
:102BE0000100300001F020FF0021FFF797FCAEE765
:102BF0002200C02330329B011343164A06201A607C
:102C0000636AA26A9B019946914400F061FA4B46BF
:102C100014499B02994601F007FF0100484601F064
:102C200003FF0021FFF77AFCA6E77F22990188467F
:102C300010400130400819008044030082E7C0467C
:102C40000080FCBF00C0004000E0004000F00040F9
:102C50003421002001030000FEFF0000FFFF000000
:102C6000C0FF3F004E0E0000F8B5040006200D0026
:102C700000F02EFA2900C00001F0D6FEC30924D0CE
:102C8000224A934239D90023214A224E6262A3622A
:102C9000256BEB0720D52200C02330329B01134364
:102CA0001D4A06201A60676AA26ABF01BF1800F0B9
:102CB0000FFA1A4901F0B8FEBF020100380001F016
:102CC000B3FE0021FFF72AFC06E0402601226262E3
:102CD000A362256BEB07DED4E36A220080232C324B
:102CE0005B011343002206201A60256300F0F0F90F
:102CF0003100800001F098FEF8BD7F2210400130C5
:102D000040089E011A0036180300E0E7FEFF0000AD
:102D1000FFFF0000C0FF3F00010300004E0E000057
:102D20000539013AF8B5D2004C0105001443002BD7
:102D300005D002222243012B2AD105331C432E6BDE
:102D4000F3070BD4EA6A802362406E2414402A0001
:102D50005B012C3213431C602E63F8BD2A00C02394
:102D600030329B0113430B4A06201A606F6AAA6A2D
:102D7000BF01BF1800F0ACF9074901F055FEBF02D2
:102D80000100380001F050FE0021FFF7C7FBD9E732
:102D90001400D4E7010300004E0E0000F8B54B1EEE
:102DA0009941066B05000C01F3070BD41023E96A67
:102DB0002A004C401C4080232C325B0113431C60D2
:102DC0002E63F8BD0200C02330329B0113430A4A30
:102DD0001A60476A826ABF010620BF1800F078F9BE
:102DE000064901F021FEBF020100380001F01CFE7F
:102DF0000021FFF793FBD9E7010300004E0E00000E
:102E000030B50C2083B000F0B9F9FEF7ABFB002819
:102E10000ED0994B994A1A605A609A60DA601A612A
:102E20005A619A61DA611A62954A5A6203B030BDFA
:102E3000944CA06700F0AAF90122934B1A60636CCE
:102E4000012BFCD10322914B1A608E4A936B012B0C
:102E5000FCD1013301218E4A8E480093043300F0E7
:102E60003DF905238C4A009301218C4800F036F986
:102E70008B4B5A68FF2A02D8802252005A60802267
:102E80007D4C824B21691201854D1A60002907D0C3
:102E9000606901F0C9FD431C5800C0180338FDD219
:102EA000E0217F4B02201A681140802252012A4300
:102EB00011601968484003210140116004219A689B
:102EC0001142FCD08022802192012A430901116025
:102ED000802252005A60734B2361734B5968FF295B
:102EE00000D85A600321684A6F4B116002399A6812
:102EF0001142FCD0E0201A681040802252011A438F
:102F000010601868484003210140022011606649A2
:102F10008A681042FCD08022920113438022120161
:102F20001A608022614B52004A606361604B5968AD
:102F3000FF2900D85A6080225E4BE16912015C4D86
:102F40001A60002907D0606901F06EFD431C58002B
:102F5000C0180338FDD2E02255490B681A4080237F
:102F60005B012B431A60802380229B012B431201BB
:102F70001A608022414B52004A60E3614E4B59680F
:102F8000FF2900D85A6080224C4B216A12014A4D19
:102F90001A60002907D0606901F046FD431C580003
:102FA000C0180338FDD2E02243490B681A40802341
:102FB0005B012B431A60802380229B012B4312016B
:102FC0001A60802380225B004B602C4BD20223626C
:102FD0003B4B5968914200D25A608022394B616A5A
:102FE0001201374D1A60002907D0606901F01CFDFD
:102FF000431C5800C0180338FDD2E02230490B684A
:103000001A4080235B012B431A60802380229B019E
:103010002B4312011A608023DB024B60184B636262
:10302000294B5A68FF2A02D8802252005A60802217
:10303000264BA1691201244D1A60002907D060694E
:1030400001F0F2FC431C5800C0180338FDD2E02206
:103050001D490B681A4080235B012B431A608023B3
:1030600080229B012B4312011A6080235B004B607E
:103070000E4BA361DAE6C0469C150020006CDC0212
:103080001BB70000008000403CB0004030B0004062
:10309000002F685900800240008C864700C0024023
:1030A00030800040001BB7003C800040405973074F
:1030B0005480004054B000406080004060B0004048
:1030C0006C8000406CB000404880004048B0004038
:1030D000014B8000C05870479C150020F8B50400D3
:1030E00021481D0017000E0001F09EFC0100380071
:1030F00001F09AFC069B29041B0319432368002B4B
:1031000020DB1A4B1A4DE21853425A4180235B01CF
:103110009C461203174B62441A60174B1A60170043
:10312000AB689F43FBD1C022231D92011A43212388
:103130002660A06013602368002BFCDA0823E1609E
:103140001360F8BD3F2322681340B342D9D1A3686E
:103150001B051B0D8342D4D1EE22E368D20213403B
:103160008B42CED1EDE7C046001BB7000040FDBF4B
:1031700000C0004000E0004000F000408023024A10
:103180009B000343D362704700800540AA23064A90
:103190001B0113602F230549D360054B1960536849
:1031A000002BFCDA7047C0460040024000B0FA0035
:1031B000006002402C4B2D4A70B51A602C4A2D4BF2
:1031C0002D491A6014008B689C43FBD12B4D2C4E6B
:1031D000B54208D2013E761BB60808CD98472300B9
:1031E0000134B342F9D1FFF70BFE264A214B1A6096
:1031F000214A9368DB43DB01DD09002BF9D1402232
:10320000214B224C224E9A675A671A67DA66B442FB
:1032100008D223682000002B20D00834FEF742FD9E
:10322000B442F6D31B4E1C4CC022A168300002F001
:103230009FF8A660FEF740FAFEF7DEFCFEF7D0FE30
:10324000164C174EB44208D2013E361BB60808CCC5
:1032500098472B0001359E42F9D170BD0834FEF726
:1032600013FDB442D5D3DDE700E00040BFCDFBFE47
:10327000FE7F3C0000F0004000C0004068110020CC
:1032800078110020FFFFFF0100F0014060110020D5
:10329000681100200000002000ED00E078110020FF
:1032A0008011002000BEFDE7094A030010680028D5
:1032B00005D00849C3188B4207D8136070470648E9
:1032C0000449C31810608B42F7D901204042F5E74A
:1032D000741F0020000004205C21002010B5FFF7BF
:1032E000E1FFC04610B50C0082B01900002A0AD0D8
:1032F000064B0192009302002300054801F0F4FA06
:103300000120FFF7CFFF034B1A00F2E79CC5001026
:10331000ACC50010A0C900100FB400B5084883B0B8
:1033200002F08AF9049B002B07D005A9180001912F
:1033300001F0FAFA034802F07FF90120FFF7B2FF2B
:10334000DCC50010C4C9001010B50148FFF7E4FF48
:10335000ECC500107047C046F8B557464E46454686
:10336000DE46E0B599460A9B07009A460D9B8846C3
:10337000934615000B9E9B0710D10C9B9E420DD2CD
:103380009D1B14000E005D4422004B4601343100A9
:103390002020B847A542F7D1B0460B9E002E27D07B
:1033A000444675195346AA1B013E985D21004B46C1
:1033B000B847002EF6D123002C0098460D9B9B07A2
:1033C0000FD55B46E51A0C9BAB420AD94646984698
:1033D00022004B46310020200135B8470134A84572
:1033E000F6D82000F0BCBB46B246A946A046F8BDC0
:1033F0002C00E3E7F0B54F464646D646C0B584B04C
:1034000098460EAB1B78129F994694460D9C109BD4
:10341000119EBA0725D4002E4BD19C4200D3BFE0A9
:1034200001223A4092461F2C00D9B8E00C9A551E52
:10343000302201E0202C03D001342A55A342F9D8D0
:103440005246002A0DD0A6420BD9202C44D00C9A0B
:10345000551E302201E0202C3ED001342A55B442C2
:10346000F9D1FA064DD57A053FD4002C39D10F9BFE
:10347000102B00D179E00F9B022B00D18AE0302382
:103480000C9A012413704B46002B3FD02D230C9A2D
:10349000135501340C9B62460093039743460296F2
:1034A0000194FFF759FF04B0E0BCBA46B146A84604
:1034B000F0BD012215003D40AA463A422FD04A46AF
:1034C000002A02D10C323A4200D0013E9C42BAD2CC
:1034D0001F2CABD9202E27D92024FA06DAD57A055D
:1034E00003D4A3422DD0A6422BD00F9B102B32D059
:1034F000022B20D0202CCDD030220C9B1B191A700F
:103500000134202CC6D04B46002BBFD17B070DD4F5
:103510003B07BFD520230C9A13550134BAE79C42D0
:103520009FD21F2C00D881E720249AE72B230C9AE6
:1035300013550134AEE7202CACD00C9B1B19013481
:103540003AE0631E012C92D00F9A102A2AD0022A48
:103550002FD01C00D0E7BB060ED4202C9AD00C9B99
:103560001A19013478231370C4E7BB060DD47823ED
:103570000C9A01241370BFE7202C00D18AE758224F
:103580000C9B1B191A700134B4E758230C9A0124C0
:103590001370B1E70C9A603301241370ACE7202458
:1035A00000265EE7023CBA06E9D40C9A12191C0008
:1035B000D8E70C9A9246534462221A709AE7C046A2
:1035C00010B5002800D110BD01F0EAFFFBE7C046AE
:1035D0000B0010B5002802D049681B68984710BD41
:1035E000F0B5DE4657464E464546E0B59BB09B4695
:1035F000249B89469846259B0B900C924046424658
:1036000019009A4601F0D1FC002800D0D9E001222F
:1036100040465146774B524201F0C2FC002800D090
:10362000CFE0012240465146734B524201F0A2FCCA
:10363000002800D0C5E0002200234046514601F09A
:1036400099FC002800D0B9E1424653460A920993FA
:103650008023289ADB001A400E92289A1A4201D140
:10366000062326930A9A099B1600134300D0C7E04D
:10367000289B002500261B0500D49BE100230D9309
:10368000269B19000D9B994200DC9EE1C81A431E3F
:1036900026938023289ADB001A43002300272892D0
:1036A0000D93279B0024BB4200D9DC1B0223289AE0
:1036B0001A400E92289A134203D07B427B415B4210
:1036C0001C400D9B002B07D00A9809992A00330053
:1036D00001F0EFFB0A900991002200234046514679
:1036E00001F048FC002805D0802000068446099996
:1036F00061440991289A414B0B9D13400493269BEA
:103700000A9A0293099B03940092019349465B46EF
:1037100028000C9A00F08AF90400002F62D0289B40
:10372000220098061F23C0179843631C98464946F9
:103730005B466530A8470D9B0025DA179C18DB0F08
:103740009A465440013F01E0202D13D00AAA944626
:103750001F23200063440A2101355E1901F064F93A
:103760003031317020000A2101F05EF9260004009A
:10377000092EE9D805230693002304930A33039303
:10378000534605970B9F029312AB009342465B464C
:10379000494638000195FFF72DFE0E9B0400002BD3
:1037A00020D00C9BC51A279BAB421BD91E002200C0
:1037B0005B46494620200135B8470134AE42F6D871
:1037C00010E0289B42460493279B49460393269B7F
:1037D0000B9802935346009201935B460C9A00F0BB
:1037E00025F9040020001BB0F0BCBB46B246A94638
:1037F000A046F0BDFFFFEF7FFFFFEFFFFFF7FFFFEA
:10380000734B099F9C467800400D604401F0E0FB3B
:10381000704A714B01F067FB704A714B01F044FB39
:103820003B03704A1B0B1A4304000D0030001100CB
:103830006D4B002201F033FB6C4A6D4B01F053FBE2
:1038400002000B002000290001F02EFB01F0D8FB44
:103850000D9001F0BDFB674A674B04000D0001F0BD
:1038600042FB0022654B01F01FFB01F0C9FB644ADB
:103870000600644B2000290001F035FB04003000F5
:103880000D000F9601F0A4FB5F4A604B01F02BFB8B
:1038900002000B002000290001F001FB02000B00D8
:1038A00006000F0001F01FFB320004000D003B007A
:1038B0003000390001F0F8FA002210901191544BB9
:1038C0002000290001F0F5FA0022524B01F0ECFA39
:1038D00002000B002000290001F0EBFA00224E4B01
:1038E00001F0E2FA02000B002000290001F0E1FAE9
:1038F0000D008021320004003B000020C90501F0CA
:10390000CEFA02000B002000290001F0CDFA0200DF
:103910000B001098119901F0CCFA0022314B01F004
:10392000C3FA3E4A0F9B9446634400221B0501F0F4
:10393000DAFA05000E0002000B000A98099901F05E
:1039400019FB00280AD00D9B2800013B31000D9384
:103950000022304B01F0ADFA05000E00C6270D998C
:103960002B0063318F42BF4128997F4204370905FC
:1039700000D496E6334300D182E6099C284A210010
:10398000284B0A9801F004FB002808D000222100EF
:10399000254B0A9801F0EEFA002800D070E6269B2D
:1039A000002B00D17DE60E9B5A1E9341269AD31A16
:1039B000269376E6002304270D9372E643460A9386
:1039C00080231B065344099342E60023269360E6B6
:1039D00001FCFFFFFB799F501344D33FB3C8608BBA
:1039E000288AC63F0000F03F0000F83F61436F6344
:1039F000A787D23F71A379094F930A400000E03FA7
:103A00001655B5BBB16B0240EF39FAFE422EE63FC8
:103A100000002C400000244000001840FF0300007C
:103A20002D431CEBE2361A3F80842E41F0B54E4602
:103A3000DE4657464546E0B597B09946209E219F01
:103A4000229B8346984607910C923B00320030003F
:103A5000390001F0AAFA002800D0A9E101223000C3
:103A60003900CA4B524201F085FA002800D0E1E04B
:103A7000012230003900C64B524201F091FA002871
:103A800000D0B7E0002230003900C24B01F088FAC4
:103A9000002800D099E0002230003900BE4B01F030
:103AA00069FA002800D090E000220023300039009D
:103AB00001F060FA002800D0B1E000230D93249BB0
:103AC0005B0501D40623984608AB9C4617220024C8
:103AD00030234146624404E0013413550139202C5F
:103AE00001D00929F8D888463000390001F088FA59
:103AF0004346DA00A94B05009B181A685B680892D8
:103B0000099301F065FA02000B003000390001F062
:103B1000C6F9089A099B01F0E6F90A900B9101F0A9
:103B200093FA824601F050FA02000B000A980B99B2
:103B300001F0B5F900229A4B0A900B9101F030FA8E
:103B4000002800D1C0E001239C46E244504601F029
:103B50003BFA02000B000898099901F011FA0028BD
:103B600002D000239A4601354346002B6AD008ABA9
:103B700017269C4608956644554614E001235B428F
:103B800043440A2128009A4600F04EFF01343031A8
:103B90003719397028000A2100F046FF092D00D896
:103BA000D0E0D0460500202CE8D10EAB9846032388
:103BB000249A1340012B00D196E02023249A0193EC
:103BC0000392239A434602921EE0249B5846049394
:103BD000239B00960197039343460C9A02930799FF
:103BE0004B46FFF7FDFC17B0F0BCBB46B246A946FA
:103BF000A046F0BD249B5B070ED40322694B249999
:103C00000192039123990291009358464B460C9AD6
:103C10000799FFF7A1FBE6E70422634BEFE73B00C0
:103C200032000020002101F03AF9012306000F00C4
:103C30000D9344E7249B0393239B02930423019356
:103C40005A4BE1E7280001F0C3F902000B003000F5
:103C5000390001F024F9524B002206000F0001F058
:103C600089F90EAB984600280AD1002230003900AD
:103C70004B4B01F095F9002802D1EB0700D5013537
:103C8000202C94D008AA94461723280063440A21C4
:103C900001341E1900F0A0FE3031280031700A21D5
:103CA00000F09AFE051EEBD10323249A1340012B4A
:103CB0001BD0202C00D180E70D9B002B35D02D226E
:103CC0004146631C0A5579E700220A980B99344B48
:103CD00001F050F9002800D046E75346002B51D19F
:103CE00001239C46E2443FE72024239B002BE0D0A5
:103CF0000D9B002B03D1249A0C33134202D0239B3B
:103D0000013B2393239BA342D3D908AB9C461722A4
:103D100030236244202C00D14FE7239901341355FE
:103D20008C42C6D0202CF8D147E7249B5B0724D4D3
:103D3000249A2300120700D440E720224146013391
:103D40000A553BE75746089D202C00D12DE722005D
:103D500030214046002F09D00132B154202A00D131
:103D600023E7D3431B191B18002BF5D10EAB984644
:103D70002E234146541C8B5482E72B224146631C60
:103D80000A551BE7DB0700D4EEE6A9E7FFFFEFFFCC
:103D9000FFFFEF7F65CDCD4165CDCDC1F0C70010F0
:103DA0000000E03FF8C50010FCC5001008C6001078
:103DB000249B0393239B029303230193004B23E74C
:103DC00004C60010F0B5DE464E4657464546E0B5FF
:103DD0009FB01C00289B91460993C94AC94B8B464A
:103DE00008901A60002900D118E2002320789A4632
:103DF000002800D11AE226001D005C460AE02A00D5
:103E00006F1C4B46089D2100A8473D0001363078C5
:103E1000002870D02528F2D110239B46083B9A46F3
:103E2000043B9846023B00219C46721C1078160009
:103E30000300203BDBB2102B03D8B34F9B00FB5891
:103E40009F460300303B092B32D900230A932A28CE
:103E500068D0002398462E283ED00300683BDBB292
:103E6000122B1CD8A94A9B00D3589F46012301322C
:103E70001943DBE7634601321943D7E74346013272
:103E80001943D3E75B4601321943CFE7534601326A
:103E90001943CBE780235B00707819430136030098
:103EA000253BDBB2532BAAD8994A9B00D3589F4697
:103EB00000270300B800C01901364000C01833784D
:103EC00030381A00303A0700092AF3D90A9018004E
:103ED000002398462E28C0D180237078DB00194338
:103EE0000300303B721C092B00D8A1E12A2800D125
:103EF000B2E11600B1E7A346AA462C00D14503D88B
:103F000001235B424B449A464B4652465946002099
:103F1000089DA84720001FB0F0BCBB46B246A9468A
:103F2000A046F0BD099B40CB0A96002E03DB5078DB
:103F30000993561C8DE72838014370420A90099373
:103F40005078561C85E7782800D1DFE1582800D149
:103F50004CE26F2800D14FE3622801D100F030FC21
:103F600010230A009A430B92692801D000F0A9FCA3
:103F70000A230C934B0500D5D0E10B9A8023110046
:103F80009B0019408B461A4200D0A1E28023110009
:103F90005B0019408A461A4200D0B6E313005B0664
:103FA00000D5EDE2130009991B0601D400F076FC60
:103FB00008C91BB2D8171A18424092B20991934609
:103FC000DA0F1292002B09D1802310220B99DB000B
:103FD0000B4091430B91002B00D0E4E20B9A61233C
:103FE000920600D541230EA91F228C46DBB2624403
:103FF0000A3B5F461395A34655460C9CB2460D936B
:1040000016000AE03033DBB201357355A74200D207
:10401000EDE2202D00D1EAE207002100380000F097
:1040200003FDCBB20929EDD90D9A94466344DBB266
:10403000EAE780239B007078194301362FE77078F8
:10404000682800D1CDE180230136194327E7707835
:104050006C2800D1BFE180235B00194301361EE7C5
:10406000462800D19BE10722099B04910733934323
:104070000A9A19000392424602920CC908980092CB
:10408000019309912A004B462100FFF7CFFC01362E
:104090000500BCE62A006F1C4B46089D2100252028
:1040A000A84701363D00B2E68B0700D4ADE1099B7D
:1040B0002A009A466B1C9846534601CB21009A462B
:1040C000089F4B46C0B2B8470A9B9C466544012BEB
:1040D00000D886E2089B4746B04626004C469946E3
:1040E0003A002300013731002020C847AF42F7D102
:1040F000A1465346340046460993013687E6C0463A
:10410000C53D0010C01F002010C6001054C600108E
:10411000A0C60010099B04CB9B4643460992002B86
:1041200000D1C6E013789C46002B00D1BDE3434686
:10413000013B099A0133D0180A9F130001E0834222
:1041400003D05A780133002AF9D1099A0A979B1AA9
:104150000B9380230A00DB001A400C92194204D012
:104160000B9B434501D943460B9302231A000A4097
:104170000D920B4200D187E16046002800D168E132
:104180000C9B002B00D10DE1A844C246099B574669
:104190005B1B9846089BB2462A0026004C4699466F
:1041A00009E023003100551CC8474346585D0028EC
:1041B00000D126E12A009742F3D1A1463D00340008
:1041C00056460D9B002B00D043E15B460136099318
:1041D0001DE6099B1A0008CA9246002B48D02122EE
:1041E00011438B460EA884461F2161440995002285
:1041F0000F27A4460D0002E0202A0CD00B003C0043
:104200001C4020003730092C00D807380132A85450
:1042100019090F2BF0D86446099D32E0DC4B207859
:10422000089300239A46002800D0E4E5002465E6C0
:10423000434606000A9F9800C018013240008019CA
:104240001678030030003038303B0928F3D93000AD
:10425000984616000A9700E6099B023604CB904662
:10426000D2434046D2171040804609933078F4E597
:104270001022080090431132104383460022490562
:10428000B0D55B4606930823059343460493102359
:1042900003930023029316AB019200932A004B462E
:1042A00021000898FFF7A6F8534605000136099348
:1042B000ADE513789C46002B00D1F7E202235B4268
:1042C00037E7202302009A43472A04D180231B01A9
:1042D000194302239843452801D12023194307227B
:1042E000099B0491073393430A9A190003924246AB
:1042F00002920CC908980092019309912A004B463A
:104300002100FFF76DF90136050080E510230C93BD
:104310000C230A009A430B924B0503D501230B9AF9
:104320009A430B92692800D127E6642800D124E63D
:104330000B9A802311009B0019408B461A4200D033
:1043400066E1802311005B0019408A461A4200D0C2
:1043500039E213005B0600D53CE113001B0600D4D4
:10436000A6E2099B04CB1204120C934609935B4608
:10437000002B00D09AE10B9A1033110099430B9156
:10438000520500D492E100239A460B9B06930A9BA8
:104390000593434604930C9B039300230CE12023D5
:1043A000194360E6099B0A9A5B1B98464B46914667
:1043B0001F00B2462600089C2A003B003100A0479F
:1043C00043460135585D0028F6D14A463400B946C7
:1043D00056460A92F5E6C0239B00B0781943023690
:1043E0005DE5C023B0781943023658E50C230A0076
:1043F0009A4314331A43103B0B920C934B058DD404
:1044000096E7A14634005646DBE60A9A012A00D810
:1044100053E26B1E9F18089BB04626004C469946F7
:104420002A002300013531002020C847BD42F7D1C2
:10443000A14634004646099B3A0001CB210098462C
:104440007D1C4B46089FC0B2B847434601360993CE
:10445000DDE40B9B0A99A846994200D8B5E68C4644
:104460006544ED1A089B4746B04626004C469946DF
:104470003A002300013731002020C847AF42F7D16E
:10448000A14634004646A0E60B9A0A98531C904277
:1044900000D814E243199B1A1F00089BB24626005D
:1044A0004C4699462A002300013531002020C84798
:1044B000BD42F7D10A9BA14601330B93099B3400FF
:1044C0001B7856469C466046002800D058E67CE69D
:1044D0000722099B07339343013294469C4462466A
:1044E0005F6809921A68FB1710931193109811993D
:1044F000030053400E930B007B400F9394460E9A9B
:104500000F9B121A8B410E920F93FB0F6246129370
:1045100000233A439B463DD00B9A6123920600D577
:1045200041230022DBB20EA90A3B8C4692460D9332
:1045300043461F3262441395159655460E9E0F9FB3
:10454000A24690460C9C14930CE03032D2B2434603
:1045500001355A55BB4500D18AE1202D00D18AE1B1
:1045600006000F00220000233000390000F09AFA04
:10457000D2B2092AE9D90D9B9C466244D2B2E6E741
:10458000FF23099904C913401A00099117E5C04691
:10459000553300100B9A1033110099430B915205BB
:1045A000BAD500239A460B9B06930A9B0593434674
:1045B00004930C9B0393129B02935346019316ABF7
:1045C0002A00009321004B460898FEF713FF01369E
:1045D00005001CE4FF22099B02CB11408B46099386
:1045E000C5E65346454609930136FFF710FC56468B
:1045F0005C46AA46139DD6E708230C930B910B99B2
:10460000642800D084E60B9B5B0500D586E6B4E405
:104610000722099B07339343013294469C44624628
:1046200009921A685B6810009B4613005A461343B0
:1046300007D10B9A1033110099430B91520500D505
:10464000A1E60B9A6123920600D541230022DBB23A
:104650000EA90A3B8C4692460D9343461F32624494
:104660005F461295A34655460400B24690460C9EFE
:1046700013930DE03032D2B2434601355A55002330
:10468000BB4200D100E1202D00D100E104000F0069
:10469000320000232000390000F004FAD2B2092AC7
:1046A000E8D90D9B9C466244D2B2E5E70B9A6123A0
:1046B000920600D54123DBB20EA90A3B1F228C468D
:1046C0000D93230062445C461295170055469B46A5
:1046D000B2460C9E08E03033DBB201357B55B44264
:1046E0000ED3202D0CD004003100200000F09CF9E6
:1046F000CBB20929EFD90D9A94466344DBB2ECE7BB
:1047000056465C46AA46129D3FE6099B1A0008CA17
:10471000D91713925A184A409246DA0F1292002B78
:1047200008D1802310220B99DB000B4091430B91A1
:10473000002B2BD10B9A6123920600D541230EAAA0
:104740001F279446DBB20A3B0D9567445D460993EB
:10475000A3465446B2460C9E08E03033DBB2013526
:104760007B55B4420ED3202D0CD004003100200024
:1047700000F05AF9CBB20929EFD9099A944663445B
:10478000DBB2ECE756465C46AB460D9D0B9B2A0020
:1047900006930A9B21000593434604930C9B0898BB
:1047A0000393129B013602935B46019316AB009371
:1047B0004B46FEF71FFE139B05000993FFF727FBEF
:1047C00002230C931AE7099B04CB92461293002A0A
:1047D00008D1802310220B99DB000B4091430B91F1
:1047E000002B2BD10B9A6123920600D541230EAAF0
:1047F0001F279446DBB20A3B0D9567445D4609933B
:10480000A3465446B2460C9E08E03033DBB2013575
:104810007B55B4420ED3202D0CD004003100200073
:1048200000F002F9CBB20929EFD9099A9446634402
:10483000DBB2ECE756465C46AB460D9D0B9B2A006F
:1048400006930A9B21000593434604930C9B08980A
:104850000393002302935B46019316AB00934B46F0
:10486000FEF7C8FD129B050009930136FFF7CFFA4A
:10487000B44200D871E6149B54460E960F97AA4690
:104880009846159E139D8EE6A64200D8FBE6139B24
:1048900056469846AA465C46129D76E508C9D81742
:1048A0001A1842400991FFF78AFB00230B9350E44A
:1048B000099B04CB9346099359E52F00BBE50B9365
:1048C00001E6063B0C939AE600B585B00391012101
:1048D00002900093034813004A4202A9FFF772FABC
:1048E00005B000BDD13500100FB410B50C4984B02F
:1048F00006AA08CA0C680392002C0BD00092012271
:104900000848524202A9A047012004B010BC08BCCC
:1049100004B01847180000F08FFE0020F5E7C046ED
:10492000C01F0020C135001010B5094A03001468EB
:1049300084B0002C08D0012200910648524203A9FD
:10494000A047012004B010BD00F076FE0020F9E77A
:10495000C01F0020C135001001480421014B184739
:104960005007002095490010014B9B681847000034
:1049700050070020142310B50100188804331B8849
:10498000984710BD162310B50100188802331B8804
:10499000984710BDF8B54746CE4680B50F1E19D0D2
:1049A00014239946043304000025012698464B46FB
:1049B0001888434621681B88984701C4431E9841C4
:1049C000013540420640AF42F1D13000C0BCB9468B
:1049D000B046F8BD0126F8E7124A936F9B0815D23E
:1049E0009066D166002905D0FFE7FFE7FFE7516F2A
:1049F000106F704704B580210906C2175140002886
:104A000000D0C84307F0F8FC002104BDF0B5146ED7
:104A1000556E576F166FFFF7E3FF146655665767BD
:104A20001667F0BD000000D0114A936F9B0813D2A7
:104A300010665166002905D0FFE7FFE7FFE7516FD9
:104A4000106F704704B5002801D00020C04307F064
:104A5000D3FC002104BDC046F0B5146E556E576FEF
:104A6000166FFFF7E5FF1466556657671667F0BDCA
:104A7000000000D094464A4A926F9208624601D2E2
:104A800028E0C046F0B5464E346E756E776F366FCF
:104A900000F020F89446424A146655665767166738
:104AA0006246F0BD94463E4A926F9208624601D239
:104AB00054E0C046F0B53A4E346E756E776F366F7F
:104AC00000F04CF89446364A1466556657671667E8
:104AD0006246F0BD002B24DB11D000293EDA00B580
:104AE000C943404200D1013100F038F8C943404287
:104AF00000D10131DB43524200D1013300BD002A15
:104B0000EBD1002801D1002905D00020C90FC90729
:104B100001D1C043410800B507F056FC0022002334
:104B200000BD00B500290ADBDB43524200D101334E
:104B300000F014F8C943404200D1013100BDC9431F
:104B4000404200D10131DB43524200D1013300F039
:104B500005F8DB43524200D1013300BD002923D1C7
:104B6000002B18D1002A0CD0BC460D4F38667A664F
:104B700000210023FFE7FFE7FFE77A6F386F674602
:104B80007047002801D00748010000B507F01CFC61
:104B90000022002300BD02000B000020002170470E
:104BA000000000D0FFFFFFFF002B00D0BFE0130C80
:104BB00028D1002AE7D080B4114F39667A66FFE722
:104BC000FFE730B4040C7B6F396F1B0423433B6653
:104BD0007A66FFE7FFE7FFE7C04684B27B6F3D6F71
:104BE0001B0423433B667A66FFE7FFE7C0460023CA
:104BF0002C042D0C7A6F386F00196941B0BC7047D6
:104C0000000000D0F0B594460025140E01D1120228
:104C10000835140F01D112010435940F01D192000F
:104C20000235D40F01D152000135D40B0134254F88
:104C30007C66254C3C660E0C93B2FFE7FFE7FFE76E
:104C40003C6F6643360C7703BE467343DF0B5B0451
:104C5000C01AB941130C7343DB18C91ACE08664356
:104C6000360CB64493B273431F0F1B01C01AB941EF
:104C7000130C73431F0B1B05C01AB941860D8F021D
:104C80003E436643360C092D24DB520A7243801AD8
:104C90007703460A6643360C16235B1BDE40DF4073
:104CA000BF1964466643821B704604350633010013
:104CB000D940A840C01900D30131A24206D2002336
:104CC000F0BD0000000000D0FFFFFFFF121B01300D
:104CD000F3D3F1E709277F1BFE406446A2B272437B
:104CE000801A00D20139220C7243130C1204821A6A
:104CF00099410B007046043513370100F940A84074
:104D0000801900D30131002B02D1A2420AD2F0BD9A
:104D1000013000D30131121BFAD2013BF8D1A2427B
:104D200000D2F0BD013000D30131121BF7E7F0B51E
:104D30001C0C00D080E00CB400251C0A04D11B021E
:104D4000160E3343120208351C0B04D11B01160F3B
:104D50003343120104359C0B04D19B00960F33435F
:104D600092000235DC0B02D192185B4101351C0028
:104D7000971864410134464F7C66464C3C660E0CE5
:104D8000FFE7FFE7FFE7C0463C6F6643360C77035B
:104D9000BE4697B27743C01B00D20139C01B00D278
:104DA00001399FB27743C91BC91B170C77437E0497
:104DB000FF0B801BB941CE086643360C0C2D33DB4C
:104DC000B644120B1F053A431B0B97B27743C01B27
:104DD00000D201399FB27743C91B170C77433E04B9
:104DE0003F0C801BB941860D8F023E436643292745
:104DF0007F1BFE400C3D7746AF40BF1930BCA2B2CE
:104E0000ABB272437343801A9941220C7243130C64
:104E10001204801A994102000B000137001BA941BE
:104E2000F9D2781E0021F0BD0C277F1BFE4077468B
:104E30007F0BAF40FF19E0E700245D1C07D0144F43
:104E40007D663966FFE7FFE7FFE7FFE73C6F95B256
:104E50009EB265436643401BB141150C1E0C654371
:104E6000664336042F0C3E432D04401BB14199424A
:104E700004D202000B0020000021F0BD01D19042BD
:104E8000F7D3801A994101349942F2D3F6E7000032
:104E9000000000D0FFFFFFFF48404140484018B4E9
:104EA000134B5B68019308BD18B4114B1B68019349
:104EB00008BD94460F4A926F920805D2624618B414
:104EC0000B4BDB68019308BD0A4AF0B5146E556EB2
:104ED000576F166F6246FFF7F2FF064A1466556673
:104EE00057671667F0BD18B4014B9B68019308BD66
:104EF000C8120020000000D0FFB550404240504092
:104F000059404B40594000E0FFB5154F4C00640D2F
:104F100003D0BC4204D10C0314D80020090D0905AC
:104F20005C00640D03D0BC4204D11C030AD80022EB
:104F30001B0D1B0501264B4009D44B4003D58B426A
:104F400000D18242FFBD9942FCD19042FFBD0B438C
:104F5000DB1803431343F5D0C9434918FFBD0000D4
:104F6000FF07000000B5FFF7CFFF01D0002000BD14
:104F7000012000BD00B5FFF7C7FF804100BDC0465E
:104F800000B5FFF7C1FF01D9002000BD012000BD21
:104F900000B5FFF7B1FF01D9002000BD012000BD21
:104FA00000B5FFF7A9FF804100BD012040054A0080
:104FB000121804D85A00121801D800207047012096
:104FC00070470020704700000021002805D170477D
:104FD000C1174840401AFAD0C90713B5064B1B68E1
:104FE00098470CBC441CA2401005120B0349091B36
:104FF00009051943114310BD1C2000201F040000A7
:1050000010B54C00620D8023D218DB00D21A5B056C
:105010007E2A10DD9E3A13DACC170903490819439A
:105020005242D140640001341532202A05DAD040C2
:105030000843604310BD002010BD0846604310BD0A
:10504000C80FC018013810BD18B4024B5B6A019339
:1050500008BD0000C812002018B4024BDB6D01939C
:1050600008BD0000C8120020C94211D300B5490094
:105070004908002200F014F8002904D4002240421C
:105080008A41114600BD80210906002000BD0000B4
:1050900018B4024BDB6E019308BD0000C81200205B
:1050A00018B4024B9B6F019308BD0000C81200208A
:1050B00018B4024BDB6F019308BD0000C81200203A
:1050C00010B50148FEF728F940C80010132370B549
:1050D0001D78012D11D035DD1C48FFF753FC1C4C09
:1050E00001008022200000F043F9022D27D019484A
:1050F000FFF740FC184B186070BD184B144C236030
:105100006360A360E36023616361A361E361236281
:105110006362A362E36223636363A363E363236461
:105120006364A364E36423656365A365E365236641
:105130006366A366E36623676367A367E367084B59
:10514000A364D4E7024C064BA364D0E753440000A9
:10515000C81200204C3300001C200020C150001059
:105160006551001007B5604601880A0A0230DF2A3F
:10517000FAD1C9B2820804D30288408800041043DF
:1051800000E00068014A5050039007BDC81200209B
:1051900051434343C9188C46110C83B24B4310B49E
:1051A000040C614392B280B2504362431C041B0C56
:1051B000001910BC59411304120CC018514161442C
:1051C000704700004840414048400E4B5B6818471C
:1051D0000C4B1B6818470C4A936F9B0802D2094B73
:1051E000DB681847F0B5146E556E576F166FFFF7F2
:1051F000F6FF054A1466556657671667F0BD014B02
:105200009B68184720200020000000D007B54840C8
:105210004140484001E0C04607B54200120E03D0AD
:10522000FF2A03D1420218D8C00DC0054A00120E51
:1052300003D0FF2A03D14A020FD8C90DC9050122A4
:10524000414005D4414001D5814207BD884207BD98
:105250000143491801D0C043001807BD00B5FFF74E
:10526000DBFF01D0002000BD012000BD491A00284D
:1052700008D1084670470000C10FC90700D5404259
:10528000002817D0F44603B40B4B1B68984706BCA4
:1052900081409E384042803107D20B0607D049003A
:1052A000490AC0051043084360470130F8E7490A3E
:1052B0008902F5E7704700001C200020014B5B6A63
:1052C0001847000020200020014BDB6F184700002A
:1052D00020200020014B9B6918470000202000205F
:1052E000014B9B6D184700002020002010B501489D
:1052F000FEF712F8A0C90010132310B510481C784F
:10530000FFF740FB0100012C0AD003DD80220D488D
:1053100000F02EF80C48FFF72DFB0C4B186010BD69
:10532000084C5422200000F023F82300084A803360
:105330002168002900D122600434A342F8D1E9E7B2
:1053400053460000202000204C3300001C20002089
:10535000ED52001001480421014B1847600700205E
:1053600095490010014B1B6818470000600700209A
:10537000014B5B681847000060070020030010B570
:10538000080011001B68984710BDC046F0B546469E
:105390004F46D646C0B5437D80460E001700002B11
:1053A00046D0002A3FDD4B1E9946244B01250024A0
:1053B00000209A460DE04B461B5D0D3B5A4253417F
:1053C000325DDBB20A2A0BD02B00013401359F423B
:1053D0001ADD002CEFD14346325D1B7D0A2AF3D142
:1053E000002BF1D1A04204DA4346211A1B68301881
:1053F0009847434650461B680221984701342800CD
:105400002B0001359F42E4DC874204DD4346391A14
:105410001B6830189847F619013E33780D3B5A4205
:10542000534142461375E0BCBA46B146A846F0BDAA
:105430000368110030009847F5E7C046B4C8001073
:10544000F0B5C6460C000968060000B5802906D0F4
:105450004B1C23606418267180BCB846F0BD0F4B0E
:105460001D68002D16D0231D98460D4F02E02D69B2
:10547000002D0FD02B68002BF9D03B68002B01D0FA
:10548000AB42F4D1280041462268FFF77FFF2D6927
:10549000002DEFD101230021DBE7C046FC1E0020D8
:1054A0006C1F0020F0B5DE4657464E464546E0B537
:1054B00085B017001C0006000D00FDF725F800233D
:1054C000304A12184B41002B58DB2F4908008A46FE
:1054D00006F0B2FF01906B1C03D1300004F026FCF3
:1054E0000500002C25D1294B9846294B1C68002C1F
:1054F00015D0002F20D1274F02E02469002C0ED0B8
:105500002368002BF9D03B68002B01D0A342F4D1D3
:1055100020002A003100C0472469002CF0D1019BF3
:10552000002B27D105B0F0BCBB46B246A946A04629
:10553000F0BD194B9846D8E7164B994602ABDF1DD4
:105540000A239B4602E02469002CE8D02368002B44
:10555000F9D04B461B68002B01D0A342F3D12A009F
:1055600031002000C0475B460122390020003B701B
:10557000C047E8E7504606F01FFFD3E70122074B7C
:105580005242A2E740420F00601100208D530010EC
:10559000FC1E00206C1F00207D530010FFFFFF7FCA
:1055A000F0B5CE46474680B583B06B460600DD1D9C
:1055B0002870FCF7A9FF00231A4A12184B41002B50
:1055C0002BDB19490800884606F036FF174B814649
:1055D0001C68002C14D0164F02E02469002C0FD058
:1055E0002368002BF9D03B68002B01D0A342F4D1F3
:1055F000200001222900FFF7C9FE2469002CEFD109
:105600004B46002B05D1300003B0C0BCB946B046B4
:10561000F0BD404606F0D0FEF5E70122054B5242B0
:10562000CFE7C04640420F0060110020FC1E002062
:105630006C1F0020FFFFFF7F70B5040004F076FBB5
:1056400000230100050001222000FFF72BFF084B7B
:105650001C68002C06D06368002B05D0984724698D
:10566000002CF8D1280070BD2469002CF3D1F9E793
:10567000FC1E00200A4A1368002B05D10CE01A001A
:105680001B691032002B07D09842F8D1002902D1B3
:1056900003691360016170470029FCD01060FAE7CC
:1056A000FC1E0020F0B5CE46474680B5A5B00400EC
:1056B0000D00FCF729FF00232A4A12184B41002B4A
:1056C00049DB294E300006F0B7FE002307000393A4
:1056D00022002B00254803A9FFF7F6F8039B80461C
:1056E000002B14D1224B1C68002C06D06368002BC1
:1056F0000BD098472469002CF8D1002F27D14046C1
:1057000025B0C0BCB946B046F0BD2469ECE7184BE3
:105710001D689946002D22D0164C02E02D69002DFF
:1057200011D02B68002BF9D02368002B01D09D42AB
:10573000F4D1039B28001A0004A90193FFF726FE69
:105740002D69002DEDD14B4603951C68CCE7300048
:1057500006F032FED3E70122074B5242B1E7039530
:10576000CBE7C04640420F006011002041540010BA
:10577000FC1E00206C1F0020FFFFFF7F0FB400B550
:1057800083B004A901C90191FFF78CFF03B008BCE5
:1057900004B0184710B500F0C5F8012010BDC04690
:1057A000F0B50D1E15DD0E4B0D271A680D4B451972
:1057B000D31859424B410C495B005E5E20210478AE
:1057C000A64207D093691942FCD101301460A84267
:1057D000F5D1F0BD93691942FCD11760F2E7C046DC
:1057E000382100200080FCBF3421002030B50400A7
:1057F0000D1E26DD002010211B4B013C1A68936909
:10580000194219D1013093691942FCD1136823540C
:105810008542F4D1154B1B68002B0CD050239363A9
:10582000516B183B34320B401100802252010A4365
:105830001360002815D030BD0C4B1B68002BEDD138
:10584000F7E70A4B1B68002B0BD050223821064B80
:105850001B689A635A6B3433114080225201134300
:10586000196003204042E6E738210020941500200B
:10587000064B10B51B68002B06D00021044A1268A5
:105880009163044A1068984710BDC04694150020E3
:1058900038210020981500201D4BF0B51A68C64627
:1058A00098461C4B0E00D31859424B411A4F1433E3
:1058B0001C00050000B53B68002807D0002B11D064
:1058C000164B3D601E6080BCB846F0BD002BF7D083
:1058D000906300212000FBF709FF20001049FCF72E
:1058E00045F8EDE720000E49FBF722FF01212000DB
:1058F000FBF7FCFE4346502238211B689A635A6B23
:10590000343311408022520113431960D8E7C04656
:10591000382100200080FCBF94150020981500203D
:10592000715800100C4B10B51B780C4B0C4C1B78AD
:105930000C4B022100202360FBF756FD02210120C1
:10594000FBF752FDE12120684902FDF7C9F801216A
:105950000548FFF78FFE10BDA4460410A8460410AA
:10596000382100200040034070070020F0B5574662
:105970008246484B454653445A4253418022DE46B4
:105980004E46920294465B42E0B51B0C424A1B0411
:1059900063441360414A0D00414985B0136018000B
:1059A0008A689043FBD181460620FDF791FB534660
:1059B0005A6802231A4001925246043211000292A0
:1059C000C02280468020920111430B600391EF0DAD
:1059D00002216E02AB0DAA02400005E0904507D3FC
:1059E00092197B4181424FD00C000231002BF5D03F
:1059F0002B008026270245463F1BA04676001C0050
:105A000003E04346FF1A012E40D039002800B34678
:105A1000013EFFF709F88442F3D244465946330267
:105A2000A8469946614353464A461C611B68504646
:105A30005340FF221202134080225201024313609E
:105A40008023029C01989B011C4320600225504644
:105A5000039E4068356056460727366828407740E1
:105A6000CF263E4016602060504624301843032362
:105A7000036040462560FEF7D7FF05B0F0BCBB468B
:105A8000B246A946A046F0BD0C00B1E74446190055
:105A9000A846C8E70040FCBF00E0004000F000401E
:105AA00000C00040014B18607047C04648140020F9
:105AB00010B50A000100024803F01EF810BDC046F0
:105AC000D0150020014B18687047C04648140020CC
:105AD00010B582B0FFF7F6FF002807D003F0C6FA32
