:020000041000EA
:1000000000B5324B212058609868022188439860DF
:10001000D860186158612E4B002199600221596106
:100020000121F02299502B49196001219960352056
:1000300000F044F80222904214D00621196600F024
:1000400034F8196E01211966002018661A6600F04E
:100050002CF8196E196E196E052000F02FF8012189
:100060000842F9D1002199601B49196000215960AB
:100070001A491B48016001219960EB211966A021F2
:10008000196600F012F800219960164914480160C1
:100090000121996001BC002800D000471248134993
:1000A000086003C880F30888084703B5996A0420EC
:1000B0000142FBD001200142F8D103BD02B5186610
:1000C0001866FFF7F2FF186E186E02BD00000240BE
:1000D000000000180000070000035F00212200005C
:1000E000F4000018222000A00001001008ED00E03C
:1000F00000000000000000000000000074B24E7A12
:1001000000200420F7010010C3010010C5010010F9
:10011000C1010010C1010010C1010010C101001097
:10012000C1010010C1010010C1010010C701001081
:10013000C1010010C1010010C9010010CB01001065
:10014000CD010010CD010010CD010010CD01001037
:10015000CD010010CD010010CD010010CD01001027
:10016000CD010010CD010010CD010010CD01001017
:10017000CD010010CD010010CD010010CD01001007
:10018000CD010010CD010010CD010010CD010010F7
:10019000CD010010CD010010CD010010CD010010E7
:1001A000CD010010CD010010CD010010CD010010D7
:1001B000CD010010CD010010CD010010CD010010C7
:1001C00000BE00BE00BE00BE00BE00BEEFF3058054
:1001D000103800BEF2EB8871EC12041010130410FA
:1001E0003402001090A31AE700201F49086006C8D7
:1001F00081F3088810471D48006800282FD10DA4FE
:100200000ECC002902D000F012F8F9E71849194A7B
:10021000002000E001C19142FCD1174988471749ED
:1002200088471749884700BEFDE701C901C29A42C5
:10023000FBD3704710130410C0000020100B0020E7
:10024000601D04100000042000000420601D041044
:10025000001004200010042000000000704709482E
:1002600004F090F90047000008ED00E0000000D025
:10027000100B0020D81900206D2E001075040010FE
:10028000612F00105756000006005250ABB3605368
:10029000E898001006005250861C0302F8980010DF
:1002A000060052505422A29DFC98001005005250A6
:1002B000DE65F468601D0410F8B5C04610B5064C44
:1002C0002378002B07D1054B002B02D0044800E017
:1002D00000BF0123237010BD580D00200000000056
:1002E00060950010044B10B5002B03D0034904485F
:1002F00000E000BF10BDC046000000005C0D002003
:100300006095001070B510212024104B104A002673
:100310009E5F10489369194211D193691942FCD12B
:10032000156883691C42F5D1FF231D40AE4207D0FA
:1003300083691C42FCD1056093691942EDD070BD00
:1003400083691C42FCD10D230360F1E7C41900202E
:100350000080034000400340F0B5184C85B0A3690D
:10036000DB0612D41025A3691D42FCD12368DBB241
:100370001A00303A092A0AD811490A68501C086044
:1003800001A98B54A3691D42EDD005B0F0BD0A2B25
:1003900001D00D2BF6D10027094E01A83368C754B0
:1003A00008F046FF04F014FC064B002204F089FB21
:1003B00004F052FC044B18603760E3E70040034050
:1003C000A80E002000005940C019002070B5E1259A
:1003D000114C6D022900200002F0DEF902210C20F0
:1003E00000F05EFE02210D2000F05AFE29002000E0
:1003F00002F096FAC022236B12021340074A200033
:10040000136008210023012202F0E6FA00212000F7
:1004100002F020FB70BDC046004003403050034056
:1004200070B59625114CAD012900200002F0B4F9F9
:100430000221042000F034FE0221052000F030FEED
:100440002900200002F06CFAC022236B1202134034
:10045000074A2000136008210023012202F0BCFAA1
:100460000021200002F0F6FA70BDC0460080034073
:1004700030900340F0B5C6465025382400B598B0FA
:1004800004F020FFFFF7A2FF1420734900F0ACFF37
:100490000121142000F086FF704B714A9D635B6B55
:1004A00023401360FFF7BCFF15206E4900F09CFF4E
:1004B0000121152000F076FF6B4B9D635B6B1C40A8
:1004C0006A4B1C6005F09CF8002800D0BBE00121BD
:1004D00005F086F80723664E0422052130000093BC
:1004E000013B00F0E3F8634804F03EFE32213000A7
:1004F00000F040FA3221300000F08CFA306904F04C
:1005000087FC0400B0690D0004F082FC02900391A6
:10051000706904F07DFC22002B0000900191564888
:1005200004F0C4FE0AA90A00544B370031CB31C293
:100530001B68534C1360534A534B200002920393A1
:10054000504A524B283700920193514B322200F00F
:10055000BDFA504804F008FE200000F059FB4E4D53
:10056000280004F0A3FE4D4804F0FEFD200000F03A
:100570007FFC280004F09AFE49490EA800F042FDD5
:10058000474913A800F03EFD0121002005F028F89E
:10059000322001F027FD0021080005F021F832206B
:1005A00001F020FD0121002005F01AF834239846BF
:1005B0003C4DB044300000F0C1F8390004AA0EA848
:1005C00000F026FD07AA414613A800F021FD286887
:1005D00004F01EFC2B4A2C4B04F06EFA0B00002199
:1005E00002000091200000F0ADFC286804F010FC2F
:1005F000244A254B04F060FA0B000121020000910F
:10060000200000F09FFC286804F002FC1D4A1E4BED
:1006100004F052FA0B00022102000091200000F0C9
:1006200091FC286804F0F4FB164A174B04F044FAD6
:100630000B00032102000091200000F083FC0A203F
:1006400001F0D0FCB6E7184804F030FE012040422B
:1006500018B080BCB846F0BD5903001000400340FC
:1006600034500340050300100080034034900340E1
:100670003C180020749500109C950010F89500100F
:10068000241800209A9999999999B93F9999A93F65
:10069000A0860100CC950010E0950010E8950010B0
:1006A000CDCC4C3EC019002060950010F0B5C64678
:1006B00017001C0000B51F4B82B00E0005001E493C
:1006C0001800984604F0EAFE3800012100F0E8FC2A
:1006D00020000124012100F0E3FC0121089800F032
:1006E000DFFC300000F07CFD2300D027B3403F0644
:1006F0007B627B616C2301A9FF336E640B80C04673
:10070000C046C04623006A6C9340BB61C046C046E9
:10071000C0460222404608F0FBFEC046C046C04626
:100720006B6C9C407C61C046C046C04602B080BC39
:10073000B846F0BD00C00340A0860100F0B5DE461B
:1007400057464E464546E0B585B0BB236A46040091
:10075000D371C046C046C04601263300426CD02744
:1007600093403F06BB61C046C046C0467C4B012259
:1007700098466B464046D91D08F0CAFE02AD0A20D5
:10078000002101F01DFC06232A000021404608F04C
:100790008FFEC046C046C0463300626C93407B610A
:1007A000C046C046C0460A20002101F009FC2B8843
:1007B0006A465BBAE3806B885BBA2381AB885BBA1D
:1007C0006381C323D371C046C046C0463300626C08
:1007D0009340BB61C046C046C0466B460122D91D4E
:1007E000404608F095FE0A20002101F0E9FB0623AF
:1007F0002A000021404608F05BFEC046C046C046C5
:100800003300626C93407B61C046C046C0460A20FC
:10081000002101F0D5FB2B886A465BBA23806B88E8
:100820005BBA6380AB885BBAA380C123D371C04637
:10083000C046C0463300626C9340BB61C046C046B0
:10084000C0466B460122D91D404608F061FE0A20D1
:10085000002101F0B5FB02232A000021404608F0E8
:1008600027FEC046C046C046636C9E407E61C046BF
:10087000C046C04600210A2001F0A2FB2B885ABACC
:10088000DBBA9B46A2810023E05E04F099FA354969
:1008900004F075FA8246A0620623E05E04F090FA46
:1008A000E221890504F07FFA814660630223E05E5D
:1008B00004F086FA2B4904F062FA8046E0620823CD
:1008C000E05E04F07DFAE221890504F06CFA071C71
:1008D000A0630423E05E04F073FA224904F04FFAA7
:1008E000061C20630A23E05E04F06AFAE22189050F
:1008F00004F059FA051CE063584604F069F91A4AF5
:100900001A4B04F0DEF80022194B04F0D5F804F07D
:10091000A3F921692064504604F02BFAE169A06232
:10092000484604F026FA61696063404604F021FA03
:10093000216AE062381C04F01CFAA063A169301C33
:1009400004F017FA616A2063281C04F012FAE063CD
:1009500005B0F0BCBB46B246A946A046F0BDC046B5
:1009600000C003400000034352B81E85EBDD744015
:1009700000003540F8B54E4645465746DE46E0B5E0
:100980006A464B005B189B000733DB08DB00D31A79
:1009900000AF9D460023E94605000E1E4C469846D2
:1009A0000EDD2800FFF7CAFEAB6A2360EB6A6360C6
:1009B0002B6BA36001239C46E0440C344645F0D1E8
:1009C000300004F0FDF910239A460C339846834614
:1009D000AA44A8440020002E09DD4D460020002432
:1009E0002968013404F0C8F90C35A642F8D15946FB
:1009F00004F0C5F9534601C39A4604239C46E144DA
:100A0000C245E7D1BD46F0BCBB46B246A946A046AA
:100A1000F8BDC046F0B54546DE4657464E46E0B501
:100A200083B06A464B005B189B000733DB08DB0092
:100A3000D31A00AF9D46EB4680460E005C4600256B
:100A400000290FDD4046FFF779FE43465B6B013519
:100A5000236043469B6B63604346DB6BA3600C34AF
:100A6000AE42EFD1300004F0ABF900238246994644
:100A70001C3343447B600020002E0ADD5D460020CD
:100A800000244D442968013404F076F90C35A6425F
:100A9000F8D14B465146082B08D004F070F94A466D
:100AA0007B68985004239C46E144E4E704F067F92E
:100AB000FE21890504F05DF94346BD46586203B046
:100AC000F0BCBB46B246A946A046F0BDF0B5DE4636
:100AD00057464E464546E0B5814685B018009046DB
:100AE0001F000E0004F070F80E9A0F9B04000D001A
:100AF00004F001F804F0A8F84B4629001880109A79
:100B0000119B200003F0F7FF04F09EF84B4658803D
:100B100043467B433F0401933B0C039304234B4424
:100B2000984614234B44029307239B46063B9A4660
:100B3000434630680421186000F0B2FA336805209B
:100B40005C085B461C4002F01FF9019903F074FD3C
:100B500004F030F9071C04F055F9C5B2280004F080
:100B60002FF9011C381C04F004F98321C90504F095
:100B70001AF904F047F9A2001F491319C0B29B00EB
:100B80002D01054359180D601C498C460399634497
:100B900019605B4631684808184083001B181848E4
:100BA0009B008446484605885046634408421FD14E
:100BB00014491868121968400840802149010B4304
:100BC0001860114B50469C469200624413680A43D9
:100BD000984304239C46029BE044106004369845E9
:100BE000A6D105B0F0BCBB46B246A946A046F0BDB2
:100BF00006492D04DDE7C04604000540100005400D
:100C00000C000540FFFF0000000005400000FFFF52
:100C100070B5028804004068110405076D0FAB0031
:100C20005B198F4D9B00AC466344C00700D4F6E0CF
:100C300008008C4D1E687040054080204001034331
:100C40001D60A06805076D0FAB005B19844D9B000C
:100C5000AC466344C00700D4FFE00800814D1E6825
:100C6000704005408020400103431D60E068050797
:100C70006D0FAB005B197A4D9B00AC466344C00717
:100C800000D4E7E00800774D1E68704005408020E2
:100C9000400103431D60206905076D0FAB005B1920
:100CA0006F4D9B00AC466344C00700D4D0E00A00FF
:100CB0006C49186842400A40802149010B431A6080
:100CC0006068618805076D0FAB005B19644D9B0080
:100CD000AC460A046344C00700D5B6E00800624D84
:100CE0001E68704005408020400103431D60A068DD
:100CF00005076D0FAB005B19594D9B00AC46634473
:100D0000C00700D59EE00800574D1E6870400540A2
:100D10008020400103431D60E06805076D0FAB00B4
:100D20005B194F4D9B00AC466344C00700D586E07D
:100D300008004D4D1E68704005408020400103436F
:100D40001D60206905076D0FAB005B19444D9B00CA
:100D5000AC466344C00700D56FE00A0042491868FA
:100D600042400A40802149010B431A603F4801F08C
:100D700039F96068218805076D0FAB005B19384DA4
:100D80009B00AC460A046344C00753D40800364DA8
:100D90001E68704005408020400103431D60A0682C
:100DA00005076D0FAB005B192D4D9B00AC466344EE
:100DB000C0073CD408002C4D1E68704005408020C0
:100DC000400103431D60E06805076D0FAB005B1930
:100DD000234D9B00AC466344C00725D40800224D38
:100DE0001E68704005408020400103431D60246957
:100DF0002007400F83001B1819489B00844663445A
:100E0000E0070FD40A001849186842400A408021C0
:100E100049010B4315481A6001F0E4F870BD100059
:100E2000114D07E70F49EFE710000E4DD8E710000E
:100E30000C4DC1E710000B4DAAE70A498FE71000DF
:100E4000084D77E71000074D5FE71000054D47E7B5
:100E500005492EE71000044D16E71000024DFEE68E
:100E60000C0005400000FFFFFFFF0000B80B000072
:100E700070B54468028825076D0FAB005B192E4DD5
:100E80009B00AC4611046344E4074AD50C002B4D8B
:100E90001E68744025408024640123431D608468DB
:100EA00025076D0FAB005B19234D9B00AC466344D7
:100EB000E4073ED50C00214D1E6874402540802477
:100EC000640123431D60C3681C07640FA3001B1942
:100ED000194C9B00A446C4686344E40726D50C0063
:100EE000164D1E68744025408024640123431D6014
:100EF00004692007400F83001B180F489B0084469D
:100F00006344E00710D50A000C49186842400A40C3
:100F10008021FA2049010B431A60400001F062F879
:100F200070BD1400064DB3E70549EEE71400044D0B
:100F3000D7E71400024DBFE70C0005400000FFFF9B
:100F4000FFFF0000F8B5474614001D00CE4680465E
:100F500080B5002200232000290003F00BFE0028AA
:100F600044D1002220002900224B03F019FE002862
:100F700001D000241F4D089B032B30D843461F8807
:100F8000089B9B0043445B6899461B075B0F9E00D0
:100F9000F618194BB6009C46434658886644C01B59
:100FA00003F016FE22002B0003F0A5FD040038001C
:100FB0000D0003F00DFE0B0002002900200003F0DD
:100FC0007BFD03F041FE4B4680B2DB070BD40B4B9D
:100FD0003268504080225201034016433360C0BC47
:100FE000B946B046F8BD064B0004F1E700240025E1
:100FF000C1E7C0460000F03F0C000540FFFF0000C5
:101000000000FFFF002301608360C360036170473D
:10101000F0B50368C6460400FE2000B50E00191C9A
:1010200080051500984603F0A4FEA16803F0BBFEFE
:101030003168071C404603F0B6FE011C381C03F063
:101040009BFE2860A060FE2023688005191C98463E
:1010500003F08FFEE16803F0A6FE7168071C4046AE
:1010600003F0A1FE011C381C03F086FE6860E060FE
:10107000FE2023688005191C984603F07AFE21693A
:1010800003F091FEB168071C404603F08CFE011C82
:10109000381C03F071FEA860206180BCB846F0BD2A
:1010A000094A830094464022634410B51C68C0007E
:1010B0006240C02414408022520113431C60034B41
:1010C0009C466044416010BD04C0014000400140A6
:1010D0000A4B80009C4604236044002901D00C2365
:1010E0000821002A00D10B00026853400C221A404C
:1010F00080235B01184302607047C04604C0014072
:10110000084B80009C466044002905D080239B0149
:101110001843022303607047C0239B011843022336
:101120000360F8E704C00140D0231B061B6830B5FC
:101130000500581E83410F485C4284460720302337
:10114000284023408000EC08814020000A4D3C30BC
:1011500063448000A40041511B19002A04D080225E
:1011600092011343196030BDC022920113431960EC
:10117000F9E7C0460041014000400140D023F0B5EE
:10118000C64604001B0698461B680C4F9B00F85887
:101190000D00160000B5044209D1044332002900B5
:1011A000FC500D2000F04AF980BCB846F0BD01F0BB
:1011B000F3FE43461B689B00F858EEE798180020A2
:1011C00010B504000D2000F02DFAD0231B061B687B
:1011D00002499B005A58A2435A5010BD981800204B
:1011E0000123D0228340120693629361094A83004F
:1011F0009446402263441968C0004A40C02111400F
:101200008022520113431960034B9C46052360441E
:101210004360704704C0014000400140024B186821
:101220008007C00F7047C04600C00640EFF3108033
:1012300072B6034A1368002BFCD0BFF35F8F704770
:101240002C0100D0BFF35F8F0022024B1A6080F3A5
:10125000108870472C0100D070B5EFF3108C72B677
:101260000D4D2B68002BFCD0BFF35F8F0724CB08FC
:10127000C618C05C01230C40A3401C00044003427C
:1012800007D103433370BFF35F8F2C608CF310885A
:1012900070BD100001F068FE2C0100D0F8B5474683
:1012A000CE46884680B5EFF3108C72B6214D2C687F
:1012B000002CFCD0BFF35F8F9A422CD8D4080727AC
:1012C000055D061901241740BC402C421FD00721A0
:1012D0000127894609E0D408055D06194C46390006
:1012E0001440A1400C00294211D001329342F2D2A5
:1012F00001204042BFF35F8F00220E4B1A608CF337
:10130000108800280FDBC0BCB946B046F8BD2C439E
:1013100010003470EEE7BFF35F8F00232B608CF377
:101320001088012040424346002BECD0089801F081
:101330001BFEC0462C0100D030B5EFF3108C72B606
:101340000A4C2368002BFCD0BFF35F8F07230122D8
:10135000CD0819408A40435D93434355BFF35F8FE7
:10136000002323608CF3108830BDC0462C0100D0D0
:101370000021044B044ABFF35F8F02C39342FAD1AA
:101380007047C046000100D0800100D0044A1078A8
:10139000431CDBB2172B00D9102313707047C046D3
:1013A000E005002001238340002904D0034A136094
:1013B000034A13607047034A1360FBE780E200E0D2
:1013C00000E100E080E100E001238340014A136076
:1013D0007047C04600E200E0024B10309B6880007E
:1013E000C058704700ED00E070B50D00EFF31086B7
:1013F00072B60F4A1368002BFCD0BFF35F8F0D4B02
:1014000010309B6884001B590B4A934203D09D42C5
:1014100001D001F0C1FD074B9B681D51BFF35F8FE9
:10142000BFF35F8F0022024B1A6086F3108870BDF5
:10143000240100D000ED00E0CD010010F0B55746CA
:101440004E46DE464546E0B585B0060002911700DF
:10145000EFF3108B72B6674A1368002BFCD0BFF312
:101460005F8F0025644B5D579A46002D00DAA4E09B
:101470006B00624C03935B199B009846A146C144E4
:101480004B4652469B79103613705D4BB2009B68F9
:10149000019299580B1B2F2B34D95A4B994200D0EB
:1014A000A4E0039B584A9C46584B6544AD006353E7
:1014B000434602336519E418554B0121043B1B1BBD
:1014C0001B055B0D13436B80524BEF71AB80FF2309
:1014D000AB71029BAB604B460B431900484B019A22
:1014E0009B689950BFF35F8FBFF35F8F0022414B22
:1014F0001A608BF3108805B0F0BCBB46B246A94613
:10150000A046F0BD01200A008243D379BB422FD808
:1015100045464E46130040491B1B5B415943090D8C
:101520003A4B63533A4B02356519043B5B1B1B0571
:10153000354D5B0D2B4373800426B446E044444490
:10154000131F1B1B4C46A17102991B05A160494644
:101550005B0D2B43A380314BE77101431360BDE763
:101560005800C01880002018C679BE422BD902004E
:101570000623D356002BF3DA101D824628488046F6
:1015800004267642B446E14450464E46361A3005AB
:10159000400D824656461C48957106439680039A34
:1015A000944665441D4AAD00641922604246A37109
:1015B000029BA280E771A36090E701F0EDFC00259B
:1015C00053465D5754E7101D82469088400500152C
:1015D00084464046D444664604302018301AE0263B
:1015E0000005400D360230438046C9E701F0D4FCC7
:1015F00057E7C046240100D0D3190020E40500209D
:1016000000ED00E0CD01001000E0FFFF00A1FFFFB2
:101610001406002001BDFFFFAAAA00000148804770
:1016200001BD0000F0B5DE4657464E464546E0B5E2
:101630000C0083B0EFF3108972B6584A1368002B80
:10164000FCD0BFF35F8F564B9A68030010339F00A6
:10165000D559544A9046954232D0A54243D0524E75
:10166000AA1B2F2A2CD801228240924651464F4A6B
:1016700012681140019151464D4A1160BFF35F8FCE
:10168000EFF305829346002A33D101232A009A43BF
:1016900093689C4208D177E04B005B189B00F318DD
:1016A0009968A1422AD01A00062151560029F3DA7E
:1016B000019B002B19D052463E4B1A603B4B1A60DF
:1016C000374B9B68DD51BFF35F8FBFF35F8F002205
:1016D000324B1A6089F3108803B0F0BCBB46B246A7
:1016E000A946A046F0BD1500EAE75246304B1A6005
:1016F000E6E79342C9D001F04FFCC6E706215956F0
:10170000002921DB4A005018800034188046A06868
:101710009860E079D871062020569871002824DB63
:10172000A488F01A6405241544440019E024000537
:10173000400D24022043988052181F4B9200B61887
:101740001A781970B271B3E7594600290FD1FF31E9
:1017500091711A49918018490A789A71184A9B1B0D
:101760005B415A43120D0A70A2E71648E3E7164A96
:101770001649D21A083A5002400D01439980144983
:1017800052080A43DA8093E70621515613000029D4
:10179000B8DA5A46002AEAD14546DCE7240100D0EF
:1017A00000ED00E0CD010010E405002000E100E0C4
:1017B00080E100E080E200E0D319002001BDFFFFDE
:1017C000AAAA000001BD00001E06002000F0FFFFD5
:1017D00000F8FFFF032310B50400074A18409446A1
:1017E000C0009C43FC3383406444226881409A4398
:1017F00013000B43236010BD00E400E070B5EFF36D
:10180000058101240443EFF3108C72B6214A13685A
:10181000002BFCD0BFF35F8F1F4B05001F4AED1A52
:101820006D416A43120D1E4D8900AE6852B2765862
:10183000A6421CD00621595691421CD0122159565D
:10184000914222D01E215956914220D02A21595628
:101850000324914210D0134B19781A708171BFF391
:101860005F8F00220B4B1A608CF3108870BDAB6841
:101870000D4C5C50EFE700246100091989005B18EA
:10188000FF21997109499980E5E70124F4E70224D1
:10189000F2E7C046240100D0E4050020AAAA000017
:1018A00000ED00E0D3190020CD01001001BDFFFFC5
:1018B000054B064A1360064A136053609360D36079
:1018C00013615361936170478080808000E400E081
:1018D00004E400E01F2110B5091A0248FFF72CFDAF
:1018E00010BDC046D519002000B5074B83B00100DC
:1018F0000093002205230548FFF7D0FC002801DBF8
:101900001F23181A03B000BD08960010D519002037
:1019100070B504000E001500FFF738FD010020002F
:1019200000F006F8A680E580BFF35F8F70BDC0466B
:10193000024B9C46614489000160704740000034BE
:1019400010B50400FFF722FD01002000FFF7F0FFB3
:10195000FF232371BFF35F8F10BDC04610B5040095
:10196000FFF714FD01002000FFF7E2FFFF23A38033
:10197000BFF35F8F10BDC04683680B4810B5844627
:1019800061446244090112019A18591854684B685D
:1019900001209C4201D802D00020C0B210BD1268C4
:1019A0000B689A42F9D8F7E7FFFFFF0F0A4B196857
:1019B000EFF3108072B60A68002AFCD0BFF35F8F85
:1019C0001B68BFF35F8F00221A6080F3108840BF4E
:1019D000002000217047C046AC190020F8B55746DA
:1019E0004E464546DE46E0B599460CAB1C780DAB3D
:1019F0001B78060090469A460768002C11D1BC7BE4
:101A0000002C42D065003B682D19033D59194B78D5
:101A1000BB73002B00D1FB7300238B704B700B70DA
:101A200004E065003B682D19033D5919B2682A4B43
:101A300094464246E3181B0163441A604A465A60C2
:101A40000A9A9A600B9ADA6000238B704B700B70C5
:101A50007B7B9B46002B2BD022005946B8687B68C5
:101A600098473A68002816D05B4658465B005B44AE
:101A70005519033BA870D118D35C002B00D06B70B4
:101A80005B460C707B73A34513D0F0BCBB46B246DB
:101A9000A946A046F8BD5B465B005B44033BD318F8
:101AA0009C705119525D002A00D05A705B460B7031
:101AB0007C7342464B46307D00F00CFC051E06D080
:101AC0005346002B03D12100306800F027FE0E9B07
:101AD000002BDAD01D70D8E7FFFFFF0FF0B5DE4610
:101AE00057464E4645460023E0B58BB00893674BFA
:101AF0008200D45800239B46099000F061FB626885
:101B000006000F00EFF3108572B61368002BFCD0AF
:101B1000BFF35F8F23689C465B7B9946002B00D107
:101B200069E0A2685A4B90464B441B0198444346D7
:101B30001A685B6810001900801BB941002900DC9D
:101B400063E0099800F0C6FB0023002298460023BA
:101B50000692079300239A466368BFF35F8F5A4645
:101B60001A6085F310885346002B08D10028C4D191
:101B70000BB0F0BCBB46B246A946A046F0BD089BE0
:101B8000414618024B461843D047626806000F00D2
:101B9000EFF3108572B61368002BFCD0BFF35F8F94
:101BA000002F50DB33003B4302D02369002B61D16F
:101BB0002368D97B002907D04A00521819688C463F
:101BC00049466244033A51709A7B002A01D14A4641
:101BD0009A734A46DA734B46E168013BCA5C0132AC
:101BE000CA545B4623616368BFF35F8F5A461A602D
:101BF00085F3108881E7002300229846002306928F
:101C00000793002300209A46A6E7002902D1002866
:101C100000D096E70021604600F0FEFC43461A68BB
:101C20005B680692079343469B689A464346DB6887
:101C30009846E3684B44013B1B7808931B0203431F
:101C40002361002088E72369002BB1D0069A079B07
:101C5000921BBB41002B15DB5946049101210391D6
:101C60004946029141460191514620000091FFF7FB
:101C7000B5FEB6E700F0A4FA32003B0012184B4163
:101C8000002BE9DA0122034B5242E5E788180020D5
:101C9000FFFFFF0FFFFFFF7F10B5144C6368002BA1
:101CA00004D00A211248FFF743FE10BD2300114A59
:101CB0001021206800F0CAFB032000F075FA032011
:101CC00000F072FB03200C4900F0BEFAFFF75EFB48
:101CD0000A4B9C4603232375D0231B061B686044D4
:101CE0006375074B80006060DC60DAE72C0600203B
:101CF000AC19002079190010DD1A001040000034E2
:101D000088180020004870472C060020F0B54E4689
:101D10004546DE465746E0B585B0019310AB1B78CB
:101D20000600039300239946984600927268EFF3E9
:101D3000108B72B61368002BFCD0BFF35F8F356831
:101D4000AC7B002C3DD067002B683F19033FDB19AB
:101D50005A78AA73002A00D1EA73B168474A8C46C0
:101D600000980199A21812016244106051600E9906
:101D700091600F99D16042469A705A701A706B7BCD
:101D80009A46002B67D022001900A8686B68984714
:101D90002A68002852D0534650465B005344D71956
:101DA000033BB870D118D35C002B00D07B70534636
:101DB0000C706B7354454FD0F3681B19013B1878B6
:101DC00000E000207368BFF35F8F42461A608BF318
:101DD0001088002C4FD04B46002B08D10002204326
:101DE00005B0F0BCBB46B246A946A046F0BD039B79
:101DF000002B3ED00E9B00200F9998470300040053
:101E00000D000B4335D000290ADA009A019B121B02
:101E1000AB4100920193002B0ADB039B994685E7B7
:101E200000F0CEF924184D4100940195002DF4DA0C
:101E30000123134C5B4200930194EEE753465B0091
:101E40005344033BD3189C70D119D25D002A00D0B3
:101E50005A7053460B706C73307D009A019B00F0F2
:101E600039FA81460028A7D02100306800F056FCDE
:101E7000A2E70020B4E701204042B1E7FFFFFF0FD7
:101E8000FFFFFF7F70B50400002933D04268EFF3F5
:101E9000108572B61368002BFCD0BFF35F8F2068EB
:101EA000CEB2437BB34216D0FF230B405A00D31867
:101EB000026894466344033B9B78002B0BD1226954
:101EC000914219D000206368BFF35F8F00221A602F
:101ED00085F3108870BDFF230A0A0B40E168D2B277
:101EE0008C466344013B19789142EBD1310000F0FC
:101EF00015FCE8E70020EDE72361E3E7F0B5040017
:101F00000D0006267642F717C64636196F4100B512
:101F100084B08F4214D811D000F052F932003B0047
:101F2000121A8B41002B15DC002B3ED0200029001B
:101F300000F07AF904B080BCB846F0BD8642EBD917
:101F40000026002700F03CF932003B00121A8B41BA
:101F5000002BE9DD002302930193154B320000931F
:101F600014483B00FFF7D2FE0028DFDB0023984631
:101F7000BC46114A114F7B6A9C4504D8B96A8E420F
:101F8000D4D99C45D2D11168EFF3108072B60B689A
:101F9000002BFCD0BFF35F8F1368BFF35F8F414608
:101FA000196080F3108820BFE5E7002ABED0D1E792
:101FB000AD1900102C060020AC190020004005408F
:101FC00070B504000D0000F0FBF80019694100290C
:101FD00002DBFFF793FF70BD012001494042F8E7A3
:101FE000FFFFFF7F70B5060000F0EAF8FA22040058
:101FF0000D00002330000021920002F09DFE001928
:102000006941002902DBFFF779FF70BD012001491A
:102010004042F8E7FFFFFF7FF0B5EFF30583CE46C0
:10202000474680B505000C0085B0002B12D02C4A25
:102030000020536A9C4203D8926A0130AA4204D31A
:1020400005B0C0BCB946B046F0BDE01A421E904192
:10205000C0B2F5E7234E02930193234B0200009395
:1020600030000B00FFF752FE031EE0DD20BF716859
:10207000EFF3108772B60A68002AFCD0BFF35F8FB7
:10208000DAB294463068427B62451DD0FF221A4086
:1020900051008946016891448846494641440339C4
:1020A0008978002913D0F1681B0A88464244013A16
:1020B0001278DBB29A420FD07368BFF35F8F0022B1
:1020C0001A6087F31088B2E7FF221A40EBE7326903
:1020D0009342F1D13161EFE7614600F01FFBEBE77E
:1020E000004005402C060020AD190010F0B5EFF3BC
:1020F0000582D6464F4646461000C0B51038EFF36D
:10210000108872B6214C2368002BFCD0BFF35F8F80
:102110000123190081401E4D1F006963AA461D4D11
:1021200029601D4D2E78AC463500C5402F402B420E
:1021300009D1BFF35F8F276088F31088E0BCBA46EF
:10214000B146A846F0BD5346144D5F6A83005D5901
:10215000AF420ED3124A8E439B5862461670BFF3AD
:102160005F8F0022226088F31088002BE6D098470A
:10217000E4E70C4B92009C46624413681360BFF383
:102180005F8F0023236088F31088D7E7280100D0F1
:10219000004005403C700540D4190020B0190020D3
:1021A0007C0D0020D03F054010B50100024A0348D5
:1021B000FFF752F810BDC04630960010D11900202C
:1021C000034B596A0A00986A596A8A42FAD17047E1
:1021D0000040054070B504000D00124A536A190012
:1021E000966A536A8B42FAD13000190024184D4187
:1021F000AB4211D80ED02B000A494A6A9A42FCD34E
:1022000007D1084A02E0516A994202D1916AA1427B
:10221000F9D370BDA642EED9012301246442E5172B
:102220005B42E9E700400540064A536A9942FCD800
:1022300007D1044B02E05A6A914202D19A6A824263
:10224000F9D370470040054070B504000D00EFF36E
:10225000108672B61A4A1368002BFCD0BFF35F8F4A
:10226000002D1BD02000FFF7B7F8164981420AD095
:102270002000FFF7B9F801212000FFF793F80123B0
:10228000A340114A1360114BA400E550BFF35F8FC8
:1022900000220B4B1A6086F3108870BD0B4BA20016
:1022A000D5500122A2400A4920000B7893430B70BD
:1022B0000449FFF7B7F900212000FFF773F8E5E7BD
:1022C000280100D0ED200010386005407C0D002072
:1022D000D4190020F0B54F46D6464646C0B5070093
:1022E0002C4C616A0D00A66A616AA942FAD18B4240
:1022F00008D805D00120E0BCBA46B146A846F0BDDA
:10230000B242F7D9EFF3108A72B623480168002968
:10231000FCD0BFF35F8F0125BD4020491D4C88468E
:10232000097889462943C9B28C46414660460870FF
:10233000391D1B48890065630A51B9000B50216A99
:102340000020294219D0616A0800A66A616A8142A8
:10235000FAD18B4219D801D1B24216D8CC4516D049
:102360000C4B1F201D625D6301230740BB400D4ADB
:102370001E38136043464A461A70BFF35F8F00222F
:10238000054B1A608AF31088B5E70020F5E70120B5
:10239000F3E7C04600400540280100D0D4190020D2
:1023A000B019002080E200E0EFF3108C72B60A4909
:1023B0000B68002BFCD0BFF35F8F01238340074ADB
:1023C0000748136202789A430270BFF35F8F0023BD
:1023D0000B608CF310887047280100D00040054046
:1023E000D419002070B5050014001600002915D07E
:1023F0000C00002A12D080686B6898472968002872
:102400000ED073009B196200033B1219CB18033ADC
:102410009C7088188A5C002A15D10670200070BD57
:1024200063001B197200033B9219CB18033A9E708C
:1024300088188A5C002A02D104703400EEE75A70D2
:1024400004703400EAE75A700670E7E730B583603D
:102450000023CCB243730133047342608373C473AB
:102460000D000068012C06D9421C0133DBB2137049
:1024700003329C42F9D1FF2129404B005918002317
:1024800040180338437030BDF8B5CE4647460600C5
:102490000C0080B5002907D04D0003686D18033D7E
:1024A0005A195778002F04D12000C0BCB946B04655
:1024B000F8BD7900C91903398846434459788946DB
:1024C00000215970517073683A0021008068984764
:1024D0003368002814D042469A18947059195B5DED
:1024E000002B00D053700F70270049463000FFF7D3
:1024F000CBFF390002003000FFF774FF0400D3E780
:10250000424641465D19AF709A185B5C002B00D0C3
:102510006B701470E9E7C046F0B557464546DE4695
:102520004E46E0B50D006B0001685B19DF1E04002C
:10253000C85D83B00192CA19002850D043001B180F
:10254000033BCB185E78B446002E1AD1019E002EB4
:1025500042D0E67B002E04D073009B19CB18033BBE
:102560005D70A37B002B00D1A573E57300282FD1EC
:102570000023537003B0F0BCBB46B246A946A04648
:10258000F0BD72006244033A89184A7890460022EE
:102590004A7091465A70010032002000FFF722FF76
:1025A00043468246002B07D05B0021684344033B2F
:1025B000CB185A78002A16D1424651462000FFF720
:1025C00011FF2168019BCA19002BC2D10028CFD06E
:1025D00043001B18033BCB1800219970C8E7019BEF
:1025E000002BB6D1C4E7500080180338091848788A
:1025F000834648464870587041462000FFF7F2FE77
:10260000594680462000FFF73FFF41460200200068
:10261000FFF7E8FE8046CFE7F0B557464546DE4671
:102620004E46E0B583B00191457B04006B00006825
:102630005B19DF1EC15DC219002952D04B005B1827
:10264000033BC3185E78B446002E1CD1019E002EB9
:1026500044D0E67B002E04D073009B19C318033BC3
:102660005D70A37B002B00D1A573E573002931D1E8
:10267000002328005370617303B0F0BCBB46B24620
:10268000A946A046F0BD72006244033A8018427821
:1026900090460022427091465A7020003200FFF7A7
:1026A000A1FE43468246002B07D05B0021684344CD
:1026B000033BCB185A78002A17D1424651462000D6
:1026C000FFF790FE019B01002068C219002BC0D1CA
:1026D0000029CDD04B005B18033BC3180020987035
:1026E000C6E7019B002BB4D1C2E750008018033825
:1026F000091848788346484648705870414620007B
:10270000FFF770FE594680462000FFF7BDFE4146A8
:1027100002002000FFF766FE8046CEE770B5040099
:1027200000292CD0437B8B422ED0056848004018EE
:10273000033828188278002A21D053009B18033BC5
:10274000EA5CEE188A4202D11BE0002A08D053004E
:102750009B18033BEB185A788A42F6D142785A709C
:1027600000230122837043702000FFF7D5FE617BB8
:1027700002002000FFF736FE6073012000E0002019
:1027800070BD43783370EBE701221900FFF7C4FEF8
:1027900060730120F4E7C046F8B5CE464746040012
:1027A00080B506200E0000F0EFFA051E51D0524B06
:1027B0005249E21853425A418023DB039C4692055A
:1027C0004F4B62441A604F4B1A6010008B6898435D
:1027D000FBD1494B8021E3185A4253414A4A5B00DE
:1027E00049009952062000F0CFFA3100C00001F0F4
:1027F00023FFC30932D14022012190466162A362C6
:10280000256BEB0736D427008026E36A00232C379C
:1028100076013E4333600620256300F0B5FA414659
:10282000800001F009FF236B05009846DB073BD4CD
:102830006022E36A5A406E231340336043462363A9
:10284000802310229B013B431A60304B23630323F8
:10285000A3642800C0BCB946B046F8BD2C4A9342D8
:102860003FD900232B492C4A6162A362256B904615
:10287000EB07C8D52200C02330329B011343234A03
:1028800006201A60666AA26AB601B61800F07CFAE1
:10289000224901F0D1FEB6020100300001F0CCFE69
:1028A0000021FFF797FCAEE72200C02330329B01E6
:1028B0001343164A06201A60636AA26A9B0199466E
:1028C000914400F061FA4B4614499B02994601F08D
:1028D000B3FE0100484601F0AFFE0021FFF77AFC8D
:1028E000A6E77F2299018846104001304008190070
:1028F0008044030082E7C0460080FCBF00C0004067
:1029000000E0004000F00040C41900200103000076
:10291000FEFF0000FFFF0000C0FF3F004E0E000062
:10292000F8B5040006200D0000F02EFA2900C000C2
:1029300001F082FEC30924D0224A934239D90023F0
:10294000214A224E6262A362256BEB0720D522004A
:10295000C02330329B0113431D4A06201A60676A68
:10296000A26ABF01BF1800F00FFA1A4901F064FE15
:10297000BF020100380001F05FFE0021FFF72AFCD2
:1029800006E0402601226262A362256BEB07DED4DB
:10299000E36A220080232C325B01134300220620CD
:1029A0001A60256300F0F0F93100800001F044FE68
:1029B000F8BD7F221040013040089E011A003618F1
:1029C0000300E0E7FEFF0000FFFF0000C0FF3F0044
:1029D000010300004E0E00000539013AF8B5D2009F
:1029E0004C0105001443002B05D002222243012B89
:1029F0002AD105331C432E6BF3070BD4EA6A8023DC
:102A000062406E2414402A005B012C3213431C6088
:102A10002E63F8BD2A00C02330329B0113430B4ABA
:102A200006201A606F6AAA6ABF01BF1800F0ACF9ED
:102A3000074901F001FEBF020100380001F0FCFD72
:102A40000021FFF7C7FBD9E71400D4E7010300001A
:102A50004E0E0000F8B54B1E9941066B05000C01A7
:102A6000F3070BD41023E96A2A004C401C40802352
:102A70002C325B0113431C602E63F8BD0200C0239F
:102A800030329B0113430A4A1A60476A826ABF01C7
:102A90000620BF1800F078F9064901F0CDFDBF020D
:102AA0000100380001F0C8FD0021FFF793FBD9E7D2
:102AB000010300004E0E000030B50C2083B000F082
:102AC000B9F9FEF7ABFB00280ED0994B994A1A6072
:102AD0005A609A60DA601A615A619A61DA611A6220
:102AE000954A5A6203B030BD944CA06700F0AAF931
:102AF0000122934B1A60636C012BFCD10322914B92
:102B00001A608E4A936B012BFCD1013301218E4A4E
:102B10008E480093043300F03DF905238C4A00935E
:102B200001218C4800F036F98B4B5A68FF2A02D8F5
:102B3000802252005A6080227D4C824B2169120112
:102B4000854D1A60002907D0606901F075FD431CAE
:102B50005800C0180338FDD2E0217F4B02201A68CC
:102B60001140802252012A43116019684840032114
:102B70000140116004219A681142FCD0802280211A
:102B800092012A4309011160802252005A60734B5E
:102B90002361734B5968FF2900D85A600321684AA2
:102BA0006F4B116002399A681142FCD0E0201A681C
:102BB0001040802252011A431060186848400321D7
:102BC00001400220116066498A681042FCD08022D0
:102BD00092011343802212011A608022614B52003D
:102BE0004A606361604B5968FF2900D85A608022AF
:102BF0005E4BE16912015C4D1A60002907D06069E3
:102C000001F01AFD431C5800C0180338FDD2E02221
:102C100055490B681A4080235B012B431A608023BF
:102C200080229B012B4312011A608022414B5200EB
:102C30004A60E3614E4B5968FF2900D85A608022F0
:102C40004C4B216A12014A4D1A60002907D0606975
:102C500001F0F2FC431C5800C0180338FDD2E022FA
:102C600043490B681A4080235B012B431A60802381
:102C700080229B012B4312011A60802380225B007B
:102C80004B602C4BD20223623B4B5968914200D2DD
:102C90005A608022394B616A1201374D1A6000294F
:102CA00007D0606901F0C8FC431C5800C018033805
:102CB000FDD2E02230490B681A4080235B012B4390
:102CC0001A60802380229B012B4312011A6080230B
:102CD000DB024B60184B6362294B5A68FF2A02D80B
:102CE000802252005A608022264BA1691201244D95
:102CF0001A60002907D0606901F09EFC431C58004F
:102D0000C0180338FDD2E0221D490B681A40802309
:102D10005B012B431A60802380229B012B4312010D
:102D20001A6080235B004B600E4BA361DAE6C0465D
:102D3000C00E0020006CDC021BB7000000800040C9
:102D40003CB0004030B00040002F68590080024085
:102D5000008C864700C0024030800040001BB70056
:102D60003C800040405973075480004054B00040FC
:102D70006080004060B000406C8000406CB000405B
:102D80004880004048B00040014B8000C058704768
:102D9000C00E0020F8B5040021481D0017000E00E9
:102DA00001F04AFC0100380001F046FC069B2904B2
:102DB0001B0319432368002B20DB1A4B1A4DE21822
:102DC00053425A4180235B019C461203174B6244D5
:102DD0001A60174B1A601700AB689F43FBD1C022E3
:102DE000231D92011A4321232660A06013602368EB
:102DF000002BFCDA0823E1601360F8BD3F23226852
:102E00001340B342D9D1A3681B051B0D8342D4D113
:102E1000EE22E368D20213408B42CED1EDE7C046EA
:102E2000001BB7000040FDBF00C0004000E00040B4
:102E300000F000408023024A9B000343D3627047A6
:102E400000800540AA23064A1B0113602F23054971
:102E5000D360054B19605368002BFCDA7047C046FD
:102E60000040024000B0FA00006002402C4B2D4AA6
:102E700070B51A602C4A2D4B2D491A6014008B68CE
:102E80009C43FBD12B4D2C4EB54208D2013E761B04
:102E9000B60808CD984723000134B342F9D1FFF7B3
:102EA0000BFE264A214B1A60214A9368DB43DB0163
:102EB000DD09002BF9D14022214B224C224E9A678A
:102EC0005A671A67DA66B44208D223682000002BDA
:102ED00020D00834FEF742FDB442F6D31B4E1C4C02
:102EE000C022A168300001F0DBFFA660FEF740FAC7
:102EF000FEF7DEFCFEF7D0FE164C174EB44208D2A9
:102F0000013E361BB60808CC98472B0001359E427F
:102F1000F9D170BD0834FEF713FDB442D5D3DDE717
:102F200000E00040BFCDFBFEFE7F3C0000F0004013
:102F300000C00040F80A0020080B0020FFFFFF013E
:102F400000F00140F00A0020F80A002000000020F4
:102F500000ED00E0080B0020100B002000BEFDE794
:102F600010B5FFF7FBFFC0460FB400B5084883B0AB
:102F700002F0FAF8049B002B07D005A91800019174
:102F800001F0DAFA034802F0EFF80120FFF7E6FF5C
:102F9000549600103C9A001010B50148FFF7E4FF6A
:102FA000649600107047C046F8B557464E464546F1
:102FB000DE46E0B599460A9B07009A460D9B884677
:102FC000934615000B9E9B0710D10C9B9E420DD281
:102FD0009D1B14000E005D4422004B46013431005D
:102FE0002020B847A542F7D1B0460B9E002E27D02F
:102FF000444675195346AA1B013E985D21004B4675
:10300000B847002EF6D123002C0098460D9B9B0755
:103010000FD55B46E51A0C9BAB420AD9464698464B
:1030200022004B46310020200135B8470134A84525
:10303000F6D82000F0BCBB46B246A946A046F8BD73
:103040002C00E3E7F0B54F464646D646C0B584B0FF
:1030500098460EAB1B78129F994694460D9C109B88
:10306000119EBA0725D4002E4BD19C4200D3BFE05D
:1030700001223A4092461F2C00D9B8E00C9A551E06
:10308000302201E0202C03D001342A55A342F9D884
:103090005246002A0DD0A6420BD9202C44D00C9ABF
:1030A000551E302201E0202C3ED001342A55B44276
:1030B000F9D1FA064DD57A053FD4002C39D10F9BB2
:1030C000102B00D179E00F9B022B00D18AE0302336
:1030D0000C9A012413704B46002B3FD02D230C9AE1
:1030E000135501340C9B62460093039743460296A6
:1030F0000194FFF759FF04B0E0BCBA46B146A846B8
:10310000F0BD012215003D40AA463A422FD04A4662
:10311000002A02D10C323A4200D0013E9C42BAD27F
:103120001F2CABD9202E27D92024FA06DAD57A0510
:1031300003D4A3422DD0A6422BD00F9B102B32D00C
:10314000022B20D0202CCDD030220C9B1B191A70C2
:103150000134202CC6D04B46002BBFD17B070DD4A9
:103160003B07BFD520230C9A13550134BAE79C4284
:103170009FD21F2C00D881E720249AE72B230C9A9A
:1031800013550134AEE7202CACD00C9B1B19013435
:103190003AE0631E012C92D00F9A102A2AD0022AFC
:1031A0002FD01C00D0E7BB060ED4202C9AD00C9B4D
:1031B0001A19013478231370C4E7BB060DD47823A1
:1031C0000C9A01241370BFE7202C00D18AE7582203
:1031D0000C9B1B191A700134B4E758230C9A012474
:1031E0001370B1E70C9A603301241370ACE720240C
:1031F00000265EE7023CBA06E9D40C9A12191C00BC
:10320000D8E70C9A9246534462221A709AE7C04655
:1032100010B5002800D110BD01F05AFFFBE7C046F1
:103220000B0010B5002802D049681B68984710BDF4
:10323000F0B5DE4657464E464546E0B59BB09B4648
:10324000249B89469846259B0B900C92404642460B
:1032500019009A4601F0A9FC002800D0D9E001220B
:1032600040465146774B524201F09AFC002800D06C
:10327000CFE0012240465146734B524201F07AFCA6
:10328000002800D0C5E0002200234046514601F04E
:1032900071FC002800D0B9E1424653460A920993D6
:1032A0008023289ADB001A400E92289A1A4201D1F4
:1032B000062326930A9A099B1600134300D0C7E001
:1032C000289B002500261B0500D49BE100230D93BD
:1032D000269B19000D9B994200DC9EE1C81A431EF3
:1032E00026938023289ADB001A4300230027289284
:1032F0000D93279B0024BB4200D9DC1B0223289A94
:103300001A400E92289A134203D07B427B415B42C3
:103310001C400D9B002B07D00A9809992A00330006
:1033200001F0CFFB0A90099100220023404651464C
:1033300001F020FC002805D0802000068446099971
:1033400061440991289A414B0B9D13400493269B9D
:103350000A9A0293099B03940092019349465B46A3
:1033600028000C9A00F08AF90400002F62D0289BF4
:10337000220098061F23C0179843631C98464946AD
:103380005B466530A8470D9B0025DA179C18DB0FBC
:103390009A465440013F01E0202D13D00AAA9446DA
:1033A0001F23200063440A2101355E1901F044F90E
:1033B0003031317020000A2101F03EF9260004006E
:1033C000092EE9D805230693002304930A330393B7
:1033D000534605970B9F029312AB009342465B4600
:1033E000494638000195FFF72DFE0E9B0400002B87
:1033F00020D00C9BC51A279BAB421BD91E00220074
:103400005B46494620200135B8470134AE42F6D824
:1034100010E0289B42460493279B49460393269B32
:103420000B9802935346009201935B460C9A00F06E
:1034300025F9040020001BB0F0BCBB46B246A946EB
:10344000A046F0BDFFFFEF7FFFFFEFFFFFF7FFFF9D
:10345000734B099F9C467800400D604401F0B8FB17
:10346000704A714B01F047FB704A714B01F024FB2D
:103470003B03704A1B0B1A4304000D00300011007F
:103480006D4B002201F013FB6C4A6D4B01F033FBD6
:1034900002000B002000290001F00EFB01F0B0FB40
:1034A0000D9001F095FB674A674B04000D0001F099
:1034B00022FB0022654B01F0FFFA01F0A1FB644AF8
:1034C0000600644B2000290001F015FB04003000C9
:1034D0000D000F9601F07CFB5F4A604B01F00BFB87
:1034E00002000B002000290001F0E1FA02000B00AD
:1034F00006000F0001F0FFFA320004000D003B004F
:103500003000390001F0D8FA002210901191544B8C
:103510002000290001F0D5FA0022524B01F0CCFA2C
:1035200002000B002000290001F0CBFA00224E4BD4
:1035300001F0C2FA02000B002000290001F0C1FADC
:103540000D008021320004003B000020C90501F07D
:10355000AEFA02000B002000290001F0ADFA0200D3
:103560000B001098119901F0ACFA0022314B01F0D8
:10357000A3FA3E4A0F9B9446634400221B0501F0C8
:10358000BAFA05000E0002000B000A98099901F032
:10359000F1FA00280AD00D9B2800013B31000D9361
:1035A0000022304B01F08DFA05000E00C6270D9960
:1035B0002B0063318F42BF4128997F4204370905B0
:1035C00000D496E6334300D182E6099C284A2100C4
:1035D000284B0A9801F0DCFA002808D000222100CC
:1035E000254B0A9801F0C6FA002800D070E6269B09
:1035F000002B00D17DE60E9B5A1E9341269AD31ACA
:10360000269376E6002304270D9372E643460A9339
:1036100080231B065344099342E60023269360E669
:1036200001FCFFFFFB799F501344D33FB3C8608B6D
:10363000288AC63F0000F03F0000F83F61436F63F7
:10364000A787D23F71A379094F930A400000E03F5A
:103650001655B5BBB16B0240EF39FAFE422EE63F7C
:1036600000002C400000244000001840FF03000030
:103670002D431CEBE2361A3F80842E41F0B54E46B6
:10368000DE4657464546E0B597B09946209E219FB5
:10369000229B8346984607910C923B0032003000F3
:1036A000390001F082FA002800D0A9E1012230009F
:1036B0003900CA4B524201F05DFA002800D0E1E027
:1036C000012230003900C64B524201F069FA00284D
:1036D00000D0B7E0002230003900C24B01F060FAA0
:1036E000002800D099E0002230003900BE4B01F0E4
:1036F00041FA002800D090E0002200233000390079
:1037000001F038FA002800D0B1E000230D93249B8B
:103710005B0501D40623984608AB9C46172200247B
:1037200030234146624404E0013413550139202C12
:1037300001D00929F8D888463000390001F060FA34
:103740004346DA00A94B05009B181A685B6808928B
:10375000099301F03DFA02000B003000390001F03E
:10376000A6F9089A099B01F0C6F90A900B9101F09D
:103770006BFA824601F028FA02000B000A980B99B6
:1037800001F095F900229A4B0A900B9101F008FA8A
:10379000002800D1C0E001239C46E244504601F0DD
:1037A00013FA02000B000898099901F0E9F90028C2
:1037B00002D000239A4601354346002B6AD008AB5D
:1037C00017269C4608956644554614E001235B4243
:1037D00043440A2128009A4600F02EFF013430317C
:1037E0003719397028000A2100F026FF092D00D86A
:1037F000D0E0D0460500202CE8D10EAB984603233C
:10380000249A1340012B00D196E02023249A01939F
:103810000392239A434602921EE0249B5846049347
:10382000239B00960197039343460C9A02930799B2
:103830004B46FFF7FDFC17B0F0BCBB46B246A946AD
:10384000A046F0BD249B5B070ED40322694B24994C
:103850000192039123990291009358464B460C9A8A
:103860000799FFF7A1FBE6E70422634BEFE73B0074
:1038700032000020002101F01AF9012306000F0098
:103880000D9344E7249B0393239B0293042301930A
:103890005A4BE1E7280001F09BF902000B003000D1
:1038A000390001F004F9524B002206000F0001F02C
:1038B00061F90EAB984600280AD100223000390089
:1038C0004B4B01F06DF9002802D1EB0700D5013513
:1038D000202C94D008AA94461723280063440A2178
:1038E00001341E1900F080FE3031280031700A21A9
:1038F00000F07AFE051EEBD10323249A1340012B1E
:103900001BD0202C00D180E70D9B002B35D02D2221
:103910004146631C0A5579E700220A980B99344BFB
:1039200001F028F9002800D046E75346002B51D17A
:1039300001239C46E2443FE72024239B002BE0D058
:103940000D9B002B03D1249A0C33134202D0239BEE
:10395000013B2393239BA342D3D908AB9C46172258
:1039600030236244202C00D14FE7239901341355B2
:103970008C42C6D0202CF8D147E7249B5B0724D487
:10398000249A2300120700D440E720224146013345
:103990000A553BE75746089D202C00D12DE7220011
:1039A00030214046002F09D00132B154202A00D1E5
:1039B00023E7D3431B191B18002BF5D10EAB9846F8
:1039C0002E234146541C8B5482E72B224146631C14
:1039D0000A551BE7DB0700D4EEE6A9E7FFFFEFFF80
:1039E000FFFFEF7F65CDCD4165CDCDC1689800105B
:1039F0000000E03F70960010749600108096001052
:103A0000249B0393239B029303230193004B23E7FF
:103A10007C960010F0B5DE464E4657464546E0B56A
:103A20009FB01C00289B91460993C94AC94B8B46FD
:103A300008901A60002900D118E2002320789A46E5
:103A4000002800D11AE226001D005C460AE02A0088
:103A50006F1C4B46089D2100A8473D000136307879
:103A6000002870D02528F2D110239B46083B9A46A7
:103A7000043B9846023B00219C46721C10781600BD
:103A80000300203BDBB2102B03D8B34F9B00FB5845
:103A90009F460300303B092B32D900230A932A2882
:103AA00068D0002398462E283ED00300683BDBB246
:103AB000122B1CD8A94A9B00D3589F4601230132E0
:103AC0001943DBE7634601321943D7E74346013226
:103AD0001943D3E75B4601321943CFE7534601321E
:103AE0001943CBE780235B0070781943013603004C
:103AF000253BDBB2532BAAD8994A9B00D3589F464B
:103B000000270300B800C01901364000C018337800
:103B100030381A00303A0700092AF3D90A90180001
:103B2000002398462E28C0D180237078DB001943EB
:103B30000300303B721C092B00D8A1E12A2800D1D8
:103B4000B2E11600B1E7A346AA462C00D14503D83E
:103B500001235B424B449A464B465246594600204D
:103B6000089DA84720001FB0F0BCBB46B246A9463E
:103B7000A046F0BD099B40CB0A96002E03DB50788F
:103B80000993561C8DE72838014370420A90099327
:103B90005078561C85E7782800D1DFE1582800D1FD
:103BA0004CE26F2800D14FE3622801D100F030FCD5
:103BB00010230A009A430B92692801D000F0A9FC57
:103BC0000A230C934B0500D5D0E10B9A80231100FA
:103BD0009B0019408B461A4200D0A1E280231100BD
:103BE0005B0019408A461A4200D0B6E313005B0618
:103BF00000D5EDE2130009991B0601D400F076FC14
:103C000008C91BB2D8171A18424092B209919346BC
:103C1000DA0F1292002B09D1802310220B99DB00BE
:103C20000B4091430B91002B00D0E4E20B9A6123EF
:103C3000920600D541230EA91F228C46DBB26244B6
:103C40000A3B5F461395A34655460C9CB2460D931E
:103C500016000AE03033DBB201357355A74200D2BB
:103C6000EDE2202D00D1EAE207002100380000F04B
:103C7000E3FCCBB20929EDD90D9A94466344DBB23B
:103C8000EAE780239B007078194301362FE77078AC
:103C9000682800D1CDE180230136194327E77078E9
:103CA0006C2800D1BFE180235B00194301361EE779
:103CB000462800D19BE10722099B049107339343D7
:103CC0000A9A19000392424602920CC9089800927F
:103CD000019309912A004B462100FFF7CFFC0136E2
:103CE0000500BCE62A006F1C4B46089D21002520DC
:103CF000A84701363D00B2E68B0700D4ADE1099B31
:103D00002A009A466B1C9846534601CB21009A46DE
:103D1000089F4B46C0B2B8470A9B9C466544012B9E
:103D200000D886E2089B4746B04626004C46994696
:103D30003A002300013731002020C847AF42F7D1B5
:103D4000A1465346340046460993013687E6C046ED
:103D5000153A00108418002088960010CC960010A8
:103D600018970010099B04CB9B4643460992002BF1
:103D700000D1C6E013789C46002B00D1BDE343463A
:103D8000013B099A0133D0180A9F130001E08342D6
:103D900003D05A780133002AF9D1099A0A979B1A5D
:103DA0000B9380230A00DB001A400C92194204D0C6
:103DB0000B9B434501D943460B9302231A000A404B
:103DC0000D920B4200D187E16046002800D168E1E6
:103DD0000C9B002B00D10DE1A844C246099B57461D
:103DE0005B1B9846089BB2462A0026004C46994623
:103DF00009E023003100551CC8474346585D0028A0
:103E000000D126E12A009742F3D1A1463D003400BB
:103E100056460D9B002B00D043E15B4601360993CB
:103E20001DE6099B1A0008CA9246002B48D02122A1
:103E300011438B460EA884461F2161440995002238
:103E40000F27A4460D0002E0202A0CD00B003C00F6
:103E50001C4020003730092C00D807380132A85404
:103E600019090F2BF0D86446099D32E0DC4B20780D
:103E7000089300239A46002800D0E4E5002465E674
:103E8000434606000A9F9800C0180132400080197E
:103E90001678030030003038303B0928F3D9300061
:103EA000984616000A9700E6099B023604CB904616
:103EB000D2434046D2171040804609933078F4E54B
:103EC0001022080090431132104383460022490516
:103ED000B0D55B460693082305934346049310230D
:103EE00003930023029316AB019200932A004B46E2
:103EF00021000898FFF7A6F85346050001360993FC
:103F0000ADE513789C46002B00D1F7E202235B421B
:103F100037E7202302009A43472A04D180231B015C
:103F2000194302239843452801D12023194307222E
:103F3000099B0491073393430A9A1900039242465E
:103F400002920CC908980092019309912A004B46ED
:103F50002100FFF76DF90136050080E510230C9371
:103F60000C230A009A430B924B0503D501230B9AAD
:103F70009A430B92692800D127E6642800D124E6F1
:103F80000B9A802311009B0019408B461A4200D0E7
:103F900066E1802311005B0019408A461A4200D076
:103FA00039E213005B0600D53CE113001B0600D488
:103FB000A6E2099B04CB1204120C934609935B46BC
:103FC000002B00D09AE10B9A1033110099430B910A
:103FD000520500D492E100239A460B9B06930A9B5C
:103FE0000593434604930C9B039300230CE1202389
:103FF000194360E6099B0A9A5B1B98464B4691461B
:104000001F00B2462600089C2A003B003100A04752
:1040100043460135585D0028F6D14A463400B9467A
:1040200056460A92F5E6C0239B00B0781943023643
:104030005DE5C023B0781943023658E50C230A0029
:104040009A4314331A43103B0B920C934B058DD4B7
:1040500096E7A14634005646DBE60A9A012A00D8C4
:1040600053E26B1E9F18089BB04626004C469946AB
:104070002A002300013531002020C847BD42F7D176
:10408000A14634004646099B3A0001CB21009846E0
:104090007D1C4B46089FC0B2B84743460136099382
:1040A000DDE40B9B0A99A846994200D8B5E68C46F8
:1040B0006544ED1A089B4746B04626004C46994693
:1040C0003A002300013731002020C847AF42F7D122
:1040D000A14634004646A0E60B9A0A98531C90422B
:1040E00000D814E243199B1A1F00089BB246260011
:1040F0004C4699462A002300013531002020C8474C
:10410000BD42F7D10A9BA14601330B93099B3400B2
:104110001B7856469C466046002800D058E67CE650
:104120000722099B07339343013294469C4462461D
:104130005F6809921A68FB171093119310981199F0
:10414000030053400E930B007B400F9394460E9A4E
:104150000F9B121A8B410E920F93FB0F6246129324
:1041600000233A439B463DD00B9A6123920600D52B
:1041700041230022DBB20EA90A3B8C4692460D93E6
:1041800043461F3262441395159655460E9E0F9F67
:10419000A24690460C9C14930CE03032D2B24346B7
:1041A00001355A55BB4500D18AE1202D00D18AE165
:1041B00006000F00220000233000390000F07AFAD8
:1041C000D2B2092AE9D90D9B9C466244D2B2E6E7F5
:1041D000FF23099904C913401A00099117E5C04645
:1041E000A52F00100B9A1033110099430B91520523
:1041F000BAD500239A460B9B06930A9B0593434628
:1042000004930C9B0393129B02935346019316ABAA
:104210002A00009321004B460898FEF713FF013651
:1042200005001CE4FF22099B02CB11408B46099339
:10423000C5E65346454609930136FFF710FC56463E
:104240005C46AA46139DD6E708230C930B910B9965
:10425000642800D084E60B9B5B0500D586E6B4E4B9
:104260000722099B07339343013294469C446246DC
:1042700009921A685B6810009B4613005A46134364
:1042800007D10B9A1033110099430B91520500D5B9
:10429000A1E60B9A6123920600D541230022DBB2EE
:1042A0000EA90A3B8C4692460D9343461F32624448
:1042B0005F461295A34655460400B24690460C9EB2
:1042C00013930DE03032D2B2434601355A550023E4
:1042D000BB4200D100E1202D00D100E104000F001D
:1042E000320000232000390000F0E4F9D2B2092A9C
:1042F000E8D90D9B9C466244D2B2E5E70B9A612354
:10430000920600D54123DBB20EA90A3B1F228C4640
:104310000D93230062445C461295170055469B4658
:10432000B2460C9E08E03033DBB201357B55B44217
:104330000ED3202D0CD004003100200000F07CF9B9
:10434000CBB20929EFD90D9A94466344DBB2ECE76E
:1043500056465C46AA46129D3FE6099B1A0008CACB
:10436000D91713925A184A409246DA0F1292002B2C
:1043700008D1802310220B99DB000B4091430B9155
:10438000002B2BD10B9A6123920600D541230EAA54
:104390001F279446DBB20A3B0D9567445D4609939F
:1043A000A3465446B2460C9E08E03033DBB20135DA
:1043B0007B55B4420ED3202D0CD0040031002000D8
:1043C00000F03AF9CBB20929EFD9099A944663442F
:1043D000DBB2ECE756465C46AB460D9D0B9B2A00D4
:1043E00006930A9B21000593434604930C9B08986F
:1043F0000393129B013602935B46019316AB009325
:104400004B46FEF71FFE139B05000993FFF727FBA2
:1044100002230C931AE7099B04CB92461293002ABD
:1044200008D1802310220B99DB000B4091430B91A4
:10443000002B2BD10B9A6123920600D541230EAAA3
:104440001F279446DBB20A3B0D9567445D460993EE
:10445000A3465446B2460C9E08E03033DBB2013529
:104460007B55B4420ED3202D0CD004003100200027
:1044700000F0E2F8CBB20929EFD9099A94466344D7
:10448000DBB2ECE756465C46AB460D9D0B9B2A0023
:1044900006930A9B21000593434604930C9B0898BE
:1044A0000393002302935B46019316AB00934B46A4
:1044B000FEF7C8FD129B050009930136FFF7CFFAFE
:1044C000B44200D871E6149B54460E960F97AA4644
:1044D0009846159E139D8EE6A64200D8FBE6139BD8
:1044E00056469846AA465C46129D76E508C9D817F6
:1044F0001A1842400991FFF78AFB00230B9350E4FE
:10450000099B04CB9346099359E52F00BBE50B9318
:1045100001E6063B0C939AE600B585B003910121B4
:1045200002900093034813004A4202A9FFF772FA6F
:1045300005B000BD2132001010B5094A030014680F
:1045400084B0002C08D0012200910648524203A9F1
:10455000A047012004B010BD00F006FE0020F9E7DE
:10456000841800201132001001480421014B184723
:1045700060060020A5450010014B9B68184700000D
:1045800060060020142310B50100188804331B882E
:10459000984710BD162310B50100188802331B88F8
:1045A000984710BDF8B54746CE4680B50F1E19D0C6
:1045B00014239946043304000025012698464B46EF
:1045C0001888434621681B88984701C4431E9841B8
:1045D000013540420640AF42F1D13000C0BCB9467F
:1045E000B046F8BD0126F8E7124A936F9B0815D232
:1045F0009066D166002905D0FFE7FFE7FFE7516F1E
:10460000106F704704B580210906C2175140002879
:1046100000D0C84304F06CFF002104BDF0B5146E57
:10462000556E576F166FFFF7E3FF146655665767B1
:104630001667F0BD000000D0114A936F9B0813D29B
:1046400010665166002905D0FFE7FFE7FFE7516FCD
:10465000106F704704B5002801D00020C04304F05B
:1046600047FF002104BDC046F0B5146E556E576F6C
:10467000166FFFF7E5FF1466556657671667F0BDBE
:10468000000000D094464A4A926F9208624601D2D6
:1046900028E0C046F0B5464E346E756E776F366FC3
:1046A00000F020F89446424A14665566576716672C
:1046B0006246F0BD94463E4A926F9208624601D22D
:1046C00054E0C046F0B53A4E346E756E776F366F73
:1046D00000F04CF89446364A1466556657671667DC
:1046E0006246F0BD002B24DB11D000293EDA00B574
:1046F000C943404200D1013100F038F8C94340427B
:1047000000D10131DB43524200D1013300BD002A08
:10471000EBD1002801D1002905D00020C90FC9071D
:1047200001D1C043410800B504F0D2FE00220023AD
:1047300000BD00B500290ADBDB43524200D1013342
:1047400000F014F8C943404200D1013100BDC94313
:10475000404200D10131DB43524200D1013300F02D
:1047600005F8DB43524200D1013300BD002923D1BB
:10477000002B18D1002A0CD0BC460D4F38667A6643
:1047800000210023FFE7FFE7FFE77A6F386F6746F6
:104790007047002801D00748010000B504F098FEDA
:1047A0000022002300BD02000B0000200021704702
:1047B000000000D0FFFFFFFF002B00D0BFE0130C74
:1047C00028D1002AE7D080B4114F39667A66FFE716
:1047D000FFE730B4040C7B6F396F1B0423433B6647
:1047E0007A66FFE7FFE7FFE7C04684B27B6F3D6F65
:1047F0001B0423433B667A66FFE7FFE7C0460023BE
:104800002C042D0C7A6F386F00196941B0BC7047C9
:10481000000000D0F0B594460025140E01D112021C
:104820000835140F01D112010435940F01D1920003
:104830000235D40F01D152000135D40B0134254F7C
:104840007C66254C3C660E0C93B2FFE7FFE7FFE762
:104850003C6F6643360C7703BE467343DF0B5B0445
:10486000C01AB941130C7343DB18C91ACE0866434A
:10487000360CB64493B273431F0F1B01C01AB941E3
:10488000130C73431F0B1B05C01AB941860D8F0211
:104890003E436643360C092D24DB520A7243801ACC
:1048A0007703460A6643360C16235B1BDE40DF4067
:1048B000BF1964466643821B704604350633010007
:1048C000D940A840C01900D30131A24206D200232A
:1048D000F0BD0000000000D0FFFFFFFF121B013001
:1048E000F3D3F1E709277F1BFE406446A2B272436F
:1048F000801A00D20139220C7243130C1204821A5E
:1049000099410B007046043513370100F940A84067
:10491000801900D30131002B02D1A2420AD2F0BD8E
:10492000013000D30131121BFAD2013BF8D1A2426F
:1049300000D2F0BD013000D30131121BF7E7F0B512
:104940001C0C00D080E00CB400251C0A04D11B0212
:10495000160E3343120208351C0B04D11B01160F2F
:104960003343120104359C0B04D19B00960F334353
:1049700092000235DC0B02D192185B4101351C001C
:10498000971864410134464F7C66464C3C660E0CD9
:10499000FFE7FFE7FFE7C0463C6F6643360C77034F
:1049A000BE4697B27743C01B00D20139C01B00D26C
:1049B00001399FB27743C91BC91B170C77437E048B
:1049C000FF0B801BB941CE086643360C0C2D33DB40
:1049D000B644120B1F053A431B0B97B27743C01B1B
:1049E00000D201399FB27743C91B170C77433E04AD
:1049F0003F0C801BB941860D8F023E436643292739
:104A00007F1BFE400C3D7746AF40BF1930BCA2B2C1
:104A1000ABB272437343801A9941220C7243130C58
:104A20001204801A994102000B000137001BA941B2
:104A3000F9D2781E0021F0BD0C277F1BFE4077467F
:104A40007F0BAF40FF19E0E700245D1C07D0144F37
:104A50007D663966FFE7FFE7FFE7FFE73C6F95B24A
:104A60009EB265436643401BB141150C1E0C654365
:104A7000664336042F0C3E432D04401BB14199423E
:104A800004D202000B0020000021F0BD01D19042B1
:104A9000F7D3801A994101349942F2D3F6E7000026
:104AA000000000D0FFFFFFFF48404140484018B4DD
:104AB000134B5B68019308BD18B4114B1B6801933D
:104AC00008BD94460F4A926F920805D2624618B408
:104AD0000B4BDB68019308BD0A4AF0B5146E556EA6
:104AE000576F166F6246FFF7F2FF064A1466556667
:104AF00057671667F0BD18B4014B9B68019308BD5A
:104B0000580C0020000000D0FFB5504042405040FB
:104B100059404B40594000E0FFB5154F4C00640D23
:104B200003D0BC4204D10C0314D80020090D0905A0
:104B30005C00640D03D0BC4204D11C030AD80022DF
:104B40001B0D1B0501264B4009D44B4003D58B425E
:104B500000D18242FFBD9942FCD19042FFBD0B4380
:104B6000DB1803431343F5D0C9434918FFBD0000C8
:104B7000FF07000000B5FFF7CFFF804100BDC04632
:104B800000B5FFF7C9FF01D9002000BD012000BD1D
:104B900000B5FFF7B9FF01D9002000BD012000BD1D
:104BA00000B5FFF7B1FF804100BD012040054A007C
:104BB000121804D85A00121801D80020704701209A
:104BC00070470020704700000021002805D1704781
:104BD000C1174840401AFAD0C90713B5064B1B68E5
:104BE00098470CBC441CA2401005120B0349091B3A
:104BF00009051943114310BDA81800201F04000027
:104C000010B54C00620D8023D218DB00D21A5B0570
:104C10007E2A10DD9E3A13DACC170903490819439E
:104C20005242D140640001341532202A05DAD040C6
:104C30000843604310BD002010BD0846604310BD0E
:104C4000C80FC018013810BD18B4024B5B6A01933D
:104C500008BD0000580C002018B4024BDB6F019314
:104C600008BD0000580C002010B50148FEF77CF983
:104C7000B8980010132370B51D78012D11D035DDC3
:104C80001C48FFF787FC1C4C01008022200000F02C
:104C900007F9022D27D01948FFF774FC184B18604C
:104CA00070BD184B144C23606360A360E360236104
:104CB0006361A361E36123626362A362E3622363CE
:104CC0006363A363E36323646364A364E3642365AE
:104CD0006365A365E36523666366A366E36623678E
:104CE0006367A367E367084BA364D4E7024C064BF2
:104CF000A364D0E753440000580C00204C3300005C
:104D0000A8180020694C00100D4D001007B5604632
:104D100001880A0A0230DF2AFAD1C9B2820804D314
:104D2000028840880004104300E00068014A5050A7
:104D3000039007BD580C002051434343C9188C46CB
:104D4000110C83B24B4310B4040C614392B280B295
:104D5000504362431C041B0C001910BC594113043E
:104D6000120CC01851416144704700004840414056
:104D700048400E4B5B6818470C4B1B6818470C4AA1
:104D8000936F9B0802D2094BDB681847F0B5146E8D
:104D9000556E576F166FFFF7F6FF054A1466556696
:104DA00057671667F0BD014B9B681847AC18002089
:104DB000000000D0491A002808D1084670470000BA
:104DC000C10FC90700D54042002817D0F44603B4EC
:104DD0000B4B1B68984706BC81409E38404280318F
:104DE00007D20B0607D04900490AC0051043084303
:104DF00060470130F8E7490A8902F5E7704700008B
:104E0000A8180020014B5B6A18470000AC1800206E
:104E1000014BDB6F18470000AC18002010B50148AB
:104E2000FEF7A2F8189A0010132310B510481C784A
:104E3000FFF7B0FB0100012C0AD003DD80220D48F2
:104E400000F02EF80C48FFF79DFB0C4B186010BDCE
:104E5000084C5422200000F023F82300084A803335
:104E60002168002900D122600434A342F8D1E9E787
:104E700053460000AC1800204C330000A818002056
:104E80001D4E001001480421014B184770060020F8
:104E9000A5450010014B1B68184700007006002054
:104EA000014B5B681847000070060020030010B536
:104EB000080011001B68984710BDC046F0B5464673
:104EC0004F46D646C0B5437D80460E001700002BE6
:104ED00046D0002A3FDD4B1E9946244B0125002475
:104EE00000209A460DE04B461B5D0D3B5A42534154
:104EF000325DDBB20A2A0BD02B00013401359F4210
:104F00001ADD002CEFD14346325D1B7D0A2AF3D116
:104F1000002BF1D1A04204DA4346211A1B68301855
:104F20009847434650461B680221984701342800A1
:104F30002B0001359F42E4DC874204DD4346391AE9
:104F40001B6830189847F619013E33780D3B5A42DA
:104F5000534142461375E0BCBA46B146A846F0BD7F
:104F60000368110030009847F5E7C0462C990010FF
:104F7000F0B5C6460C000968060000B5802906D0C9
:104F80004B1C23606418267180BCB846F0BD0F4BE3
:104F90001D68002D16D0231D98460D4F02E02D6987
:104FA000002D0FD02B68002BF9D03B68002B01D0CF
:104FB000AB42F4D1280041462268FFF77FFF2D69FC
:104FC000002DEFD101230021DBE7C046201800208F
:104FD00038180020F0B5DE4657464E464546E0B547
:104FE00085B017001C0006000D00FDF7E9F800234E
:104FF000304A12184B41002B58DB2F4908008A46D3
:1050000004F08EFA01906B1C03D1300004F016F905
:105010000500002C25D1294B9846294B1C68002CF3
:1050200015D0002F20D1274F02E02469002C0ED08C
:105030002368002BF9D03B68002B01D0A342F4D1A8
:1050400020002A003100C0472469002CF0D1019BC8
:10505000002B27D105B0F0BCBB46B246A946A046FE
:10506000F0BD194B9846D8E7164B994602ABDF1DA9
:105070000A239B4602E02469002CE8D02368002B19
:10508000F9D04B461B68002B01D0A342F3D12A0074
:1050900031002000C0475B460122390020003B70F0
:1050A000C047E8E7504604F00BFAD3E70122074B6C
:1050B0005242A2E740420F00F00A0020BD4E00100D
:1050C0002018002038180020AD4E0010FFFFFF7F91
:1050D000F0B5CE46474680B583B06B460600DD1D71
:1050E0002870FDF76DF800231A4A12184B41002B67
:1050F0002BDB19490800884604F012FA174B814649
:105100001C68002C14D0164F02E02469002C0FD02C
:105110002368002BF9D03B68002B01D0A342F4D1C7
:10512000200001222900FFF7C9FE2469002CEFD1DD
:105130004B46002B05D1300003B0C0BCB946B04689
:10514000F0BD404604F0BCF9F5E70122054B5242A0
:10515000CFE7C04640420F00F00A00202018002090
:1051600038180020FFFFFF7F70B5040004F066F8D8
:1051700000230100050001222000FFF72BFF084B50
:105180001C68002C06D06368002B05D09847246962
:10519000002CF8D1280070BD2469002CF3D1F9E768
:1051A000201800200A4A1368002B05D10CE01A00D1
:1051B0001B691032002B07D09842F8D1002902D188
:1051C00003691360016170470029FCD01060FAE7A1
:1051D00020180020F0B5CE46474680B5A5B00400A3
:1051E0000D00FCF7EDFF00232A4A12184B41002B5B
:1051F00049DB294E300004F093F9002307000393A4
:1052000022002B00254803A9FFF786F9039B80465F
:10521000002B14D1224B1C68002C06D06368002B95
:105220000BD098472469002CF8D1002F27D1404695
:1052300025B0C0BCB946B046F0BD2469ECE7184BB8
:105240001D689946002D22D0164C02E02D69002DD4
:1052500011D02B68002BF9D02368002B01D09D4280
:10526000F4D1039B28001A0004A90193FFF726FE3E
:105270002D69002DEDD14B4603951C68CCE730001D
:1052800004F01EF9D3E70122074B5242B1E7039520
:10529000CBE7C04640420F00F00A0020714F0010DB
:1052A0002018002038180020FFFFFF7F0FB400B542
:1052B00083B004A901C90191FFF78CFF03B008BCBA
:1052C00004B0184710B500F0C5F8012010BDC04665
:1052D000F0B50D1E15DD0E4B0D271A680D4B451947
:1052E000D31859424B410C495B005E5E2021047883
:1052F000A64207D093691942FCD101301460A8423C
:10530000F5D1F0BD93691942FCD11760F2E7C046B0
:10531000C81900200080FCBFC419002030B504006B
:105320000D1E26DD002010211B4B013C1A689369DD
:10533000194219D1013093691942FCD113682354E1
:105340008542F4D1154B1B68002B0CD0502393637E
:10535000516B183B34320B401100802252010A433A
:105360001360002815D030BD0C4B1B68002BEDD10D
:10537000F7E70A4B1B68002B0BD050223821064B55
:105380001B689A635A6B34331140802252011343D5
:10539000196003204042E6E7C8190020B80E00203B
:1053A000064B10B51B68002B06D00021044A12687A
:1053B0009163044A1068984710BDC046B80E00209B
:1053C000C8190020BC0E00201D4BF0B51A68C64657
:1053D00098461C4B0E00D31859424B411A4F1433B8
:1053E0001C00050000B53B68002807D0002B11D039
:1053F000164B3D601E6080BCB846F0BD002BF7D058
:10540000906300212000FBF7CDFF20001049FCF73E
:1054100009F9EDE720000E49FBF7E6FF0121200026
:10542000FBF7C0FF4346502238211B689A635A6B32
:10543000343311408022520113431960D8E7C0462B
:10544000C81900200080FCBFB80E0020BC0E002050
:10545000A15300100C4B10B51B780C4B0C4C1B7857
:105460000C4B022100202360FBF71AFE02210120D1
:10547000FBF716FEE12120684902FDF78DF90121B5
:105480000548FFF78FFE10BD081304100C1304101D
:10549000C81900200040034080060020F0B55746A0
:1054A0008246484B454653445A4253418022DE4689
:1054B0004E46920294465B42E0B51B0C424A1B04E6
:1054C00063441360414A0D00414985B013601800E0
:1054D0008A689043FBD181460620FDF755FC534670
:1054E0005A6802231A400192524604321100029275
:1054F000C02280468020920111430B600391EF0D82
:1055000002216E02AB0DAA02400005E0904507D3D0
:1055100092197B4181424FD00C000231002BF5D013
:105520002B008026270245463F1BA04676001C0024
:1055300003E04346FF1A012E40D039002800B3464D
:10554000013EFFF779F88442F3D2444659463302CC
:10555000A8469946614353464A461C611B6850461B
:105560005340FF2212021340802252010243136073
:105570008023029C01989B011C4320600225504619
:10558000039E4068356056460727366828407740B6
:10559000CF263E4016602060504624301843032337
:1055A000036040462560FFF747F805B0F0BCBB46F6
:1055B000B246A946A046F0BD0C00B1E7444619002A
:1055C000A846C8E70040FCBF00E0004000F00040F3
:1055D00000C00040014B18607047C0468C0D002091
:1055E00010B50A000100024803F01EF810BDC046C5
:1055F000F40E0020014B18687047C0468C0D002047
:1056000010B582B0FFF7F6FF002807D003F0C6FA06
:1056100003000020002B12D002B010BD684603F03A
:10562000F9FC114C6946200003F0FAFC002804D074
:105630002000FFF7CFFF2000E8E70238ECE7FFF794
:10564000D9FF040003F0C6FA074B9C4202D00220A7
:105650004042E1E7236820005B6B98470020FFF79A
:10566000B9FF02204042D7E7100B002010B50248D6
:1056700000F00CF810BDC046A018002010B508229C
:105680000149FFF70DFC10BDA018002030B5002522
:1056900089B004000922002101A80095FFF7FAFB58
:1056A0000922002105A80495FFF7F4FB4B236A4665
:1056B0006846137004A90D2203F0F2FE152108229A
:1056C00020006944FFF7ECFB09B030BD10B50520A0
:1056D000FDF75AFB030C642003495843FEF7ACFF67
:1056E0000338FDD210BDC0469A3B00001C4B70B57C
:1056F000C4580500002C1BD00621615600290CDB84
:105700000522A256531C05D01649206803F0A2F8C2
:1057100006216156206802F0D7FF07202056002896
:1057200010DA08202056002803DA00220C4BEA5039
:1057300070BD03F06BF90820205603F04FF9FF23EA
:105740002372F2E703F062F90720205603F046F9CE
:10575000FF230820E37120560028E6DBE9E7C04676
:105760004C0800008C990010F0B5C64600B5494EB3
:10577000050082B03100484802F0D4FF002809D16A
:105780003100464802F0CEFF002800D179E0062221
:10579000424801E007224048414C424B0021EC5076
:1057A000FF2320602372E371227102F09DFF40B25B
:1057B000A071002868DB3100206802F0E7FF302389
:1057C000012640B2421D60711203C0011043364AE7
:1057D000024036489046016880228B433449920249
:1057E0000B60036830009843086020688023010044
:1057F0009B0138310B438021490419600621615611
:105800004B005B18DB00C3181F00C8373A604246E4
:105810007A601A00C027D032BF021760254ADC33F5
:105820001A6001231D22009603F080F818202179C8
:10583000FBF736FC012200211820FBF749FC01216F
:105840001820FBF75DFC0622A256002053009B188F
:105850002268DB009446184A6344D8331A6003F088
:10586000C5F8E071002003F0C1F8E37940B220727E
:105870007F2B09D8002807DB002002B080BCB84687
:10588000F0BD06204042F8E72800FFF72FFF062072
:105890004042F2E78C990010000030500000205088
:1058A000AC0E00204C080000FFFFFF9F78C00140B5
:1058B00078D0014018771C2401E00000F0B54E4676
:1058C0004546DE465746E0B587B088461600029347
:1058D000002900D1CCE05D4BC45818202179FBF79A
:1058E000DFFB1D202179FBF7DBFB012200211D20BE
:1058F000FBF7EEFBD02380221B0692049A61029BE9
:10590000002B00D0CDE006210122615691468A404D
:1059100020680368934303600523E3569C464B00CD
:105920005B18DB00C518CC352A68D0339246624636
:10593000013217030397464FC318BB4657465A46D2
:1059400017403A00039F17433A006746FF013A4366
:105950002A60802252011343802212061A601A60C4
:10596000802306255B041A0002F08EFF4A46655725
:1059700021682B1D9A409C4680239B010B431A6093
:1059800008229246AA4450464A4682401A60F300D2
:10599000AA008A18013B13616B005B19DB002D48DC
:1059A000CB18D8331860029810612B4A1A601F2256
:1059B000607902401A600723E356A0209B464B46BD
:1059C0005A469340254AC00583505B4680229F017A
:1059D000234B5204F81803681342FCD15B46214A5A
:1059E000DB02914200D164E11F4AB60813405246DF
:1059F000D20313431D4A1343A022D20591464246C7
:105A00004F443A606246900008187860BE60FB60C0
:105A100001232A00180018329040AB408860020031
:105A2000086803430B608B681A42FCD006210122F0
:105A3000615620688A40036893430360002318225C
:105A40000093013302F072FF16E1C0464C080000DB
:105A50007F00FEFF20600000406000004404000062
:105A60000C00005000002050FD7F00FF1900400096
:105A7000002B00D11FE1914BC45818202179FBF76E
:105A80000FFB1D202179FBF70BFB012200211D20BC
:105A9000FBF71EFBD02380221B0692049A61029B17
:105AA000984606210122615691468A402068036883
:105AB000934303600523E3569C464B005B18DB00D1
:105AC000C518CC352A68D033924662460532170392
:105AD00003977B4FC318BB4657465A4617403A00B8
