:020000041000EA
:1000000000B5324B212058609868022188439860DF
:10001000D860186158612E4B002199600221596106
:100020000121F02299502B49196001219960352056
:1000300000F044F80222904214D00621196600F024
:1000400034F8196E01211966002018661A6600F04E
:100050002CF8196E196E196E052000F02FF8012189
:100060000842F9D1002199601B49196000215960AB
:100070001A491B48016001219960EB211966A021F2
:10008000196600F012F800219960164914480160C1
:100090000121996001BC002800D000471248134993
:1000A000086003C880F30888084703B5996A0420EC
:1000B0000142FBD001200142F8D103BD02B5186610
:1000C0001866FFF7F2FF186E186E02BD00000240BE
:1000D000000000180000070000035F00212200005C
:1000E000F4000018222000A00001001008ED00E03C
:1000F00000000000000000000000000074B24E7A12
:1001000000200420F7010010C3010010C5010010F9
:10011000C1010010C1010010C1010010C101001097
:10012000C1010010C1010010C1010010C701001081
:10013000C1010010C1010010C9010010CB01001065
:10014000CD010010CD010010CD010010CD01001037
:10015000CD010010CD010010CD010010CD01001027
:10016000CD010010CD010010CD010010CD01001017
:10017000CD010010CD010010CD010010CD01001007
:10018000CD010010CD010010CD010010CD010010F7
:10019000CD010010CD010010CD010010CD010010E7
:1001A000CD010010CD010010CD010010CD010010D7
:1001B000CD010010CD010010CD010010CD010010C7
:1001C00000BE00BE00BE00BE00BE00BEEFF3058054
:1001D000103800BEF2EB8871E82B04100C2C0410D0
:1001E0003402001090A31AE700201F49086006C8D7
:1001F00081F3088810471D48006800282FD10DA4FE
:100200000ECC002902D000F012F8F9E71849194A7B
:10021000002000E001C19142FCD1174988471749ED
:1002200088471749884700BEFDE701C901C29A42C5
:10023000FBD370470C2C0410C0000020100C0020D1
:100240005C37041000000420000004205C37041018
:10025000001004200010042000000000704709482E
:1002600004F032FA0047000008ED00E0000000D082
:10027000100C0020681B002039340010E50300102A
:10028000F53300105756000006005250ABB36053D0
:1002900044A3001006005250861C030254A3001011
:1002A000060052505422A29D58A30010050052503F
:1002B000DE65F4685C370410F8B5C04610B5064C2E
:1002C0002378002B07D1054B002B02D0044800E017
:1002D00000BF0123237010BD580D00200000000056
:1002E00068900010044B10B5002B03D0034904485C
:1002F00000E000BF10BDC046000000005C0D002003
:100300006890001030B585B01C4B01221A700CE0CB
:100310006B46DA781300303BDBB2092B1AD8184948
:100320000B68581C086001A9CA54164B9B69102120
:100330000A001A4019421ED16B46D91C002AE7D187
:10034000104B9B69DB06FBD40E4B1B680B70013214
:100350000131F3E70A2A01D00D2AE6D1084C2368BF
:1003600001A80025C55408F067FC04F0E3FD064B26
:1003700018602560D9E705B030BDC046E80600200A
:10038000BC0E0020004003403C1B002070B5E1255E
:100390006D02124C2900200002F034FE02210020E0
:1003A00000F04EFF0221012000F04AFF290020004A
:1003B00002F0C8FD226BC0231B021A4008498023AB
:1003C0005B010B431A60002301220821200002F088
:1003D000E7FD0021200002F0F9FD70BD0040034060
:1003E00030400340F0B58FB004F09AFFFFF7CEFF26
:1003F0008C49142001F024F90121142001F008F99E
:10040000894B50229A635B6B183A1A4087498023C4
:100410005B010B431A6005F06DF9002800D0FAE08B
:10042000012105F033F9824C07230093013B04229C
:100430000521200000F072F97E4804F035FF3221DA
:10044000200000F048FA3221200000F095FA2069DF
:100450006669A76904F096FD04000D00381C04F0DD
:1004600091FD02900391301C04F08CFD00900191ED
:1004700022002B00704804F047FF0AA96F4B0A00C6
:1004800031CB31C21B6813606D4C6E4B01936E4BC8
:1004900000936E4B3222200000F0D4FA6C4804F036
:1004A00003FF200000F068FB6A4D280004F0FCFE0A
:1004B000694804F0F9FE200000F0E4FB280004F095
:1004C000F3FEFC24A405211C644800F06DFC211CF3
:1004D000634800F069FC002301930093614B624A7A
:1004E0006249634800F00CFD0121002005F0CEF8C0
:1004F000642002F0FDF80021080005F0C7F8642030
:1005000002F0F6F80121002005F0C0F812E0594B86
:10051000594A3F21594802F071FF564B564A3F2134
:10052000564802F06BFF00206BE014220023544871
:1005300004F0EAFE02F090F904000D1EE7DB3C4EE9
:10054000300000F089F93100283104AA434800F056
:1005500036FC3100343107AA414800F030FC07AACC
:1005600004A9434800F064FE464B1B78002B0BD0D7
:10057000444B00221A70444B186804F003FD02003B
:100580000B00424804F0C0FE394F4149B86C04F0FA
:10059000ADFC011C2A4E0122300000F0A1FB3C49B9
:1005A000F86C04F0A3FC011C0222300000F098FB60
:1005B0003749386D04F09AFC011C0322300000F02A
:1005C0008FFB786D324904F091FC011C042230004D
:1005D00000F086FB02F040F902000B1E9DDB121BAF
:1005E000AB4110001900FA229200002304F0E6F853
:1005F00004000D0014220023121BAB411000002B3D
:1006000091DB02F075F822002B1E8EDB002D8ED1BF
:10061000142C8CD289E71F4804F076FE012040425A
:100620000FB0F0BD0503001000400340344003400C
:10063000BC1800207C900010A4900010B89100100D
:1006400038180020CDCCCC3DCDCC4C3DA08601004F
:10065000D4900010E8900010F0900010481B00208B
:100660007C0D0020000040400AD7A33C48E17A3FBF
:100670004C18002000910010C89100101C9100102F
:10068000A0910010E80600203C1B0020749100108F
:100690000000F04168900010F0B5CE46474680B5A6
:1006A00083B00500904699466B46D81D0170CAB2CA
:1006B00080235B4213430370C046C046C0460124FA
:1006C00023006A6C9340D0263606B361C046C0460C
:1006D000C046114F01220100380008F09DFC0A209D
:1006E000002101F0D9FF4B4642460021380008F0B6
:1006F0005BFCC046C046C0466B6C9C407461C04603
:10070000C046C0460A20002101F0C6FF03B0C0BCAD
:10071000B946B046F0BDC04600C00340F0B5C6467D
:1007200000B582B005000E0017001C001D4B984656
:100730001D49180004F06AFF0121380000F080FD17
:100740000121200000F07CFD0121089800F078FDD7
:10075000300000F039FE01242300B340D0273F06CB
:100760007B627B616E6401A96C23FF330B80C04602
:10077000C046C04623006A6C9340BB61C046C04679
:10078000C0460222404608F047FCC046C046C0466C
:100790006B6C9C407C61C046C046C04602B080BCC9
:1007A000B846F0BD00C00340A086010070B505004A
:1007B000002419E06600705F04F0BCFB134904F0EC
:1007C00098FB23000A339B00E850AE190623F05E25
:1007D00004F0B0FBE221890504F09FFB23000C33F9
:1007E0009B00EB1858600134022CE3DD0C23E85E1B
:1007F00004F08AFA064A074B04F0FFF90022064B80
:1008000004F0F6F904F0C4FA286470BD0000034354
:1008100052B81E85EBDD74400000354070B506000F
:10082000002416E0231D9B00995925000A35AD00D0
:10083000A85904F058FB7051A31D9B00F318596888
:1008400025000C35AD007519686804F04CFB686034
:100850000134022CE6DD70BD30B583B00400062300
:100860006A463B21FFF718FF00220AE05300694661
:10087000C85C0002591C6D46695C0143E318D980CD
:100880000132022AF2DD06236A4643212000FFF7E7
:1008900003FF002309E05A006946885C0002511CEE
:1008A0006D46695C0143A1520133022BF3DD022343
:1008B0006A4641212000FFF7EFFE6B461A781202CC
:1008C0005B781343A3812000FFF770FF2000FFF740
:1008D000A5FF03B030BDF0B5D6464F464646C0B57D
:1008E00000AF05000E004B005B189B000733DB08D0
:1008F000DB006A46D31A9D46E84600240FE0280034
:10090000FFF7AAFF63001A1992004146A86A5050E7
:1009100013004344EA6A5A602A6B9A600134B44275
:10092000EDDB002399461AE063001B194B449B0042
:1009300042469958504604F0D9FA82460134B442EE
:10094000F2DB300004F0F6FA011C504604F0D1FA54
:100950004B4604339B00E85001239C46E1444B4640
:10096000022B03DC002400239A46E8E7BD46E0BCE6
:10097000BA46B146A846F0BDF0B5D6464F46464603
:10098000C0B500AF05000E004B005B189B0007339D
:10099000DB08DB006A46D31A9D46E84600240FE0D8
:1009A0002800FFF759FF63001A1992004146686B4F
:1009B000505013004344AA6B5A60EA6B9A600134AA
:1009C000B442EDDB002399461EE063001B194B4443
:1009D0009B0042469958504604F088FA82460134FA
:1009E000B442F2DB4B46022B15D0300004F0A2FAE1
:1009F000011C504604F07DFA4B4606339B00EB1871
:100A0000586001239C46E1444B46022B14DC002431
:100A100000239A46E4E7300004F08CFA011C5046AB
:100A200004F067FAFE21890504F05DFA4B460633AF
:100A30009B00EB185860E4E7BD46E0BCBA46B146FF
:100A4000A846F0BDF0B5DE4657464E464546E0B5F1
:100A500083B08246009101929B46180004F064FA2C
:100A6000041C0C9904F059FA04F086FA53461880D5
:100A70000D99201C04F051FA04F07EFA5346588078
:100A80000023994617E00A0061E0374A31684B407D
:100A900013408022520116433360A3001C19A400A6
:100AA000324B9C466444216801238B4314432360EA
:100AB00001239C46E1444B46032B4DDC4B469B00F7
:100AC000009AD71853443A685A600421386800F0F5
:100AD000B7FB3B685C0807263440052002F0D6FBD4
:100AE00001995B46594303F043FE04F01DFA80462A
:100AF00004F042FAC5B2280004F01CFA011C40467A
:100B000004F0F1F98321C90504F007FA04F034FA7E
:100B1000C0B22D010543A3001B199B00134A944644
:100B200063445D605A461204120C1A613A685346D7
:100B30001B8855083540012001001140AE00761990
:100B4000B6000B4DAC46664410429CD01022934038
:100B500000299AD0074A99E703B0F0BCBB46B246D9
:100B6000A946A046F0BDC046FFFF000000000540BA
:100B70000C0005400000FFFFF8B5040000200AE06B
:100B800039001DE03B491D686A400A408021490147
:100B90000B431A600130032817DC8300E3185D68FB
:100BA0002288690807231940012637002F408B004F
:100BB0005B189B0030498C4663442E42E0D01021E4
:100BC0008A40002FDED02D49DDE700200AE0390001
:100BD0001DE028491D686A400A40802149010B43F5
:100BE0001A600130032817DC8300E3185D6862880F
:100BF000690807231940012637002F408B005B1836
:100C00009B001D498C4663442E42E0D010218A404F
:100C1000002FDED01949DDE7194801F069FD0020F9
:100C20000AE039001DE013491D686A400A4080212E
:100C300049010B431A600130032817DC8300E318D5
:100C40005D682288690807231940012637002F4074
:100C50008B005B189B0008498C4663442E42E0D011
:100C600010218A40002FDED00449DDE7044801F05E
:100C70003FFDF8BDFFFF00000C0005400000FFFF36
:100C8000AC0D000070B54468028861080723194064
:100C90000120050025408B005B189B000C498C4609
:100CA000634420420FD010218A40002D0DD0094905
:100CB000186842400A40802149010B431A600648E7
:100CC00001F016FD70BD2900EEE70449F0E7C046CB
:100CD0000C0005400000FFFF88130000FFFF00002C
:100CE000F0B5C64600B50700081C160004F04AF926
:100CF0000022274B08F098F902000B000020002189
:100D000008F06AF904F044F8041C013E032E02D9ED
:100D100080BCB846F0BD3B8898467888C01A04F07D
:100D200009F9211C04F0F9F804F02CF9194A1A4BBE
:100D300003F07DFF04000D00404603F0E5FF2200B4
:100D40002B0003F055FF04F01BF880B2B600BE196B
:100D500071684A0807231A40012425000D409300BA
:100D60009B189B000D4A944663440C420CD0102201
:100D70009040002D0AD00A4A19684840104080224D
:100D8000520113431860C3E72A00F1E7054AF3E76D
:100D9000000059407B14AE47E17A843F0C000540C7
:100DA0000000FFFFFFFF00000160002304E09A1C29
:100DB0009200002111500133022BF8DD7047F0B58D
:100DC000D6464F464646C0B50700894690460024A1
:100DD00019E03D68A6004B469959281C04F09DF87F
:100DE0008246291CFE20800504F07DF8A51CAD007C
:100DF000E95904F092F8011C4644504604F076F894
:100E00003060E8510134022CE3DDE0BCBA46B14663
:100E1000A846F0BD0023036043608360C3600361A4
:100E2000436170478164C2640365009B43657047FA
:100E300084B010B582B0040005910692079305991D
:100E40000B9804F050F820600C9B0093069B0193D4
:100E5000191C009804F047F860600D9B0093079BF5
:100E60000193191C009804F03EF8A0600E9B0093BB
:100E7000089B0193191C009804F035F8E0600F9B63
:100E80000093099B0193191C009804F02CF8206131
:100E900010980A9904F027F86061200002B010BC95
:100EA00008BC04B018470000F0B5C64600B58AB0CB
:100EB0000690079108920993079E089F099B984600
:100EC000069804F05FF804000D00404604F05AF85C
:100ED00004900591381C04F055F802900391301CE1
:100EE00004F050F80090019122002B00034804F018
:100EF0000BFA0AB080BCB846F0BDC046E0910010C5
:100F000030B585B005008165C2650366089B436600
:100F1000099B836600240094231C221C211CFFF7DC
:100F200081FF029401940094231C221C211C2800A0
:100F3000FFF770FF05B030BDF8B5CE46474680B527
:100F400080460C1C80231B06C81804F01BF8060002
:100F50000F0043461B689946201C04F013F8040058
:100F60000D00484604F00EF822002B0008F05CF853
:100F700002000B003000390008F02EF803F008FFE3
:100F800043461860586803F0FDFF22002B0008F06C
:100F90004BF802000B003000390008F01DF803F098
:100FA000F7FE43465860986803F0ECFF22002B00E0
:100FB00008F03AF802000B003000390008F00CF895
:100FC00003F0E6FE43469860D86803F0DBFF22009A
:100FD0002B0008F029F802000B003000390007F060
:100FE000FBFF03F0D5FE4346D860C0BCB946B0460F
:100FF000F8BD0000F0B5CE46474680B591B004007C
:1010000003A9030018330A0023CB23C223CB23C236
:10101000243B6A4623CB23C221686268A3680AA8DE
:10102000FFF706FF236E98460A99181C03F075FF18
:10103000051CFC21890503F070FF002103F056FF19
:10104000071C80231B06E818FC21890503F065FFB7
:10105000002103F04BFF061C0B99404603F05DFF97
:10106000051CFC21890503F058FF8046391C03F05C
:101070003DFF8146311C404603F038FF8046802307
:101080001B06E818FC21890503F047FF051C391CE5
:1010900003F02CFF071C311C281C03F027FFA7645A
:1010A0004B46E364206543466365200048300749AA
:1010B000FFF742FFA06CE16C226D636DFFF7F4FE59
:1010C00011B0C0BCB946B046F0BDC0460000F0410A
:1010D000F0B5DE4657464E464546E0B583B00400BF
:1010E0000F0015009168506803F058FF03F04AFFA5
:1010F00000224C4B03F09BFD4B4A4C4B03F07DFD13
:1011000003F046FE82462E686968081C03F005FF5E
:101110008046A868011C03F000FF011C404603F054
:10112000E5FE03F035FF011C80231B06F01803F0D9
:1011300035FF03F027FF00223A4B03F078FD3A4ACF
:101140003A4B03F05AFD03F023FE0090E56D291C95
:10115000386803F0E2FE061C7968281C03F0DDFE07
:101160008046B968281C03F0D8FE0190A76D23685B
:101170009B46311C181C03F0B9FE011C381C03F0FF
:10118000CCFE8146391CFE20800503F0ACFE061C17
:10119000514603F0C2FE011C484603F0A7FE8246FA
:1011A000636899464146181C03F0A0FE011C381CD8
:1011B00003F0B3FE071C0099301C03F0AEFE011CC7
:1011C000381C03F093FE061CA7680199381C03F035
:1011D0008DFE80465946504603F085FE291C03F0DB
:1011E00088FE83464946301C03F07DFE291C03F02F
:1011F00080FE8146391C404603F075FE291C03F031
:1012000078FE5346236066604346A3605B46E36016
:101210004B462361606103B0F0BCBB46B246A946B1
:10122000A046F0BD00806640182D4454FB210940C3
:1012300010B50400FFF74CFF2000FFF7DBFE10BDE8
:1012400010B58300084A944663441C6840226240FB
:10125000C02414408022520113431C60C000034B81
:101260009C466044416010BD04C001400040014004
:1012700080000B4B9C46604400290DD00823002AB7
:101280000CD004221343026853400C2213408022E6
:1012900052011043036070470023F0E70022F1E79A
:1012A00004C00140002909D08000094B9C466044DD
:1012B00080239B0118430223036070478000044B86
:1012C0009C466044C0239B01184302230360F4E75B
:1012D00004C0014070B5D0231B061B689D00094C5B
:1012E0002C59204207D19B002043064C18510D2059
:1012F00000F0D0F970BD044B044ACC21044802F040
:101300007DF8C0461419002008920010D8920010F1
:101310003492001010B50400D0231B061B689B00FC
:101320000A4A9B5818420BD00D2000F0CDFAD0236A
:101330001B061B6805499B005A58A2435A5010BD12
:10134000034B044AD621044802F058F8141900202F
:1013500088920010B49200103492001007230340CA
:101360009B00C00899403C308000014BC150704741
:1013700000400140F8B507000C0016001D00FFF703
:10138000EDFFFB089B00ED180720384080008440EB
:10139000002E04D080239B011D432C60F8BDC02388
:1013A0009B011D432C60F9E710B5D0231B061B6879
:1013B000002B03D0024BFFF7DDFF10BD014BFAE716
:1013C000304101400041014010B501238340D0224B
:1013D0001206936293610521FFF732FF10BD0000F2
:1013E000034B1B6802201840431E9841C0B270474F
:1013F00000C00640EFF3108072B6034B1B68002B51
:10140000FBD0BFF35F8F70472C0100D0BFF35F8F1D
:10141000024B00221A6080F3108870472C0100D024
:10142000F8B506000C001500FFF7E4FFE308F71815
:10143000F15C07222240012393400B4205D1DBB22D
:101440000B433B70FFF7E2FFF8BD2100280002F0DC
:101450006FF8F0B583B00600019114001F00FFF78C
:10146000C9FF00E00134BC420CD8E308F518F35C76
:101470000721214001228A401A42F3D1D2B21A43F5
:101480002A7001E001246442FFF7C0FF002C02DB58
:10149000200003B0F0BD019B002BF9D0089802F0AA
:1014A00047F8000070B505000C00FFF7A3FFE30844
:1014B000EE18EA5C07210C400123A340134204D03C
:1014C0009A433270FFF7A2FF70BD034B034A2C31E1
:1014D000034801F093FFC0460C9300108093001066
:1014E0002C930010002307E0054A9A189200BFF3DE
:1014F0005F8F0021116001331F2BF5D97047C04663
:1015000040000034054A1078431CDBB21370172BDF
:1015100002D9130010221A707047C046E906002055
:10152000074B9B68103080001950BFF35F8FBFF3EB
:101530005F8F044B0021196082F310887047C0460A
:1015400000ED00E0240100D01F23181A70470000AE
:1015500010B5091A081F0A4B9C466144094A91427A
:1015600008D8C30706D440104005400D064B184369
:1015700080B210BD054B064AA321064801F03EFF8C
:10158000FC070000FE0F000000E0FFFF909300103A
:1015900010960010C093001010B5091A04394C08B9
:1015A000090B08D14905490D064A11430180064B34
:1015B0002343438010BD054B054AAB21054801F08C
:1015C0001DFFC04600F0FFFF00F8FFFF1094001061
:1015D000E4950010C093001001238340034A106873
:1015E0001840431E9841C0B27047C04600E100E079
:1015F000002904D0034B1860034B18607047034B5D
:101600001860FBE780E200E000E100E080E100E03C
:1016100010B5012383401800FFF7EAFF10BD00005A
:1016200001238340014A13607047C04600E200E096
:10163000024B9B6810308000C058704700ED00E0FE
:1016400070B504000D00EFF3108672B60C4B1B68EA
:10165000002BFBD0BFF35F8F2000FFF7E9FF094BA2
:10166000984201D0A84205D1320029002000FFF79E
:1016700057FF70BD044B054A8621054801F0BEFEA8
:10168000240100D0CD0100102094001044960010D9
:10169000C0930010F0B5DE4657464E464546E0B5CD
:1016A00089B0814601911500EFF3108A72B6744B30
:1016B0001B68002BFBD0BFF35F8F724B0027DF57F7
:1016C000002F40DB7C00E419A4006F482418062298
:1016D000A2566C4B1A706D4B9A684B4610339B00A8
:1016E000D35898461E001B1A2F2B38D9684B9845A3
:1016F0002FD105AE674B33807B009B46D819800005
:10170000614B9846404402306349FFF721FF7080E7
:10171000624BB380FF23B371F571019B07935F4464
:10172000BF0047440ECE0EC701231C43A0465246BD
:1017300041464846FFF7F4FE09B0F0BCBB46B2464E
:10174000A946A046F0BD564B564AD721564801F04F
:1017500055FE564B534ADE21534801F04FFEC0431D
:1017600040440C2103F004F8002912D101239E43C8
:10177000B34633000026DA79AA4211D90621595618
:1017800000290CDB4A00521892001E003E4B9B18A9
:10179000F1E7474B434AEA21434801F02FFE1E0080
:1017A000002E3AD005AB434A1A80813A5A8006236C
:1017B000F3560293002B17DA3F4805AB9B469880FF
:1017C000029A9A71DD71019A0792301D2100FFF78C
:1017D000BFFEB080B7717B00DB199B002A4FFF185A
:1017E0005B4607CB07C7A2E77800C0198000264BED
:1017F000C0180430321DB388D90A1C2907D15B05F3
:101800005915023149005118FFF7A2FED5E72B4BBD
:101810002B4AB121244801F0F1FD05AE1D4B338068
:101820007B000293D8198000174A90460200424478
:101830000392901C1849FFF78BFE7080039A101DCD
:101840005946FFF785FEB0801E4B5A464146521A54
:10185000524153431B0DB371F571019A0792029BDC
:101860009C466744BF0047440ECE0EC7114B5A46F4
:101870001380813B538001231C43A04657E7C04699
:10188000240100D0631B0020EC06002000ED00E0E6
:10189000CD01001000A1FFFF1C07002001BDFFFFCC
:1018A000589400102C960010C093001080940010E3
:1018B000A89400100148000001BD00001C95001014
:1018C0001C960010AAAA0000F0B5CE46474680B587
:1018D00083B006000D00EFF3108872B6564B1B68FC
:1018E000002BFBD0BFF35F8F544B9A683400103449
:1018F000A300D758524B9F4207D0AF4200D198E087
:101900000197504BFB1A2F2B09D942463900300062
:10191000FFF706FE03B0C0BCB946B046F0BD3000CC
:10192000FFF75AFE814600213000FFF771FEBFF33A
:101930005F8FEFF30581002901D08C4211D1012383
:10194000019C9C430022A368AB4212D00622A256FF
:10195000002A0DDB53009B189B002200394CE41831
:10196000F1E73621384B394AFF31394801F046FD5D
:101970002200AB4256D106256557002D38DB6B009F
:101980005B199A002F4B9B189A68A260DA79E27172
:1019900006229A56A2719B795BB2002B0FDA2D4872
:1019A000A0806B005B199B00264AD3182A4A117845
:1019B0009971157049463000FFF72AFEA5E7201DF2
:1019C0006B005B199B001F4A9B181A1D9B88D90A44
:1019D0001C2907D15B055B15023359005118FFF72D
:1019E000B7FDDDE71D4B1E4AB121194801F006FD88
:1019F000002912D1002A0ED0FF239371194B938036
:101A0000154A1378A371184B0E49641A6441634355
:101A10001B0D1370CEE70A4FF2E7201D1349FFF7A5
:101A2000BBFDC7E76A21124B084AFF31084801F0A5
:101A3000E5FC034F69E7C046240100D000ED00E05B
:101A4000CD010010EC06002034950010FC9500102C
:101A5000C093001001BD0000631B00201C95001006
:101A60001C96001001BDFFFFAAAA00002607002057
:101A70006895001010B5032304009C43064A944661
:101A8000644422681840C000FC3383409A4313002A
:101A900081400B43236010BD00E400E070B50121DC
:101AA00001432E4BCB1A2F2B28D8EFF30583002BA5
:101AB0002BD0EFF3108C72B6294A1268002AFBD0A3
:101AC000BFF35F8F274A0400244D641B64416243C7
:101AD000120D54B2244A92689B00D2588A421BD0FD
:101AE0000022032A32D853009B189B001B49CB18B5
:101AF0009B795BB2A3421FD00132F2E7C7211B4B97
:101B00001B4A49001B4801F079FC92211A4B184AE4
:101B1000FF31184801F072FC134A92681749D150FE
:101B2000174B1A7882711C70BFF35F8F0C4B002229
:101B30001A608CF3108870BD0D005300991889004D
:101B40006918FF268E710F4A8A80E9E7D1210E4B72
:101B5000074A4900074801F051FCC046EC06002046
:101B6000240100D0AAAA000000ED00E0709500104A
:101B7000C8950010C093001098950010CD0100107A
:101B8000631B002001BDFFFFA49500100022044B41
:101B900002E0044902C30132072AFAD97047C0465D
:101BA00000E400E08080808010B5FFF7CDFC0100EC
:101BB0000148FFF777FC10BD651B002000B583B01E
:101BC0000100064B0093052300220548FFF741FC66
:101BD000002801DB1F23181A03B000BDAC950010CC
:101BE000651B002070B504000E001500FFF78AFC8D
:101BF0000100200000F006F8A680E580BFF35F8FAB
:101C000070BD0000024B9C46614489000160704732
:101C10004000003410B50400FFF774FC0100200000
:101C2000FFF7F0FFFF232371BFF35F8F10BD10B5E7
:101C30000400FFF767FC01002000FFF7E3FFFF232C
:101C4000237100236371BFF35F8F10BD70B5050072
:101C50000C00080000F000FF0949200000F040FEE1
:101C6000FFF750FC074B9C466044800068602C7571
:101C7000D0231B061B786B75A400034BE55070BD89
:101C8000911F001040000034041900200A4B1A680C
:101C9000EFF3108172B61368002BFCD0BFF35F8F97
:101CA000054B1B68BFF35F8F00221A6081F3108819
:101CB00040BF002000217047281B002010B50029DC
:101CC00022D003681B7B99421ED8174B9C46614467
:101CD000090183689C4661440C684968002A19D050
:101CE00003681B7B9A4215D883680F488446624478
:101CF00012019A1810685368020001208B4201D823
:101D00000ED00020C0B210BD084B094A3C21094842
:101D100001F074FB054B064A3C21064801F06EFBBE
:101D2000A242EFD8EDE7C046FFFFFF0FD8970010A3
:101D30004C9A00108C97001010B500291ED0037B20
:101D400099421BD84B005B18033B0468A4466344CC
:101D5000002919D0002A1DD0914221D0002A25D077
:101D6000047BA24222D8046850008018033820184F
:101D70008170197800291FD11A7010BD104B114ABB
:101D80006821114801F03AFB104B114A6F310E489F
:101D900001F034FB0F4B0E4A70210B4801F02EFB73
:101DA0000D4B0B4A7121084801F028FB044B054AF2
:101DB0006821054801F022FB41701A70DDE7C0463A
:101DC000FC970010B89A0010189800107498001032
:101DD000949A0010809800108C98001070B506003E
:101DE0000D001400002914D0002A14D080687368F4
:101DF0009847002806D0220029003000FFF79CFFFA
:101E0000280007E02A0021003000FFF795FF20009E
:101E100000E0100070BD0800FCE70000F0B583B0E2
:101E20000500009201930AAB1C780BAB1F78002CC5
:101E300026D003685A7B944207D10123002B19D185
:101E4000002C3BD1200003B0F0BD002C0CD01A7B3D
:101E5000944209D81A6863001B19033BD3189B7876
:101E6000002BEBD00123E9E73E4B3F4A68213F4876
:101E700001F0C4FA3E4B3F4A67213F4801F0BEFAE9
:101E800003689C7B002CDBD012D01A7B94420FD8C5
:101E900062001219033A19688C46624451789973AA
:101EA000002900D1D9730023937053701370C7E7D2
:101EB0002C4B2D4A68212D4801F0A0FA002C3AD075
:101EC0002B681B7B9C4236D82C4BE3181B01AA685D
:101ED00094466344009A1A60019A5A60089A9A607C
:101EE000099ADA602E68002C2BD030D0337B9C42CC
:101EF0002DD863001B19033B3268944663440022CB
:101F00009A705A701A70717B22003000FFF766FFDA
:101F10007073844200D095E7287D009A019B00F001
:101F200027FD061E01D0002F17D00C9B002B00D1DF
:101F300088E71E7086E7124B124A3C210E4801F0DA
:101F40005DFA114B114AA521084801F057FA054BDB
:101F5000054A6821054801F051FA2868210000F07F
:101F60003FFFE2E7FC970010B89A001018980010A5
:101F7000A4980010C49A00108C970010FFFFFF0F68
:101F8000D89700104C9A001088970010A89A00105B
:101F9000F0B5DE4657464E464546E0B58BB0099053
:101FA000002308938200B54BD658370052E0B44B5B
:101FB000B44A3F21B44801F021FAB44BB44A3C2161
:101FC000B44801F01BFA002901D1002869D1002191
:101FD000404600F0FBFEA04219D12A686B680692C9
:101FE0000793AB689846EB689A464346002B14D09B
:101FF000002C18D03B681B7B9C4214D8631EFA68E7
:10200000D35C08931B0218433861002015E0A24BF3
:10201000A24A8E219F4801F0F1F9A14B9F4A9221DB
:102020009C4801F0EBF9994B9E4A4121994801F0F7
:10203000E5F900239A46984600207B68BFF35F8F3E
:1020400000221A6086F310884346002B32D1002804
:1020500000D10CE100F000FC02000B1EA7DB002009
:102060000021069007917868EFF3108672B6016838
:102070000029FCD0BFF35F8F396888464C7B002C69
:10208000D7D09AD0097B8C4297D8874965182D0103
:10209000B9688C46654428686968801A99410029A6
:1020A00091DD2A686B68099800F062FC00239A466B
:1020B0009846C2E7089B1B022343994651461800E5
:1020C000C04705000E007A68EFF3108B72B61368F4
:1020D00059424B41D9B2002BF9D1BFF35F8F002E8B
:1020E0001EDB002E46DD3B69002B47D04B456DD1F2
:1020F00000F0B2FB02000B1E6EDB52197341002B85
:1021000070DB002B72DB00210491013103910294FA
:1021100051460191414600913800FFF77FFE4CE0A7
:102120003B69002BDDD04B4514D1069A079B521B0F
:10213000B341002B14DB002B16DB0021049101318D
:102140000391029451460191414600913800FFF7F6
:1021500065FE32E0554B514AA1214E4801F04EF93F
:1021600001225242524BE6E7454B464A3F21464840
:1021700001F044F9002E01D1002DB4D13B68002CB0
:1021800050D05A7B944237D1012100294AD1DA7BC1
:10219000002A4DD19A7B002A03D1DA7B002A5AD13A
:1021A0009C73DC73002C5CD03B681B7B9C4258D832
:1021B000FA68013C135D0133135500233B617A68D3
:1021C000BFF35F8F13608BF3108843E7374B334ABD
:1021D000A421304801F012F9294B2A4A3F212A480C
:1021E00001F00CF901225242314B8AE7244B254A77
:1021F0003F21254801F002F9002C0DD01A7B9442B2
:102200000AD862001219033A186884466244927828
:10221000002ABAD00121B8E7264B274A682127486F
:1022200001F0ECF8264B274AF621244801F0E6F8A5
:10223000002A0AD0197B8A4207D851008A18033A2B
:1022400019688C4662445470A4E71A4B1A4A6821F4
:102250001A4801F0D3F81C4B1A4AFB21174801F029
:10226000CDF80A4B0F4A41210A4801F0C7F80BB0DC
:10227000F0BCBB46B246A946A046F0BD04190020FA
:1022800000910010189A00101C910010D8970010AF
:102290004C9A00108C970010CC980010309A0010C7
:1022A000E4980010709A0010FFFFFF0FF0980010E4
:1022B000FFFFFF7FFC970010B89A001018980010DD
:1022C0002C990010849A00105099001010B50C4BF6
:1022D0005B68002B04D00A210A48FFF793FC10BD6D
:1022E000074C2300084A1021206800F07FFC0320DF
:1022F00000F0A6FA03212000FFF7A8FCEBE7C04698
:1023000034070020281B0020BD1C001010B5064B10
:102310005B68002B01D0044810BD044B044A5E21C9
:10232000044801F06BF8C04634070020649900109F
:10233000589A00108C970010F0B5DE4657464E466E
:102340004546E0B58BB0804616001F00149B9A46A8
:10235000159B994616AB1B789B461F2302AA9446F1
:10236000634400221A702BE0002809D0424612680C
:10237000127B904204D8421E4146C9688A5C41E003
:10238000404B414A4121414801F038F807984CE060
:10239000361BAF41002F07DB002F11DA3C4B3D4AC3
:1023A0003F213D4801F02AF8012676423B4FF3E7F2
:1023B000374B384A3F21384801F020F8002F4FDBD7
:1023C00043465A68EFF3108472B6136859424B4182
:1023D000D9B20791002BF8D1BFF35F8F1F3302AA48
:1023E0009446634404930023039302934B46019362
:1023F0005346009332003B004046FFF70FFD031E9B
:10240000B2D1020041464968BFF35F8F00250D60DD
:1024100084F31088002B29D01F2302A98C46634423
:102420001B78002BB2D112021043002B20D05B4648
:10243000002B1DD04946D04704000D0003000B437C
:102440001DD00029A4DB00F007FA06000F1EAFDB49
:1024500036196F41002FB1DA012676420F4FADE7F2
:102460000B4B0C4A3F210C4800F0C8FF01204042B2
:102470000BB0F0BCBB46B246A946A046F0BD0798DB
:10248000F6E7C046D8970010709A00108C9700109D
:1024900000910010189A00101C910010FFFFFF7FA0
:1024A000F8B50400002900D162E04268EFF310851E
:1024B00072B6136858424341D8B2002BF9D1BFF32A
:1024C0005F8FCBB22268567BB3421BD1012000281C
:1024D00048D0206988422BD0090AC9B2002B2ED0DF
:1024E0002068007B83422AD8581EE668305C884208
:1024F0002BD000206368BFF35F8F00221A6085F342
:102500001088F8BD002B0DD0167BB3420AD85E00B0
:10251000F618033E1768BC466644B678002ED6D03F
:102520000120D4E7134B144A6821144800F066FFD9
:102530002C21134B134AFF31134800F05FFF134B5C
:10254000134A4121104800F059FF1900100000F013
:1025500047FC0028CED199210E4B0A4A49000A486F
:1025600000F04CFF23698B42C4D100232361C1E7F3
:102570000020C6E7FC970010B89A001018980010C9
:1025800088990010009A00108C970010D8970010BE
:10259000709A0010AC990010407D7047F0B587B07C
:1025A00006000F00EFF30583002B1FD106246442C1
:1025B000E517A4197D418D4202D803D1844201D987
:1025C00000240025002D14DB0494059500F044F947
:1025D00002000B1E13DBA41A9D41002D17DC14D042
:1025E0003000390000F044F907B0F0BD234800F096
:1025F0009FFF234B234A3F21234800F0FFFE204B3F
:10260000204A3F21204800F0F9FE002CE8D0FFF7D7
:102610007DFE0023029301931C4B0093049A059BBB
:10262000FFF78AFE002818DADAE7002300E000232B
:10263000002BD5D1164B1A68EFF3108172B61368D0
:10264000002BFCD0BFF35F8F114B1B68BFF35F8F74
:1026500000221A6081F3108820BF0499059A0D4B5F
:102660005B6A9A42E3D80B48806A884203D29A4256
:10267000DBD00123DCE70123DAE7C046B099001084
:1026800000910010189A00101C9100108D1C001071
:10269000281B00200040054070B504000D0000F02C
:1026A000DBF802000B1E0ADB2000290080185941CC
:1026B00000290ADB00290CDBFFF770FF70BD084B17
:1026C000084A3F21084800F099FE0120404207498E
:1026D000F0E7034B034A3F21034800F08FFEC0465A
:1026E00000910010189A00101C910010FFFFFF7F4E
:1026F00010B5FA2292000023002102F0D7FBFFF769
:10270000CBFF10BD70B584B005000C00EFF305835E
:10271000002B1ED1FFF7FAFD002302930193224BF9
:1027200000932A002300FFF707FE061E23DD20BFCB
:10273000FFF7ECFD3100FFF7B3FE1C4B5B6A9C42D8
:102740002DD81A4A926AAA422CD29C4225D0012046
:1027500026E0164B5B6A994209D8144A926A824273
:1027600007D2994201D001201AE0002018E0002091
:1027700016E0012014E00D4B5B6A9C4209D80B4A1D
:10278000926AAA4207D29C4201D0012008E00020B0
:1027900006E0002004E0012002E0002000E000202C
:1027A00004B070BD0120FBE78D1C00100040054007
:1027B00070B5EFF305801038EFF3108C72B61A4B3A
:1027C0001B68002BFBD0BFF35F8F012213008340F7
:1027D00016494B6316490B60164909780C00C44032
:1027E000224214D0114A546A8200134D5259944225
:1027F00006D38200114C125999430E4B197007E011
:102800000A4A031D9B0099589950002200E00022BB
:10281000BFF35F8F044B002119608CF31088002AEE
:1028200000D0904770BDC046280100D00040054050
:102830003C700540641B00202C1B0020900D0020E4
:1028400010B50100024A0348FEF7EAFD10BDC0467C
:10285000E89A0010611B0020044B5B6A034A906AEF
:102860001900536A9942F9D17047C04600400540AB
:10287000084B5B6A01E0074B5B6A8B42FBD301E0CC
:10288000044B5B6A8B4203D1024B9B6A8342F7D3B2
:102890007047C0460040054070B504000D00FFF7CA
:1028A000DBFF02000B0020002900801859418B42F9
:1028B00002D804D1824202D901204042C117002926
:1028C00002DBFFF7D5FF70BD024B034A3F210348EF
:1028D00000F094FD00910010A09B00101C910010CE
:1028E00070B504000D00EFF3108672B61B4B1B6829
:1028F000002BFBD0BFF35F8F002D1CD02000FEF714
:1029000097FE174B83420BD019002000FEF798FE6C
:1029100001212000FEF77CFE0123A340114A136031
:10292000A400114BE550BFF35F8F0C4B00221A60DF
:1029300086F3108870BDA2000B4B0021D1500122FC
:10294000A2400A490B7893430B7005492000FEF71B
:10295000BBFF00212000FEF75BFEE4E7280100D06A
:10296000B127001038600540900D0020641B002046
:10297000F0B5DE4600B584B00400150001921E00DB
:102980000293FFF769FF03958E4202D84ED185422C
:102990004CD9EFF3108B72B6274B1B68002BFBD082
:1029A000BFF35F8F254A17780125A540EBB23B4363
:1029B0001370234B5D63221D92000199D150A20038
:1029C0002049029850501B6A2B4212D11C4B1B6CA1
:1029D0002B4208D00020BFF35F8F174B00221A60F4
:1029E0008BF3108823E0184B184AC521184800F0D3
:1029F00005FDFFF731FF8E4214D802D1039B8342BD
:102A000010D80E4B1B78BB420ED00D4B1D625D6380
:102A10001F2004400123A3400E4A1360074B1F7080
:102A20001E38D8E70020D6E70120D4E7012004B003
:102A300080BCBB46F0BDC046280100D0641B00200E
:102A4000004005402C1B00200C9B0010849B0010B4
:102A5000309B001080E200E0EFF3108C72B60B4B5D
:102A60001B68002BFBD0BFF35F8F01238340084A14
:102A7000136208490A789A430A70BFF35F8F034BC9
:102A800000221A608CF310887047C046280100D0DD
:102A900000400540641B002010B500291ED0037BB8
:102AA00099421BD84B005B18033B0468A44663445F
:102AB000002919D0002A1DD0914221D0002A25D00A
:102AC000047BA24222D804685000801803382018E2
:102AD0008170197800291FD11A7010BD104B114A4E
:102AE0006821114800F08AFC104B114A6F310E48E2
:102AF00000F084FC0F4B0E4A70210B4800F07EFC66
:102B00000D4B0B4A7121084800F078FC044B054A34
:102B10006821054800F072FC41701A70DDE7C0467C
:102B2000FC970010B89C00101898001074980010C2
:102B3000A49C0010809800108C98001070B50600BE
:102B40000D001400002914D0002A14D08068736886
:102B50009847002806D0220029003000FFF79CFF8C
:102B6000280007E02A0021003000FFF795FF200031
:102B700000E0100070BD0800FCE7000010B5002365
:102B8000437301338373037BC3730123027B9A4234
:102B900014D9002B0CD0027B934209D85A00D218CA
:102BA000033A01688C4662440133DBB25370EDE7AF
:102BB0000B4B0C4A68210C4800F020FC002A09D07D
:102BC000924207D8016853009A18033A8A180023E2
:102BD000537010BD024B034A6821034800F00EFCFD
:102BE000FC970010B89C00101898001010B50173E5
:102BF00042608360FFF7C2FF10BD000070B50400A3
:102C0000081E00D170BD002934D0237B994231D8F1
:102C10004B005B18033B2268944663445A78002AB1
:102C2000F0D02DD0237B9A422AD853009B18033B27
:102C300021688C4663445D7800215970002825D0B6
:102C4000237B984222D843001B18033B21688C4603
:102C500063440021597001002000FFF76FFF060058
:102C600029002000FFF7CAFF020031002000FFF713
:102C700065FFC7E7084B094A6821094800F0BEFB19
:102C8000054B064A6821064800F0B8FB024B034A90
:102C90006821034800F0B2FBFC970010B89C0010BC
:102CA0001898001070B505000C00160000292FD0F0
:102CB00034D0037B994231D84B005B18033B026848
:102CC000944663445A78002A2ED19A78002A31D14A
:102CD0001978FFF793FF0300002E0AD0EA7B002A41
:102CE0002ED1AA7B002A03D1EA7B002A3BD1AC7308
:102CF000EC73002B3DD1002C4FD02B7B9C424CD849
:102D00002B6861000C19033C1C190023637070BD13
:102D1000254B264A3821264800F070FB254B264AD1
:102D20006821264800F06AFB254B204A3A212048BA
:102D300000F064FB234B1D4A3B211D4800F05EFB65
:102D4000002A0AD0297B8A4207D851008A18033A00
:102D500029688C4662445470C3E7164B164A6821B2
:102D6000164800F04BFB184B104A4221104800F067
:102D700045FB002B0BD02A7B934208D843001B183D
:102D8000033B2A689446634400229A70B3E7094BD8
:102D9000094A6821094800F031FB064B064A6821C0
:102DA000064800F02BFBC046B89B0010909C00101A
:102DB000C09B0010FC970010B89C001018980010E1
:102DC0000C9C0010349C00105099001070B5040049
:102DD0000A00457B2900FFF765FF6073280070BD7E
:102DE00070B50400002967D0437B8B420ED00029C8
:102DF00011D0037B99420ED84B005B18033B02684D
:102E0000D0188378002B0CD1002056E00121FFF769
:102E1000DDFF012051E0294B294A6821294800F0B3
:102E2000EDFA002B20D0227B93421DD85A00D318F4
:102E3000033B2268D2182568EB5C8B421AD0002B2A
:102E40001BD0227B934218D85A00D318033B226828
:102E5000D21853788B4216D0002BF0D11A4B1B4A54
:102E60006B211B4800F0CAFA144B154A682115481B
:102E700000F0C4FA4378137007E0104B104A682141
:102E8000104800F0BBFA43785370002383704370FE
:102E900001222000FFF706FF0200617B814205D07E
:102EA0002000FFF74BFE6073012006E0094B074A44
:102EB0007121074800F0A2FA002070BDFC970010B5
:102EC000B89C001018980010A4950010789C001071
:102ED000C09B0010589C001070B5046BE30701D430
:102EE000200070BD02003032C0239B0113430A4A08
:102EF0001A60456A826AAD01AD18AD02062000F085
:102F0000C5F9064901F034FC0100280001F030FC4D
:102F10000021FFF7C1FCE3E7010300004E0E0000B3
:102F200070B504000E001500FFF7D6FF22002C320A
:102F3000E16A4E40354080235B0113431D602063EE
:102F400070BD000070B505000C00062000F09EF971
:102F5000C000210001F00CFCC60908D00E4B9E42B7
:102F600016D87F23184001303400460800E00124C1
:102F70006C62AE62002200212800FFF7D1FF06201C
:102F800000F084F98000A101891901F0F1FB70BD06
:102F90000026024CECE7C046FEFF0000FFFF0000E9
:102FA00010B505394901013AD2001143002B09D06F
:102FB00002220A43012B07D0002111436E22FFF7A2
:102FC000AFFF10BD0022F4E70421F6E710B5002999
:102FD00000D010211022FFF7A3FF10BD002909D057
:102FE0000A22064B9C466044434258414000044B31
:102FF000C252704780225200F3E7C0460080FCBFF7
:10300000401B002070B505000C00062000F03EF9C2
:10301000061E27D0164B9D4226D08022D203154B88
:103020001A60154B1A60154B9B6811009943FAD131
:1030300000212800FFF7D2FF21002800FFF782FFC0
:1030400006000023012208212800FFF7A9FF2A001B
:103050002C3280239B01134310221A60084B2B63F0
:103060000323AB64300070BD80221204D7E7C04652
:103070000080034000E0004000F0004000C000403D
:1030800001030000F8B5DE4657464E464546E0B51A
:1030900005000F0092460A9A934250D31A0E9146A9
:1030A0001E020A9A00233000494601F09FFB804629
:1030B0006C006419A400304B9C46644463688342EE
:1030C00000D260602B1FDBB29B46012B3DD9C02391
:1030D0009B012343802212011A60AB00274A9958B2
:1030E000002907D0506901F043FB431C5800C01869
:1030F0000338FDD253465A0123685A40E0231A4050
:1031000080235B0123431A605A46012A28D9802371
:103110009B012343802212011A60434663604246AA
:1031200000233000494601F061FBAD00134B5851BC
:103130000120F0BCBB46B246A946A046F8BD104BE4
:10314000104A3321104800F059F9012FBFD1C02394
:103150009B01234303221A60A368DB07FCD5C9E760
:103160002168794003220A401A60A2680123BB400B
:103170001342FAD0CBE7C04600800040D40E0020B6
:10318000C49C0010309D0010D89C001030B583B056
:103190000C2000F011F9FEF723F900280DD00023D0
:1031A00004E099002D4A2E4888500133092BF8D9A4
:1031B0002A4B2C4A5A6203B030BD2B4B00229A672F
:1031C00000F002F9294B01221A60274B5B6C012B9E
:1031D000FBD1274B03221A60234B9B6B012BFBD1A6
:1031E000013300930433234A0121234800F054F8AB
:1031F00005230093214A0121214800F04DF8214B7D
:103200000093002202210420FFF73CFF1E4D009591
:103210002B00002201210520FFF734FF104C009401
:103220002300002200210720FFF72CFF0094230039
:10323000002200210820FFF725FF0A4B00932300FE
:10324000002200210920FFF71DFF00952B0000221E
:1032500000210620FFF716FFADE7C046D40E002080
:10326000006CDC021BB70000008000403CB0004056
:1032700030B00040002F685900800240008C864723
:1032800000C00240001BB700405973078000014B8B
:10329000C0587047D40E0020F0B5C64600B50400F3
:1032A0000E0017001D00374801F062FA8046364BC9
:1032B000FA18364B9A4239D80100380001F058FA12
:1032C0000200103A98235B009A4235D86B1E062BF9
:1032D00038D8069B013B062B34D83F09474537D3E6
:1032E0002D04069B1A0315432368002B36DB284B5D
:1032F0009C4244D080225201264B1A60264B1A6011
:10330000264B9B6811009943FAD12660A060231DCB
:10331000C02292011A43212313602368002BFCDA98
:10332000E5600823136080BCB846F0BD1C4B1D4A05
:1033300011211D4800F062F81C4B1A4A19211A4845
:1033400000F05CF81A4B174A1C21174800F056F899
:10335000184B144A2321144800F050F822683F23E8
:103360001340B342C3D1A3681B051B0D8342BED1DA
:10337000E368EE22D2021340AB42B8D1D3E78022F9
:103380009201B9E7001BB70080E84BD380F8A9325F
:1033900000C0024000E0004000F0004000C00040DB
:1033A000409D0010749E0010A09D0010F09D001024
:1033B0000C9E0010589E001080239B000343014A7E
:1033C000D362704700800540064BAA2212011A60A2
:1033D0002F22DA60044B054A1A60024B5B68002B0F
:1033E000FBDA7047004002400060024000B0FA0083
:1033F00000BEFDE710B5FFF7FBFF000010B582B07F
:103400000C001900002A0CD0084B002A0BD00192A6
:10341000009323000200064801F076FF0120FFF729
:10342000E7FF044BF1E7034AF1E7C046809E001036
:10343000909E00101CAC001070B52B4B2B4A1A60EC
:103440002B4B2C4A1A602C4B9A682A4B9343FAD187
:103450002A4C01E008CC9847294B9C42FAD3FFF74D
:1034600095FE234B274A1A60234B9B68DB43DB0105
:10347000FAD1254B40229A675A671A67DA66234CBD
:1034800009E0234B234A87212348FFF7B7FF200099
:10349000FEF7C0FB0834214B9C4209D22368002B65
:1034A000F5D0012BEDD12000FEF7C1FB0834F2E787
:1034B0001B4CA1681B4DC022280001F0CDFDA5606A
:1034C000EFF30583002B00D000BEFEF70BF8FEF7EC
:1034D0005DFBFEF7FBFE144C01E008CC9847134B54
:1034E0009C42FAD370BDC04600E00040BFCDFBFE59
:1034F00000F00040FE7F3C0000C00040F80B0020C0
:10350000080C0020FFFFFF0100F00140F00B00203D
:10351000C09E0010549F0010E09E0010F80B002089
:1035200000ED00E000000020080C0020100C00203E
:103530000FB400B583B0084801F0B6FE049B002B21
:1035400007D005A90191180001F0BEFE034801F063
:10355000ABFE0120FFF74CFF349F00103CA9001088
:1035600010B50148FFF7E4FF449F0010704710B505
:10357000002802D00B684968984710BD0100002060
:1035800007E083001B185B00501C08601078C0180F
:1035900030380A681378303BDBB2092BF1D9704719
:1035A000F0B5DE4657464E464546E0B583B09346F5
:1035B0001F000C9B9A460D9C0E9B99460F9B9B07E8
:1035C00003D0B8460F00060022E00192A3468846C9
:1035D0004E46B9460700B44207D2551C4B464146F9
:1035E0002020B84701342A00F5E73D004F465C46ED
:1035F000019B9B46B1464646B84637002E0007E081
:10360000013C551C5346185D43463900B0472A001B
:10361000002CF5D135003E0047460F9B9B0707D491
:10362000100003B0F0BCBB46B246A946A046F0BDB0
:10363000B0464E46B9462F005D46531BB342EFD20B
:10364000541C4B4641462020B8472200F5E7F0B510
:10365000CE46474680B585B0944698460C9D0D9C55
:103660000EAB1B789946109A119B129EB7071CD47B
:10367000002B0CD0F7070AD54F46002F02D10C378C
:10368000374204D0013B02E030272F5501349442E9
:1036900001D21F2CF8D9F70707D59C4205D21F2C61
:1036A00003D830272F550134F5E7F70615D57705F0
:1036B00005D4002C03D0944224D09C4222D00F9AEF
:1036C000102A2BD00F9A102A30D00F9A022A35D008
:1036D0001F2C02D830222A5501341F2C05D84A4607
:1036E000002A31D02D222A550134039602930194E9
:1036F000009543466246FFF753FF05B0C0BCB9468C
:10370000B046F0BD621E012C06D00F9F102F01D0D5
:103710001400D4E7023CD2E71400D0E7B206D1D4BB
:103720001F2CCFD878222A550134D1E7B206CCD548
:103730001F2CCAD858222A550134C9E71F2CC7D8D4
:1037400060322A550134C3E7720703D52B222A556C
:103750000134CAE73207C8D520222A550134C4E70C
:10376000F0B5DE4657464E464546E0B593B0814635
:103770008A46089209931CAB10CB1B789B461E9D72
:10378000219B9846002C03D1102342469A43904631
:103790008023DB0046461E4042461A4212D0002CCF
:1037A00022D000260EE03033D9B2771C0AAB9955EF
:1037B0002900200000F0DCFFAC4216D31F2F14D8E4
:1037C0003E0004002900200000F0D2FFCBB2092BFC
:1037D000E9D94246920605D54121C918C9B20A392C
:1037E000C9B2E2E76121F8E7270043460693209B30
:1037F00005931F9B049303955B46029301970AABC5
:103800000093099B089A51464846FFF720FF13B0E2
:10381000F0BCBB46B246A946A046F0BDF0B5DE46B8
:1038200057464E464546E0B595B0089009910A9234
:103830000B931E9E1F9C20AB1B789B46229B994698
:10384000239D269B9A463300234303D110335246CF
:103850009A4392468023DB0057461F4052461A4245
:1038600019D0330023432DD0002714E03033DAB2CF
:103870007B1C98460CABDA554A462B0030002100E1
:1038800000F0B4FFA5421FD819D043461F2B1BD808
:10389000474606000C004A462B003000210000F08D
:1038A000A5FFD3B2092BE1D95246920605D5412294
:1038B000D218D2B20A3AD2B2DAE76122F8E7B145B9
:1038C000E3D901E00023984653460693259B0593D0
:1038D000249B04934B4603935B4602934346019318
:1038E0000CAB00930B9B0A9A09990898FFF7AFFE5F
:1038F00015B0F0BCBB46B246A946A046F0BD0000DC
:10390000F0B5DE4657464E464546E0B591B0834693
:103910008A460C9298461A9C08941B9D0995220091
:103920002B002000290001F0DCF9002800D0E5E0A0
:1039300001225242D74B2000290001F0CDF9002886
:1039400000D0DBE001225242D34B2000290001F0DD
:10395000ADF9002800D0D1E000220023089D280006
:10396000099E310001F0A2F9002800D0DDE008989E
:103970000999069007918023DB001E9A1A400D9248
:103980001E9A1A4201D106231C9306980799040037
:103990000D000A000600024300D1D1E0080D4005E9
:1039A000400DBE4CA44660440A03120BBC4B1343AB
:1039B0001F0001F0A9F9BB4ABB4B01F038F9BB4A23
:1039C000BB4B01F015F904000D000022B94B30008B
:1039D000390001F008F9B84AB84B01F028F90200A3
:1039E0000B002000290001F003F901F0A5F9814640
:1039F00001F08AF904000D00B14AB24B01F017F949
:103A00000022B14B01F0F4F801F096F90600AF4A3C
:103A1000AF4B2000290001F00AF904000D0030002E
:103A200001F072F9AB4AAC4B01F001F902000B0056
:103A30002000290001F0D7F804000D0002000B005F
:103A400001F0F5F80A900B91A44BF31800261F051E
:103A500022002B002000290001F0CAF80E900F91DF
:103A600022002B0000208021C90501F0BCF80400D1
:103A70000D0000229A4B0A980B9901F0BEF8002223
:103A8000984B01F0B5F802000B000A980B9901F071
:103A9000B4F80022944B01F0ABF802000B000A9836
:103AA0000B9901F0AAF802000B002000290001F098
:103AB0009FF802000B000E980F9901F09EF800226B
:103AC000774B01F095F832003B0001F0B0F80600AA
:103AD0000F0004000D00069A079B01F0FDF8002876
:103AE00030D001235B429C46E14400227D4B3000F4
:103AF000390001F082F804000D0023E01E9B0493BE
:103B00001D9B03931C9B0293089A099B00920193AF
:103B100043460C9A5146584600F0FCF811B0F0BCF0
:103B2000BB46B246A946A046F0BD0023002406933A
:103B30000794069580231B069C46664407961AE761
:103B4000002399464B466333C62B1ED804261E9B82
:103B50001B0526D52B0023430FD0644A644B0698DF
:103B6000079901F0B1F8002879D00022614B06983E
:103B7000079901F09BF8002871D01C9B4B4506DD8E
:103B80004A46981A431E1C9303E00526DFE70023EC
:103B90001C938023DB001E9A1A431E9200260023EA
:103BA00099461D9B9E4264D29F1B02231E9A1A4077
:103BB0000A921E9A134202D0002E00D000274B46D4
:103BC000002B07D022002B000698079901F015F86A
:103BD00006900791002200230898099901F066F8E1
:103BE000002848D1444B1E9A1340049303971C9B12
:103BF0000293069B079C0093019443460C9A5146FE
:103C0000584600F087F8002E00D187E71E9B9B06E0
:103C10003DD54525441C4346020051462800D8475F
:103C20004B46DA179B18534005220592013E049635
:103C3000002203920A3202924A46D00F019000936A
:103C40004346220051465846FFF78AFD0A9B002B47
:103C500000D163E702005F460C9E1D9D54E01C9B53
:103C6000002B9ED00D9B002B9BD01C9B013B1C93DB
:103C700097E7002799E7069C079D220029008020EE
:103C80000006844661440B0006920793AAE7652567
:103C9000C0E7C046FFFFEF7FFFFFEFFF01FCFFFF24
:103CA0000000F03FFB799F501344D33FB3C8608BB3
:103CB000288AC63F0000F83F61436F63A787D23F61
:103CC00071A379094F930A400000E03F1655B5BB38
:103CD000B16B0240EF39FAFE422EE63FFF030000CF
:103CE00000002C4000002440000018402D431CEB35
:103CF000E2361A3F80842E41FFF7FFFF541C4346F3
:103D000051462020B8472200931BAB42F6D3100047
:103D100004E7C046F0B5DE4657464E464546E0B598
:103D200095B00690079193469946209F1E9A1F9B37
:103D30001000190000F0D5FF002831D101225242B5
:103D4000BF4B1E981F9900F0B1FF002837D1012208
:103D50005242BC4B1E981F9900F0BEFF00283DD177
:103D60000022B94B1E981F9900F0B6FF002850D1D1
:103D70000022B64B1E981F9900F098FF002848D1EA
:103D8000002200231E981F9900F090FF002850D1B8
:103D900000239846229B5B0500D4B6E0002458E03F
:103DA000229B0393219B029303230193A84B00932F
:103DB0004B465A4607990698FFF7F2FB0EE1229B05
:103DC0000393219B029304230193A24B00934B4640
:103DD0005A4607990698FFF7E3FBFFE00423229A6F
:103DE0001A4022990B4210D09B4B002A0FD004227C
:103DF0002299039121990291019200934B465A46D0
:103E000007990698FFF7CCFBE8E0944BEDE7032217
:103E1000EEE7229B0493219B039302971E9B1F9C1A
:103E2000009301944B465A4607990698FFF768FDA0
:103E3000D4E01E9A1F9B0020002100F0D4FE1E90AB
:103E40001F9101239846A5E70CAB30221A55013F7C
:103E500001341F2C01D8092FF6D81E981F9900F0A5
:103E60006BFF050000F050FF02000B001E981F9929
:103E700000F0B9FEFA007A4B9B181A685B680A9248
:103E80000B9300F0D4FE0890099100F079FF060032
:103E900000F036FF02000B000898099900F0A3FE1D
:103EA0000890099100226F4B00F016FF00282ED0D9
:103EB0000136300000F024FF02000B000A980B9935
:103EC00000F0FAFE002801D001350026002F2CD189
:103ED000280000F019FF02000B001E981F9900F047
:103EE00082FE06000F0000225E4B00F0DFFE00287D
:103EF00046D100225B4B3000390000F0EDFE002877
:103F00003ED1EB073CD501353AE0062746E70022D3
:103F1000544B0898099900F0C9FE0028D6D1002E0C
:103F200001D0F307D2D50136D0E7AA461F2C11D80D
:103F3000013F0A21300000F01BFC651C30310CAB46
:103F400019550A21300000F013FC092E0ED9060085
:103F50002C00EBE755461F2C0CD87B1E002F09D0F8
:103F60000CAA302111551F000134F4E72B005546EF
:103F70001C00F0E71F2C03D80CAB2E221A5501347D
:103F80001F2C10D80A21280000F0CAFB661C303113
:103F90000CAB19550A21280000F0C2FB051E01D008
:103FA0003400EDE734000323229A1340012B1CD088
:103FB0001F2C06D84346002B32D00CAB2D221A55AD
:103FC0000134229B0393219B029301940CAB009339
:103FD0004B465A4607990698FFF7E2FA15B0F0BC2F
:103FE000BB46B246A946A046F0BD219B002B13D08C
:103FF0004346002B02D10C3313420FD0219B013BCF
:104000002193190003E00CAB30221A5501348C4285
:10401000CED21F2CF7D9CBE72199F8E72199F6E703
:10402000229B5B0704D50CAB2B221A550134C8E741
:10403000229B1B07C5D50CAB20221A550134C0E7C3
:10404000FFFFEFFFFFFFEF7F65CDCD4165CDCDC118
:10405000709F0010749F0010689F0010649F0010F4
:1040600060A100100000E03FF0B5DE4657464E4626
:104070004546E0B593B082468B46904611930029A1
:1040800000D1EBE200275546119B1878002800D19B
:10409000E7E2252809D07C1C43463A005946A84748
:1040A000119B013311932700EEE701331193002494
:1040B000119A11780B00203BD8B2102803D8830046
:1040C000D048C3589F460B00303BDBB2092B2CD99C
:1040D0002A292FD000230A93119B1A782E2A39D02F
:1040E00000239A46119A1378683BD9B2122976D8E0
:1040F0008B00C549CB589F4601231C4301321192C6
:10410000D6E702231C4301321192D1E704231C435A
:1041100001321192CCE708231C4301321192C7E708
:1041200010231C4301321192C2E711A8FFF726FAAF
:104130000A90D1E71C9B1A1D1C921868002804DB0A
:104140000A90119B01331193C6E702231C4343429B
:104150000A93F6E78022D20014435A1C11925A782F
:104160001300303BDBB2092B04D92A2A07D00023E5
:104170009A46B7E711A8FFF701FA8246B2E71C9BFF
:104180001A1D1C921868002804DB8246119B01331B
:104190001193A7E70020F8E780235B002343511C1D
:1041A000119152786C2A01D01C0018E0C0239B00AA
:1041B0001C430131119112E080232343511C1191C2
:1041C0005278682A01D01C0009E0C0231C43013149
:1041D000119104E080235B001C4301321192119B7A
:1041E00018780300253BDAB2532A00D92CE2930059
:1041F000864AD3589F4680239B001C43013211926C
:10420000EDE780235B001C4301321192E7E7782839
:1042100009D0582838D06F2838D0622838D01023D9
:104220009C430A2600E01026582833D0692803D082
:10423000642801D00C229443630501D501229443E4
:1042400069282AD0642828D0A30500D59FE0E3057B
:1042500000D5B8E0630600D4CAE01C9A111D1C9179
:104260001168FF220A4005940A9B04935346039366
:10427000029600230193009243463A0059462800D3
:10428000FFF76EFA070027E01026CDE70826CBE7F8
:104290000226C9E720221443C8E7A30520D4E3057A
:1042A00050D4630666D51C9A111D1C911168FF221B
:1042B0000A40D317D118594005940A9B04935346DA
:1042C00003930296D20F0192009143463A00594659
:1042D0002800FFF745FA0700119B01331193D3E63D
:1042E0001C9BDA1D07218A43110008311C911168BB
:1042F00053689C46DB170C930D930C9A0D9B100092
:1043000048400E90624653400F930E980F990C9AB6
:104310000D9B801A99410E900F9108940A9B079368
:10432000534606930496002305936346DA0F0292E0
:104330000090019143463A0059462800FFF76EFA73
:104340000700C9E71C9A111D1C911268D317D118D8
:10435000594005940A9B0493534603930296D20F47
:104360000192009143463A0059462800FFF7F8F9B8
:104370000700B1E7230605D51C9A111D1C910023E7
:10438000D25E96E71C9A111D1C91126891E71C9B46
:10439000DA1D07218A43110008311C9108940A9BF9
:1043A00007935346069304960023059302931368DC
:1043B00054680093019443463A0059462800FFF799
:1043C0002DFA070088E71C9A111D1C9105940A9B81
:1043D00004935346039302960023019313680093BA
:1043E00043463A0059462800FFF7BAF9070073E739
:1043F00023060DD51C9A111D1C9112681204120C73
:1044000031E7C0467C9F0010C09F00100CA0001038
:104410001C9A111D1C91126825E746281AD01C9B76
:104420000733072293431A0008321C9204940A9A15
:104430000392524602925C681B68009301944346C3
:104440003A0059462800FFF765FC0700119B01332D
:10445000119319E620231C43E1E7672801D0472880
:1044600002D180231B011C43452801D0472801D1DC
:1044700020231C431C9B0733072293431A00083256
:104480001C9204940A9A0392524602925C681B683A
:104490000093019443463A0059462800FFF730FA4A
:1044A0000700119B01331193EEE502231A0022400D
:1044B000924623421FD001241C9B1A1D1C927A1C79
:1044C0009146187843463A005946A8475346002B70
:1044D00016D1119B013311934F46D5E5561C434627
:1044E00059462020B847230032005C1C9D42F5D875
:1044F0003D001700E0E701233A002F000A9DF4E792
:104500004A46A9460A9D06E0571C434659462020C4
:10451000C84734003A00661CA542F5D84D4691467E
:10452000D7E71C9B1A1D1C921B6899465346002B0B
:1045300000D1013B4E4601E0013613003278002ADB
:1045400002D05A1E002BF7D14B46F21A109280234C
:10455000DB0026001E401C4203D0524501D95346C1
:10456000109302231A0022400B92234205D03A00F6
:1045700037004C46A946554620E03A00109B5F465E
:10458000B3462E0006E0551C434639002020B047B4
:1045900023002A005C1C0A999942F4D835005E4633
:1045A000BB46109437004C46A946554606E01D0010
:1045B0000134561C43465946C8473200207800282B
:1045C00004D0002FF4D06B1E002DF0D117004D4603
:1045D0000B9B002B03D1119B0133119354E50A9FD0
:1045E000109B06E0561C434659462020A84723004E
:1045F00032005C1C9F42F5D81700ECE721231C43D6
:104600001C9B1A1D1C921B6800930594082304939D
:1046100053460393102302930023019343463A0029
:1046200059462800FFF79CF80700119B01331193AE
:104630002AE57C1C43463A0059462520A847119B91
:104640000133119327001FE57C1C43463A0059466D
:10465000A847119B01331193270015E50A4B9A4691
:1046600010E5AA46474502D343465A1E00E03A00E9
:10467000434659460020D047380013B0F0BCBB4633
:10468000B246A946A046F0BD6D35001000B585B014
:10469000029003910121009313004A4202A90248AB
:1046A000FFF7E2FC05B000BD6F35001001480421A2
:1046B000014B184760070020E9460010014B9B683A
:1046C000184700006007002010B5010018231B8860
:1046D00014221088984710BD10B5010018231B88BC
:1046E00016221088984710BDF0B5C64600B50700E1
:1046F0000E0000250123984600E00135B5420AD29C
:10470000AC003C192068FFF7DFFF20600028F4D1DF
:1047100000239846F1E7404680BCB846F0BD000053
:10472000124A936F9B0815D29066D166002905D076
:10473000FFE7FFE7FFE7516F106F704704B5802177
:104740000906C2175140002800D0C84304F054FCA9
:10475000002104BDF0B5146E556E576F166FFFF74C
:10476000E3FF1466556657671667F0BD000000D07A
:10477000114A936F9B0813D210665166002905D029
:10478000FFE7FFE7FFE7516F106F704704B50028A0
:1047900001D00020C04304F02FFC002104BDC0461E
:1047A000F0B5146E556E576F166FFFF7E5FF146680
:1047B000556657671667F0BD000000D094464A4A18
:1047C000926F9208624601D228E0C046F0B5464E8C
:1047D000346E756E776F366F00F020F89446424A5B
:1047E00014665566576716676246F0BD94463E4AA2
:1047F000926F9208624601D254E0C046F0B53A4E3C
:10480000346E756E776F366F00F04CF89446364A0A
:1048100014665566576716676246F0BD002B24DBA9
:1048200011D000293EDA00B5C943404200D1013120
:1048300000F038F8C943404200D10131DB43524215
:1048400000D1013300BD002AEBD1002801D100299D
:1048500005D00020C90FC90701D1C043410800B5E8
:1048600004F0B2FB0022002300BD00B500290ADBE2
:10487000DB43524200D1013300F014F8C9434042F7
:1048800000D1013100BDC943404200D10131DB43B9
:10489000524200D1013300F005F8DB43524200D10F
:1048A000013300BD002923D1002B18D1002A0CD0E0
:1048B000BC460D4F38667A6600210023FFE7FFE70C
:1048C000FFE77A6F386F67467047002801D00748C6
:1048D000010000B504F078FB0022002300BD0200B7
:1048E0000B00002000217047000000D0FFFFFFFFF9
:1048F000002B00D0BFE0130C28D1002AE7D080B4F1
:10490000114F39667A66FFE7FFE730B4040C7B6F1E
:10491000396F1B0423433B667A66FFE7FFE7FFE737
:10492000C04684B27B6F3D6F1B0423433B667A66AF
:10493000FFE7FFE7C04600232C042D0C7A6F386F89
:1049400000196941B0BC7047000000D0F0B5944632
:104950000025140E01D112020835140F01D11201E5
:104960000435940F01D192000235D40F01D15200C9
:104970000135D40B0134254F7C66254C3C660E0C6A
:1049800093B2FFE7FFE7FFE73C6F6643360C770320
:10499000BE467343DF0B5B04C01AB941130C73436B
:1049A000DB18C91ACE086643360CB64493B273437B
:1049B0001F0F1B01C01AB941130C73431F0B1B05BA
:1049C000C01AB941860D8F023E436643360C092D4D
:1049D00024DB520A7243801A7703460A6643360C78
:1049E00016235B1BDE40DF40BF1964466643821B13
:1049F0007046043506330100D940A840C01900D3E1
:104A00000131A24206D20023F0BD0000000000D018
:104A1000FFFFFFFF121B0130F3D3F1E709277F1BD4
:104A2000FE406446A2B27243801A00D20139220CC1
:104A30007243130C1204821A99410B00704604351C
:104A400013370100F940A840801900D30131002B31
:104A500002D1A2420AD2F0BD013000D30131121BB3
:104A6000FAD2013BF8D1A24200D2F0BD013000D30E
:104A70000131121BF7E7F0B51C0C00D080E00CB43C
:104A800000251C0A04D11B02160E334312020835FE
:104A90001C0B04D11B01160F3343120104359C0B70
:104AA00004D19B00960F334392000235DC0B02D1F8
:104AB00092185B4101351C00971864410134464F40
:104AC0007C66464C3C660E0CFFE7FFE7FFE7C046FE
:104AD0003C6F6643360C7703BE4697B27743C01BE4
:104AE00000D20139C01B00D201399FB27743C91BE4
:104AF000C91B170C77437E04FF0B801BB941CE08FE
:104B00006643360C0C2D33DBB644120B1F053A43BB
:104B10001B0B97B27743C01B00D201399FB277437A
:104B2000C91B170C77433E043F0C801BB941860D0F
:104B30008F023E43664329277F1BFE400C3D77468C
:104B4000AF40BF1930BCA2B2ABB272437343801AFC
:104B50009941220C7243130C1204801A99410200ED
:104B60000B000137001BA941F9D2781E0021F0BDCE
:104B70000C277F1BFE4077467F0BAF40FF19E0E715
:104B800000245D1C07D0144F7D663966FFE7FFE700
:104B9000FFE7FFE73C6F95B29EB265436643401B5B
:104BA000B141150C1E0C6543664336042F0C3E4381
:104BB0002D04401BB141994204D202000B00200099
:104BC0000021F0BD01D19042F7D3801A9941013400
:104BD0009942F2D3F6E70000000000D0FFFFFFFF8C
:104BE00048404140484018B4134B5B68019308BDEE
:104BF00018B4114B1B68019308BD94460F4A926F7D
:104C0000920805D2624618B40B4BDB68019308BDCD
:104C10000A4AF0B5146E556E576F166F6246FFF76D
:104C2000F2FF064A1466556657671667F0BD18B45A
:104C3000014B9B68019308BD24190020000000D09F
:104C4000FFB550404240504059404B40594000E071
:104C5000FFB5154F4C00640D03D0BC4204D10C03CA
:104C600014D80020090D09055C00640D03D0BC4276
:104C700004D11C030AD800221B0D1B0501264B4042
:104C800009D44B4003D58B4200D18242FFBD9942EB
:104C9000FCD19042FFBD0B43DB1803431343F5D017
:104CA000C9434918FFBD0000FF07000000B5FFF72A
:104CB000CFFF804100BDC04600B5FFF7C9FF01D955
:104CC000002000BD012000BD00B5FFF7B9FF01D9EC
:104CD000002000BD012000BD00B5FFF7B1FF8041FD
:104CE00000BD012040054A00121804D85A001218CD
:104CF00001D8002070470120704700207047000055
:104D00000021002805D17047C1174840401AFAD049
:104D1000C90713B5064B1B6898470CBC441CA2403E
:104D20001005120B0349091B09051943114310BD56
:104D3000241A00201F04000010B54C00620D8023CF
:104D4000D218DB00D21A5B057E2A10DD9E3A13DAF8
:104D5000CC170903490819435242D1406400013479
:104D60001532202A05DAD0400843604310BD0020E8
:104D700010BD0846604310BDC80FC018013810BDF3
:104D800018B4024B5B6A019308BD0000241900208F
:104D900018B4024BDB6F019308BD000024190020FA
:104DA00010B50148FEF7C4FBB0A1001070B5132385
:104DB0001C78012C14D0012C14DC022C02DC1F4ABC
:104DC0001F4B9A641F48FFF77FFC1F4B186070BD94
:104DD00099001E481A4A885001331F2BF8D9EAE778
:104DE0000023FAE71A48FFF777FC05001948FFF798
:104DF00073FC023803789B007F2B19DD8022290089
:104E00000F4800F029F9022CD7D1134B1A88B5238B
:104E10001B029A4209D1114B1A88114B9A4204D1B4
:104E2000104B1A88104B9A42C7D00020FEF780FB27
:104E30000E4B0F4A32210F48FEF7E0FA794E001070
:104E4000241900204C330000241A0020A14D00102A
:104E5000534400005346000054380000D838000086
:104E6000494600009C38000059460000C8A10010C7
:104E700078A200101CA2001007B56046002800D1DF
:104E800000BE01880A0A0230DF2AFAD1C9B28208BC
:104E900004D3028840880004104300E00068024AFE
:104EA0005050039007BD0000241900205143434394
:104EB000C9188C46110C83B24B4310B4040C6143E7
:104EC00092B280B2504362431C041B0C001910BC08
:104ED00059411304120CC01851416144704700003D
:104EE0004840414048400E4B5B6818470C4B1B68DC
:104EF00018470C4A936F9B0802D2094BDB6818478E
:104F0000F0B5146E556E576F166FFFF7F6FF054A32
:104F10001466556657671667F0BD014B9B681847C6
:104F2000281A0020000000D0491A002808D108469D
:104F300070470000C10FC90700D54042002817D0B4
:104F4000F44603B40B4B1B68984706BC81409E385F
:104F50004042803107D20B0607D04900490AC005FC
:104F60001043084360470130F8E7490A8902F5E732
:104F700070470000241A0020014B5B6A18470000AC
:104F8000281A0020014BDB6F18470000281A002068
:104F9000014B9B6918470000281A0020014B9B6DAC
:104FA00018470000281A002010B50148FEF7C0FA83
:104FB0001CAC001070B513231E781848FFF78CFB4B
:104FC0000500012E11D0012E09DDAB1E1B789B00C0
:104FD0007F2B1DDD80222900114800F03DF811488B
:104FE000FFF772FB104B186070BD542201000C4893
:104FF00000F032F8002300E001331F2BE3D89A00C1
:10500000074C1259002AF7D19A0008481051F3E7CB
:10501000074B084A42210848FEF7F0F953460000C2
:10502000281A00204C330000241A0020A94F001039
:105030008CA2001018A30010C0A200100148042187
:10504000014B184770070020E9460010014B1B6810
:105050001847000070070020014B5B6818470000EC
:105060007007002010B50300080011001B68984766
:1050700010BD0000F8B507000D001600437D002BA1
:1050800002D0002400200CE003681100280098479B
:105090002DE03B7D10E0022115483B689847601CDD
:1050A0000134B44214DA002CF3DD2B19013B1B78D8
:1050B0000D3B5A425341DBB22A5D0A2AF0D1002B44
:1050C000EED1A042E7DA211A28183B689847E2E7B8
:1050D000B04203DA311A28183B689847002E06DDE3
:1050E000AD19013D2B780D3B5A4253413B75F8BD3C
:1050F000A0A3001070B505000368002B16D00C4B60
:105100001C6805E0290004C92000FFF7B3FF2469EB
:10511000002C09D02368002BF9D0064B1B68002B0C
:10512000F0D0A342F3D1EDE700232B6070BDC04661
:1051300034180020B818002070B505000C000B686A
:10514000802B05D021684B1C23606418257170BD2D
:105150000800FFF7CFFFF5E710B5FDF77DFB020074
:105160000B1E0BDB0D48002112184B41002B0BDBF3
:10517000002B0DDB0A4803F05FFF10BD094B0A4A04
:105180003F210A48FEF73AF901225242084BEFE765
:10519000044B054A3F210548FEF730F940420F0015
:1051A000F00B00200091001088A300101C9100104B
:1051B000FFFFFF7F10B5024803F0FEFE10BDC046A2
:1051C000F00B0020F0B5CE46474680B583B0060010
:1051D0000D0090461C00FFF7BFFF81466B1C05D0F9
:1051E000002C08D0194F1A4B1C6807E0300003F060
:1051F000A3FD0500F4E7174FF5E72469002C17D04D
:105200002368002BF9D0144B1B68002B01D0A3425C
:10521000F3D12A0031002000B8474346002BECD0E0
:105220006B46D91D0A230B7001222000B847E4E722
:105230004B46002B07D16B1E9D41E8B203B0C0BCAA
:10524000B946B046F0BDFFF7B5FFF4E76550001072
:105250003418002075500010B8180020094A01E0E9
:1052600010331A001368002B08D08342F8D10029AC
:1052700007D1036913600023036102E0002900D015
:10528000106070473418002010B5064B1C6801E010
:1052900098472469002C03D06368002BF8D1F8E705
:1052A00010BDC0463418002070B5050003F044FD61
:1052B00004000023012201002800FFF783FFFFF70D
:1052C000E3FF200070BD000070B5A2B004000E0026
:1052D000FFF742FF0500002301933300220001A9DC
:1052E0000848FFF7D3F9040001A8FFF703FFFFF711
:1052F000CBFF002D02D1200022B070BDFFF75AFF76
:10530000F9E7C046395100100FB400B583B004A9C5
:1053100001C90191FFF7D8FF03B008BC04B01847DA
:1053200010B500F0F9F8012010BD0000F0B583B011
:1053300005000E0000240FE06B46D91D0D230B70F5
:105340000020002816D193699B06FCD40B781360CB
:1053500001300131F5E70134B44219DA0D4B1A6816
:105360002F5D0D4BD31859424B415B000B495B5EDF
:10537000BB42E1D06B46D91D0F7000200028EAD156
:1053800093699B06FCD40B78136001300131F5E77B
:1053900003B0F0BD441B00200080FCBF401B002078
:1053A000F0B583B006000F00002504E06B4607331C
:1053B0001B782B702500BD4215DA174B1A689369CC
:1053C0001024210019401C420DD16C1C75196B462C
:1053D000D81D0029EAD19369DB06FCD41368037059
:1053E00001310130F5E70D4B1B68002B0CD00A4B47
:1053F0001A685023936311003431536B38221A40DA
:1054000080235B010B431A60002D02D0280003B0FB
:10541000F0BD033DFAE7C046441B0020CC0E00203F
:1054200010B5064B1B68002B06D0054A12680021F8
:105430009163044A1068984710BDC046CC0E002006
:10544000441B0020D00E002070B504000E001C4B41
:105450001B681C4A98184242504114300500002C29
:1054600003D0194A1268002A06D0002C19D0164B16
:105470001C60164B1E6070BD1549FCF7E1F8012158
:105480002800FCF7C5F80E4B1A68502393631100EF
:105490003431536B38221A4080235B010B431A606E
:1054A000E5E7094A1268002AE1D000229A63002148
:1054B0002800FCF7ADF806492800FCF705FAD6E706
:1054C000441B00200080FCBFCC0E0020D00E00202A
:1054D0002154001070B50D001C000D4B1860002AFF
:1054E0000BDA002C0EDA0A4B18682900FDF78AFD4A
:1054F00001210848FFF7B2FE70BD02211000FBF742
:105500009FFEEEE702212000FBF79AFEEBE7C04684
:10551000441B00208007002010B5064B1B78064B6B
:105520001B78E1210123002249020448FFF7D2FF42
:1055300010BDC046042C0410082C04100040034089
:10554000F0B5DE4657464E464546E0B583B0824646
:1055500088460620FDF79AFE53465B6802221340F8
:105560000193042353449B46C0239B0159460B439C
:105570001A6002248146474600E02C00FE2C1FD80A
:105580004B4600930026A51C28023A000023002168
:10559000FFF78CFC002903D1B142EED14845ECD98C
:1055A0004E46B84680256D00012D0ED96F1E210094
:1055B00079433000FFF7DCF8404506D83D00F3E7BB
:1055C0004E46B84680256D00EEE753461C616B1EC3
:1055D0001B02524612685340FF22120213408020E1
:1055E000400152461043036080239B015A461343F7
:1055F000019A1A60290061433000FFF7B9F803B03F
:10560000F0BCBB46B246A946A046F0BD70B504004A
:10561000174B984228D080229202164B1A60164BE4
:105620001A60164B9B6810009843FAD12000FFF7D0
:1056300087FF656802210D40231DC02292011A4395
:105640001160266807227240CF2616408022520140
:10565000224316608022920113431D6024341443B8
:1056600003222260196070BD80225202D5E7C04635
:1056700000C0034000E0004000F0004000C00040D7
:10568000014B18607047C046A00D002010B50A00FD
:105690000100024802F070FB10BDC046080F002058
:1056A000014B18687047C046A00D002000B583B0BC
:1056B000684603F0B5F96946034803F0B7F90028D6
:1056C00000D0014803B000BD100C002010B5FFF75A
:1056D000E7FF040002F0CCFE054B9C4200D010BD59
:1056E00023685B6B200098470020FFF7C9FFF6E7AF
:1056F000100C002010B5FFF7D3FF041E06D02000C9
:1057000002F09AFE002808D0002010BDFFF7CEFF5F
:10571000041E07D0FFF7B4FFF1E7FFF7D7FF022021
:105720004042F2E702204042EFE7000010B5024895
:1057300000F00CF810BDC0461C19002010B508225E
:105740000149FFF789FC10BD1C19002070B588B015
:10575000040004AD002604960922002105A8FFF7E5
:1057600075FC00960922002101A8FFF76FFC4B236E
:105770002B700D226946280003F00EFC002304E084
:105780005A1D69468A5CE2540133072BF8DD08B0E4
:1057900070BD002805D0D0231B06802292045A61D8
:1057A0007047D0231B06802292049A61F8E700001C
:1057B00010B5094BC45821791820FBF741FD217918
:1057C0001D20FBF73DFD012200211D20FBF750FDB0
:1057D0000020FFF7DEFF10BD4C08000010B50400EC
:1057E0000520FDF753FD000C60430349FEF7C0FFA1
:1057F0000338FDD210BDC0469A3B000010B5012011
:10580000FFF7C7FF6420FFF7E9FF10BD70B5050083
:10581000194BC458002C17D00623E356002B08DB85
:105820000522A256531C10D106216156206802F0B1
:1058300053FB0720205600280CDA082020560028A9
:1058400011DA0D4B0022EA5070BD0C49206802F0BD
:10585000A1FBE9E702F082FC0720205602F066FC7B
:10586000FF23E371E9E702F079FC0820205602F0FB
:105870005DFCFF232372E4E74C080000D0A8001071
:10588000F0B5DE4657464E464546E0B593B08246F3
:1058900010AA864B03CB03C28549864802F04AFB17
:1058A000002800D1E4E00123834A51468A58002AA7
:1058B00000D0E5E0814C804A8C50990010AA8858AD
:1058C0002060FF222272E27106332371002102F070
:1058D00013FB40B2A071002800DAD7E0774C74497E
:1058E000206802F03BFB43B298466371102200210E
:1058F00008A8FFF7ABFB80256D020895F8235B0233
:1059000009938023DB020A93C0273F030A971022E2
:1059100008A904A8FFF7A0FB43465A1D059B039363
:10592000674818404346DB011843120310430590B3
:10593000079B0393DB00DB0880229205904613430C
:105940000793604B994618400590102204A90CA8B3
:10595000FFF782FB80239B020C935B480168302297
:105960008A435A490A60006801229346160086431A
:105970000E600F99039156480840564901430F9114
:10598000554801400F430F9754493940544F0F4336
:105990000F97FF00FF0841460F430F970D990391A2
:1059A00049460398014089460D914E4F0F970E9935
:1059B00003914D49039801400D430E954B490D400D
:1059C0001D430E952168383180239B010B438021B4
:1059D000490419602068062161564B005B18DB0002
:1059E000C318C826B4469C4466460C9A3260CC2242
:1059F00094469C4462464E461660D02294469C448F
:105A000062461560DC331F605B4600931D2202F086
:105A10003BFB21791820FBF713FC01220021182001
:105A2000FBF726FC01211820FBF73CFC0622A256BE
:105A300053009B18DB00226894466344D8332C4AF9
:105A40001A60002002F07AFBE071002002F076FB81
:105A500040B220720723E356002B1DDB00281BDB1E
:105A6000002013B0F0BCBB46B246A946A046F0BD2C
:105A70000F49204802F05EFA002813D0002313E7F4
:105A80001D4B1E4A66211E48FDF7B8FC5046FFF725
:105A9000BDFE06204042E4E75046FFF7B7FE062071
:105AA0004042DEE706204042DBE7C04634A8001053
:105AB000D0A80010000030504C080000C00E00209C
:105AC0007F00FEFFFFFFFF9F78C0014078D00140BC
:105AD000E0FF0FFC18001000FF7FF0FF1FFCFFE34A
